:020000040800F2
:10600000786800202DA30008A1630008A36300089E
:10601000AB630008AF630008B36300080000000032
:10602000000000000000000000000000B76300084E
:10603000B963000800000000BB630008BD630008EE
:1060400047A3000847A30008BF63000825B901085B
:1060500047A3000847A3000847A3000847A3000878
:1060600047A30008C964000847A3000847A3000825
:1060700047A3000847A3000847A3000847A3000858
:1060800047A3000847A3000847A3000847A3000848
:10609000C164000847A3000847A3000847A30008FD
:1060A00047A300082F64000847A3000847A300087F
:1060B000BF64000847A3000847A3000847A30008DF
:1060C00047A3000847A3000847A3000847A3000808
:1060D00047A30008DD630008DF63000847A300084A
:1060E000D964000847A3000847A3000847A3000895
:1060F00047A3000847A3000847A3000847A30008D8
:1061000047A3000847A3000847A3000847A30008C7
:106110002D64000847A3000847A3000847A3000810
:1061200047A3000847A3000847A3000847A30008A7
:1061300000F002F800F05AF80AA090E8000C82443F
:106140008344AAF10107DA4501D100F04FF8AFF21C
:10615000090EBAE80F0013F0010F18BFFB1A43F045
:10616000010318472CCF01004CCF01000A444FF027
:10617000000C10F8013B13F0070408BF10F8014BA6
:106180001D1108BF10F8015B641E05D010F8016BEB
:10619000641E01F8016BF9D113F0080F1EBF10F84F
:1061A000014BAD1C0C1B09D16D1E58BF01F801CB72
:1061B000FAD505E014F8016B01F8016B6D1EF9D5F5
:1061C0009142D6D37047000000230024002500260A
:1061D000103A28BF78C1FBD8520728BF30C148BF4A
:1061E0000B6070471FB51FBD10B510BD17F086FCC2
:1061F0001146FFF7F7FF00F0ACF817F0A4FC03B46A
:10620000FFF7F2FF03BC17F0A9FC000010B502F085
:106210007FFA4FF4803002F09BFA02F0D8FA04467D
:10622000012C27D1102001F075FD022001F05EFD48
:10623000002002F012FB002002F021FBA00202F07D
:1062400015FBE00302F036FB4FF4E011200402F0EE
:10625000E7FA012002F0F0FA00BF392002F09BFAC1
:106260000028FAD0022002F0EAFA00BF02F0F0FAA9
:106270000828FBD14FF4C0414FF0006001F0E3F972
:106280004FF4C06001F0A8F910BD00BFBFF34F8FFD
:106290003C48006800F4E0603B490843001D394970
:1062A0000860BFF34F8F00BF00BFFEE708B5FFF7E0
:1062B000ADFF482005F0DEF805F034F915F038F9A7
:1062C00011F03CFF12F075F9012011F04CFC05F0C3
:1062D000B5FE06F0D9FB12F01DFF04F0BFFE04F07E
:1062E0002FF908F01BFF01226946284807F0F0FC4F
:1062F0009DF80000552807D09DF80000AA2803D07B
:10630000002000F067FF06E09DF80000AA2802D0F8
:10631000012000F05FFF012269461C48401C07F085
:10632000D7FC9DF8000055280ED09DF80000AA2843
:106330000AD116F0F5FE16F0FFFE16F00DFF16F06E
:10634000C1F8012001F057F805F017FF17F0A6FA81
:1063500008BDFF200E4981F86901002081F866011F
:106360000C4908724FF496600B490860FFF79EFFD6
:1063700006E002F050F900F0E1F8084800F02EFDC8
:10638000F7E700000CED00E00000FA0500E003086C
:10639000D83C00200842002000000020A00D002072
:1063A000704711F0A0FC00BFFEE700BFFEE700BF92
:1063B000FEE700BFFEE7704770477047704710B5B3
:1063C00001F0F4FB48B101204E49087001F0F3FBE5
:1063D00001F0E3FB002001F0A4FB10BD704710B5F5
:1063E0002021494803F056FEF8B1002240F2255121
:1063F000454803F080FD4FF48071444817F032FBAC
:106400004349424804F043FF424908704FF4966004
:106410004149086001204149087011F0A4FB0122A4
:1064200040F22551384803F066FD10BD704710B5A5
:1064300004F0E5FD3A49087001213A4803F06BFC8D
:1064400000283BD00121374803F076FC364800781D
:10645000A0B10821354802F01AF860B1324800783E
:10646000401C31490870084600780A2806D10120EE
:1064700015F07EF802E000202B49087026480068DD
:1064800020B125480068401E23490860284800685C
:1064900020B127480068401E25490860254800684B
:1064A00020B124480068401E224908602248006844
:1064B00020B121480068401E1F49086010BD704788
:1064C00010B516F0C1FE10BD10B5082001F005FC96
:1064D00001201549087010BD10B54FF4805001F02F
:1064E000EBFB68B14FF4805001F0F7FB012011F095
:1064F0003AFB0120094908704FF49660064908608C
:1065000010BD00002700002000440040F0080020DB
:1065100064000020600000200000002069000020CE
:1065200068000020002C0140EC0500200010014014
:1065300004000020080000205400002070B504F082
:106540005EFD0546012D00D0A5B9FE48007888B152
:106550000020FC4908700721012011F0EDFB032108
:10656000F9A011F041FF1E20FB490860FF20FB4904
:1065700081F8690106F0B3F8F748006870B9F74888
:1065800090F86901FF2806D14FF49670F24908602F
:1065900005F0F3FD02E03C20EF490860EE4800689A
:1065A0000321B0FBF1F201FB1200E8B112F0FDFD96
:1065B0000446204611F0B0FD14E00721012011F03F
:1065C000BBFB0321E6A011F00FFF4FF47A7004F03B
:1065D0006DFF12F0EAFD04461020E5490870002026
:1065E000DD490860002CE8D0E2480068B0F5077F7C
:1065F00007D2DA4890F86901FF2802D1002011F093
:10660000B2FADC48006810B9002014F0B1FF70BD88
:10661000F8B5012012F0A2FC0446FF2C09D1CE48A7
:106620000068052804D20020D3490870D3490870B7
:10663000F8BDCA4890F86901FF2849D0452C1CD103
:10664000FF20C64981F8690105F0E3FFCC48807955
:10665000032806D1CA48C079042802D113F003FDEB
:106660001DE1C74880790528FAD1C548C0790328BB
:10667000F6D1072014F060F911E1302CF0DB392C51
:10668000EEDCB648407A0128EAD1BE4A511C2046C9
:1066900014F0A9FD05463DB905F059FF14F067FC5B
:1066A000002013F0E0FC0FE0012D05D105F0B1FF53
:1066B000042013F0D8FC07E0022D05D1032013F0CD
:1066C000D2FC002005F01CFF0020A4494872E6E03F
:1066D0004F2C07D1AC48007820B100209E490860BB
:1066E000A9490870232C1BD1A4480078C0B9002602
:1066F00013E0002012F032FC0446232C0CD1701C55
:10670000C6B2032E09D106F002F801209B49087099
:1067100064209149086001E000E0EAE700BFBEE0C4
:106720009648007801282FD1312C08D106F004F8C2
:106730001E208949086000209049087016E0322C1C
:1067400008D102208D49087006F010F864208249B3
:1067500008600BE0332C09D18C48047005F0FCFF75
:1067600064207D490860032084490870452CAED11F
:1067700005F003FD4FF496707749086000207E49CC
:1067800008707E4908708AE07C48007802280CD1A5
:10679000322C9CD17D48047005F0DEFF64206E49E8
:1067A000086003207549087079E074480078032870
:1067B00075D1302C14DB392C12DC75486E49097800
:1067C00044546D480078C0002830C1B2714B2A2271
:1067D000042011F089FB68480078401C6649087065
:1067E0006548007806284DD10721002011F0A4FA51
:1067F00006226949664817F06BF838B1032167A093
:1068000011F0F2FD1E205449086035E0032166A016
:1068100011F0EAFD5D480078312807D1552000903D
:1068200001226946644807F078FA23E05748007867
:10683000322807D1AA200090012269465E4807F05D
:106840006CFA17E051480078332807D1FF200090F8
:1068500001226946594807F060FA0BE04B4800787E
:10686000342807D1FF200090012269465248401E7B
:1068700007F053FA00F0F6FD00203F4908703F4949
:10688000087000BF452C0AD105F077FC4FF49670D4
:10689000314908600020384908703849087000BF45
:1068A000C6E61FB52D4890F86901012848D12B484C
:1068B000007800F0010018B928480078052828D190
:1068C0002648807A78B13E48006860B9032013F00A
:1068D000CAFBFF20214981F86901002005F010FE64
:1068E000002004B010BD2749481C12F070FD04467A
:1068F0007CB934480178344812F07FFD044614B95D
:1069000005F0B0FC05E00920144981F86901002078
:10691000E7E71248007800F0020018B90F48007845
:1069200005286FD111F065F809F0C7FB27480078FA
:1069300038B105F01AFE12488079032854D147E097
:1069400061E05FE069000020C0B6D1C0C1ACBDD33A
:10695000B6CFBFAA0000000004000020D83C0020F1
:10696000B5E7C1BFB5CD2CC7EBB3E4B5E700000078
:1069700060000020000000201A0000201800002005
:10698000D8080020423E00201000002019000020FE
:106990001B0000203AF6010821000020C3DCC2EBF6
:1069A000B4EDCEF300000000C7D0BBBBD6D02CC7DF
:1069B000EBC9D4B5C800000001E00308105E000870
:1069C00008000020590000209D07002086000020BC
:1069D000F748C079042807D1052013F044FBFF20B5
:1069E000F44981F869010BE0F1488079032807D167
:1069F000EF48C079062803D10220EE4981F86901E9
:106A000000206EE7D2E1EB4890F8690102286FD1CF
:106A1000E848807A50B1E848006838B9072013F098
:106A20008BFF002005F06CFD00205AE7E348E149A8
:106A3000D1F816208261498B8183DE48E0490A68DB
:106A4000C0F81E228988A0F82212002012F0A6FCAD
:106A50000220DC490870D74890F8671100F50973E7
:106A60005A1C00F5067012F0E3FC0446012012F0F7
:106A700095FCD448007801280AD105F07EFBFF2060
:106A8000CC4981F869011020CF490870002028E71F
:106A90000CBBCE480078C74981F86A0101F26B123D
:106AA000511ECA48401C04F096FDC24890F86A0185
:106AB000401EC2499539085C3F2806D1BD4890F870
:106AC0006A01401EBB4981F86A010920B94981F871
:106AD0006901002005E7022C94D1FF20B54981F817
:106AE000690105F05EFD072013F026FF5EE1FFE778
:106AF000B04890F8690103284CD105F0ADFDAD48D0
:106B000090F86701B249C870AA4890F82604C01DE1
:106B10000871A84890F8680108B9012000E0002039
:106B2000AB490875481CA349D1F816204261498B2E
:106B30000183A04890F8262400F22741A4481B3086
:106B400016F011FF08F040FF0446B4F5104F16D1BF
:106B50009F48007C401E974981F82604084690F81B
:106B600026249C4900F2274016F0FDFE002014F078
:106B70001AF8FF208F4981F869010020B1E605F07D
:106B800026FD072014F00FF8FF208A4981F86901DB
:106B90000020A6E6874890F869010428A6D0854819
:106BA00090F8690106281FD113F064FD04460CB16A
:106BB000012C06D10721012011F0BEF805F0C7FC19
:106BC00009E0022C02D105F024FD04E0032C02D1DF
:106BD000002005F095FC00207F490872FF207549D0
:106BE00081F8690100207CE6724890F86901072865
:106BF00007D114F058F8FF206E4981F86901002090
:106C00006FE66C4890F8690108281BD16A466B4909
:106C10009A39A1F5A87004F0EFFE04466549487A58
:106C200005F0C8FA634890F86611684605F0F0FA76
:106C300003F02CFD12F0A7F901205E4981F86901EB
:106C400000204EE65B4890F8690109287CD159483C
:106C500090F82F0500287FD1564890F86A1100F26D
:106C60006B1005F05EFB13F018F9044654BB05F0F9
:106C70006EFC4F48807903280DD14D48C079042817
:106C800009D113F0C9FAFF204A4981F869010020AF
:106C900013F0E9F914E046488079052810D14448FA
:106CA000C07903280CD113F059FE044644B905F00D
:106CB0004EFC002013F040FEFF203E4981F86901A0
:106CC00000200EE6012C1DD1FF203A4981F8690110
:106CD00005F09FFC36488079032806D13448C079F6
:106CE000042802D113F0BFF90AE031488079052861
:106CF00006D12F48C079032802D1072013F01CFECB
:106D00000020EEE5022C21D129488079032807D103
:106D10002748C079042803D1032013F0A4F90AE01E
:106D200023488079052806D12148C079032802D15B
:106D3000072013F001FE002005F0E2FBFF201D49B3
:106D400081F869010020CCE52EE005E0FF2019491B
:106D500081F869010020C4E5164890F82F05012844
:106D600024D114F079F813F098F804465CB905F0D2
:106D7000EEFB14F0FCF8FF200E4981F869010020B9
:106D800013F071F90EE0012C06D1FF20094981F8BA
:106D9000690105F03EFC05E0032013F064F90020D2
:106DA00005F0AEFB00209CE501209AE500BF98E5C8
:106DB000D8080020D83C002008000020D83E002041
:106DC000D40500206900002060000020DA2B00209C
:106DD000101E0020251F00200842002070B5054627
:106DE00005F10800F7490861F7480078002878D1D4
:106DF0000846C079897900EB012640F20731701A04
:106E00008E426FD027DC40F20221A6EB01008E42B9
:106E100069D010DCB6F5847F71D005DCA6F20110D4
:106E2000D0B306286AD15FE0A6F20910002875D019
:106E30000328F7D17FE0B0F5817F6DD004DC022814
:106E40006BD00528EED19AE0A0F2031000286FD095
:106E50000128E7D1B4E0B0F5FF7F6AD00FDCB0F5D0
:106E6000FD7F67D004DCFD2870D0FE28DAD1C7E0B2
:106E7000A0F2FB1000286AD00128D3D1E0E040F254
:106E8000FA32811A904278D007DCA0F2FF10002875
:106E900074D00228C6D1F3E017E0A1F5DE41FF3936
:106EA00011B10129BED106E012F009FB04461520FC
:106EB000C5490870FFE0C349C868083112F009FBF2
:106EC00004461520C0490870F5E00020BD498860DF
:106ED0000869083112F073FB04461520BA4908709E
:106EE000E9E0E9E076E033E00020B649886012F09E
:106EF0001BFC1020B4490870DDE000E0D6E0002063
:106F0000B04988600869083112F01AFC044615205F
:106F1000AD490870CFE001E03CE023E0A949C86832
:106F2000083112F0B3FC04461520A7490870C2E0EE
:106F30003AE08FE070E0A3490A69C868083112F0AE
:106F4000A4FD04461520A0490870B4E04EE06DE0B1
:106F50009C49C868083112F01DFE044615209A4964
:106F60000870A8E097490A69C868083112F00CFF58
:106F700004461520944908709DE08DE076E0914923
:106F80000A69C868083112F0AEFF044615208E4920
:106F9000087090E08B49C868083113F076F8044611
:106FA00015208949087086E00020864988600869B4
:106FB000083113F078FA04461520834908707AE006
:106FC0008049C868083113F0A9FE044615207E499F
:106FD000087070E000207B4988600869083114F06F
:106FE000C2F8044615207849087064E07549C868FD
:106FF000083113F0A2FB04461520734908705AE0CB
:107000000020704988600869083113F0B2FB04461B
:1070100015206D4908704EE06A49C868083113F0C0
:10702000B8FB044615206849087044E06549C86803
:10703000083113F0B2FB04461520634908703AE0AA
:107040006049C868083113F010FC044615205E49F9
:10705000087030E000205B4988600869083113F04F
:10706000F3FC044615205849087024E05549C868C7
:10707000083113F031FD04461520534908701AE019
:107080000020504988600869083113F09EFD0446CD
:1070900015204D4908700EE04A49C868083113F0C0
:1070A000A5FD044615204849087004E0152046490E
:1070B0000870042400BF00BF43480078152814D18D
:1070C0001CB941203F49887007E045203D49887040
:1070D00009690C7001203B4988603A48816828465C
:1070E00004F079F9102038490870FFF7DAFB10B97D
:1070F0003C2036490860FFF78BFA334800781628A1
:107100000ED151202F4988700846C078401CC870A5
:1071100008468168284604F05EF910202A49087064
:1071200070BDF8B5054605F1080026490861002044
:1071300088602548007820BB0846C079897900EB33
:1071400001266FF4F040304410B1012813D10BE058
:1071500055200090012269461D4806F0DEFD0024FE
:107160001520194908700BE00024AA200090152072
:107170001549087004E0152013490870042400BF65
:1071800000BF11480078152814D11CB941200D49C1
:10719000887007E045200B49887009690C70012050
:1071A0000849886007488168284604F014F91020CF
:1071B000054908709DF80000AA2801D10120F8BDFA
:1071C0000020FCE7D8080020600000200400002018
:1071D00000E00308F0B591B00446AA4AD2E90131B3
:1071E0001068D268CDE9053107920490A6A3D3E9CF
:1071F0000020D3E9021301AD0BC50092002610F068
:1072000072FD11F0C1FE10F058FD11F0CEFF0746DF
:1072100010F082FF0121A0A011F0E6F80321A1A047
:1072200011F0E2F811F0B0FE0721012010F084FD0A
:107230000121A0A011F0D8F800BF11F0B0FE20B1DC
:107240000721032010F078FDF7E70721012010F057
:1072500073FD01219AA011F0C7F803219CA011F041
:10726000C3F800BF9D49481C12F0B1F80028F9D1BD
:107270000721012010F060FD012199A011F0B4F860
:1072800003219AA011F0B0F800BF002007F068F8C1
:1072900000BF06F0A9FF0028FBD008A90CA807F042
:1072A000F6F820B1032194A011F09EF8EDE7072134
:1072B000012010F041FD012193A011F095F8032168
:1072C00095A011F091F804210CA806F0F6F828B169
:1072D000032193A011F088F800BFFEE70C9D002069
:1072E000099013E00A20B5FBF0F100FB115030309B
:1072F0009DF82410C1F104010AAA50540A20B5FBDC
:10730000F0F59DF82400401CC0B209909DF82400BF
:107310000528E7DB0721012010F00EFD012183A0E5
:1073200011F062F814F0E1F928B1032182A011F004
:107330005BF800BFFEE704F089FE002C26D1052192
:10734000012010F0F9FC01217FA011F04DF803217C
:1073500081A011F049F804F073F828B1052182A04A
:1073600011F042F800BFFEE70A98CDF819009DF829
:107370002C008DF81D000E2104A803F032FF28B167
:10738000032179A011F030F800BFFEE707210120AA
:1073900010F0D2FC11F009FF074610F0BDFE0221EB
:1073A00075A011F021F8042104A811F01DF804F0D3
:1073B0004DFE4FF47A7004F079F89CB911E07248F0
:1073C000FFF7AFFE68B110F078FC02216FA011F05A
:1073D0000BF804F037F81021684603F002FF00F0C4
:1073E00041F8ECE7AA200990012209A96A4806F0B1
:1073F00094FC11B0F0BD08B504466CB1012C0BD162
:107400000721002010F098FC022164A010F0ECFF8E
:10741000042165A010F0E8FF23E0012011F09EFD9B
:107420000546452D09D1FF200090012269465A48A2
:10743000401C06F072FC00F015F816F002FAC0B21B
:1074400000909DF8000020B906215AA010F0CCFF52
:1074500007E09DF80000FF2803D0062159A010F096
:10746000C3FFDAE7BFF34F8F5948006800F4E060CC
:1074700058490843001D56490860BFF34F8F00BFAD
:10748000FEE700006CDB010855502D6D504F532D69
:107490003030303030303030BFAACABCBCECB2E241
:1074A0002E2E2E00C8B7C8CFB1B3B9E2D2D1C1C118
:1074B000C6F00000B0B4BCFCBCECB2E22E2E2E0034
:1074C000B4C5CCF5BFA8BCECB2E22E2E2E00000055
:1074D000C7EBCBA2B4C5CCF5BFA80000423E00204C
:1074E0004943BFA8BCECB2E22E2E2E00B2E5C8EB99
:1074F0004943BFA800000000CAA7B0DC2CD6D8D0F2
:10750000C2B2E5C8EB000000B0B2C8ABD0BEC6AC9A
:10751000BCECB2E22E2E2E00C7EBC9D4B5C80000D9
:10752000BCECB2E2CAA7B0DC00000000B3F5CABCF4
:10753000BBAFCAB1D6D30000C7EBBCECB2E2525429
:1075400043BEA7D5F1000000C0B6D1C0C4A3BFE9B7
:10755000BCECB2E200000000C0B6D1C0B3F5CABCBA
:10756000BBAFD6D02E2E2E00C0B6D1C0B2E2CAD448
:10757000CAA7B0DC00000000CBF9D3D0B2E2CAD475
:10758000CDEAB3C900000000A00D0020D5FDD4DA7B
:10759000B9D8BBFA2E2E2E0000E00308C7EBC1AC11
:1075A000BDD3B5E7C4D40000B0B4C8A1CFFBCDCBE8
:1075B000B3F60000C5E4D6C3B3C9B9A62CC7EBD651
:1075C000D8C6F400C5E4D6C3CAA7B0DC00000000EA
:1075D0000CED00E00000FA0533490143334A116025
:1075E000704770B5002100230F22C47804B32F4CDC
:1075F000246804F4E064C4F5E064210AC1F10403E2
:10760000CA40447804FA03F1847814402143090104
:10761000274C0678A155047804F01F050124AC40DE
:1076200005786D11AD0005F1E025C5F8004109E0D0
:10763000047804F01F050124AC401E4D0678761135
:1076400045F8264070BD1C4A0A400243174B1B1FD9
:107650001A60704739B1154A121D12680243134B64
:107660001B1D1A6006E0114A121D126882430F4B5F
:107670001B1D1A607047042808D14FF0E0210969EA
:1076800041F004014FF0E022116107E04FF0E021EA
:10769000096921F004014FF0E022116170470248AE
:1076A000001D0249086070470000FA050CED00E07B
:1076B00000E400E080E100E080FFFF1F10B5044619
:1076C000FA48844208D10121401501F0A9F90021AE
:1076D000601501F0A5F917E0F548844208D10121B1
:1076E000001501F09DF90021201501F099F90BE03A
:1076F000F048844208D10121C80301F091F900212A
:107700004FF4004001F08CF910BD30B50246002066
:1077100000235068E84C20400D790C6844EA0524A9
:10772000204350609068E54C2040D1E902542C433E
:107730004D7944EA450420439060D06A20F47000FB
:107740000C7C641EE4B2234340EA0350D06230BD97
:1077500000210160017141718160C16001210174EA
:10776000704721B1826842F00102826003E08268C2
:1077700022F001028260704721B1826842F4807277
:10778000826003E0826822F480728260704710B5E4
:107790000023CBB21AB144681C43446002E0446841
:1077A0009C43446010BD816841F0080181607047CE
:1077B000014600208A6802F008020AB1012000E0B8
:1077C00000207047816841F00401816070470146E4
:1077D00000208A6802F004020AB1012000E00020C3
:1077E000704721B1826842F4A002826003E082689F
:1077F00022F4A00282607047014600208A6802F4E9
:1078000080020AB1012000E00020704710B50A464E
:1078100000210023416821F46041531E41EA4331B5
:10782000416010BD21B1426842F40062426003E051
:10783000426822F4006242607047F0B504460D468B
:1078400000200021092D11DDE068A5F10A0606EBF4
:107850004607072606FA07F18843A5F10A0606EB54
:10786000460603FA06F10843E0600CE0206905EBE8
:107870004507072606FA07F1884305EB450603FA94
:1078800006F108432061072A0FDA606B561E06EBEB
:1078900086071F2606FA07F18843561E06EB860662
:1078A00005FA06F10843606322E00D2A0FDA206B27
:1078B000D61F06EB86071F2606FA07F18843D61F58
:1078C00006EB860605FA06F10843206310E0E06A3D
:1078D000A2F10D0606EB86071F2606FA07F188437C
:1078E000A2F10D0606EB860605FA06F10843E062F2
:1078F000F0BD21B1826842F48012826003E08268A8
:1079000022F48012826070470146C86C80B27047D2
:1079100066484C300068704721B1426842F480628A
:10792000426003E0426822F480624260704721B105
:10793000426842F48052426003E0426822F480527E
:10794000426070470A460021816821F4E0411143FA
:107950008160704721B1826842F40042826003E096
:10796000826822F400428260704721B1826842F44A
:107970000212826003E0826822F402128260704781
:10798000014600208A6802F400120AB1012000E0DA
:1079900000207047F0B5044615460020002200265E
:1079A000092911DDE068A1F10A0707EB470C072759
:1079B00007FA0CF29043A1F10A0707EB470703FA15
:1079C00007F21043E0600CE0206901EB410C07274F
:1079D00007FA0CF2904301EB410703FA07F2104358
:1079E0002061A06BC0F30156EF1C06F1010CA7EB60
:1079F0000C0707EB870C1F2707FA0CF29043EF1CCC
:107A000006F1010CA7EB0C0707EB870701FA07F259
:107A10001043A063F0BD10B50A4600210023816B1E
:107A200021F44011531E41EA0351816310BD08B592
:107A3000002300930090009B0B440093009B1A606E
:107A400008BD08B5024600200090009201F1280010
:107A5000009B184400900098006880B208BD0A4658
:107A600000214168164B1940114341607047416243
:107A7000826270470A460021416821F01F011143CC
:107A80004160704740B109490831096841F400017B
:107A9000064A0832116007E004490831096821F4F8
:107AA0000001024A083211607047000000240140C2
:107AB00000280140003C0140FFFEF0FFFDF7F1FF10
:107AC000FFFD3FFF0246002013680B400BB1012071
:107AD00000E000207047CA430260704770B502465C
:107AE0000020002300240B125568CEB205EA0604DC
:107AF00015681D4015B10CB1012000E0002070BDDB
:107B000000220A12D34303607047000010B5012021
:107B100000F0A0FF002000F09DFF10BD2A49086082
:107B200070472949091F0860704727498431086058
:107B3000704701460020254A10884FF67F421040CA
:107B40000843224A10807047014600201F4A1088CF
:107B50004FF68072104008431C4A1080704708B5E9
:107B600000220092194A2C3A0092009A0244009294
:107B7000009A116008BD08B5014600200090134826
:107B80002C3800900098084400900098008808BDA8
:107B90000D489C300068C0B270470C48083000881F
:107BA00040F0010009490831088070470648A030BC
:107BB0000068C0B2704705480830008840F00200F5
:107BC000024908310880704704860D422C6C004041
:107BD000002044490860091D0860091D0860091D4E
:107BE000086041483F4914310860704700213D4911
:107BF0008279002A3AD00A46126803689A430B46F3
:107C00001A600A1D126803689A430B1D1A600279F4
:107C100011440A6803681A430A60324A083212683B
:107C200003689A432F4B08331A601A1D12680368C1
:107C30009A432C4B0C331A604279102A0ED11A1F2A
:107C4000126803681A43274B08331A601A1D12681A
:107C500003681A43234B0C331A600DE02149427923
:107C600011440A6803681A430A6005E00279114466
:107C70000A6803689A430A60704700210160017135
:107C80000C2141710021817170471649103109683A
:107C90000143144A10321160704701460020114A16
:107CA000143212680A400AB1012000E00020704737
:107CB0000C49143108607047014600200022094B2E
:107CC0001B6803EA0102074B14331B680B4013B116
:107CD0000AB1012000E00020704702491431086019
:107CE0007047000000040140FFFF0F000146002024
:107CF000FE4A106800F03800084310607047FB49E6
:107D0000096821F00801F94A116011460968014328
:107D100011607047F549096821F01001F34A1160BC
:107D200011460968014311607047F148EF49486006
:107D3000F04848607047EE48EC494860ED484860BC
:107D40007047EA48006940F08000E84908617047E0
:107D5000E648006940F08000E4490861704704206B
:107D6000E249C96801F0010109B101200EE0DF49D3
:107D7000C96801F0040109B1022007E0DB49C968C4
:107D800001F0100109B1032000E00420704700B5A4
:107D900002460423FFF7E3FF034603E0FFF7DFFF9C
:107DA0000346521E012B01D1002AF7D102B9052347
:107DB000184600BD30B5044604254FF43020FFF7C7
:107DC000E6FF0546042D17D1C848006940F00200BF
:107DD000C649086108464461006940F040000861F6
:107DE0004FF43020FFF7D3FF0546C048006941F645
:107DF000FD710840BD490861284630BD10B5042416
:107E00004FF43020FFF7C3FF0446042C16D1B748C7
:107E1000006940F00400B54908610846006940F077
:107E2000400008614FF43020FFF7B1FF0446AF482F
:107E3000006941F6FB710840AC490861204610BD5D
:107E400000B502460423FFF78AFF034603E0FFF76D
:107E500086FF0346521E012B01D1002AF7D102B939
:107E60000523184600BD10B504244FF43020FFF759
:107E7000E7FF0446042C16D19C48006940F004003A
:107E80009A4908610846006940F0400008614FF4D3
:107E90003020FFF7D5FF04469448006941F6FB7196
:107EA000084092490861204610BD00208F49C969E9
:107EB00001F0020109B1012000E00020704730B557
:107EC000A5250424FFF7F1FF00B100254FF4302071
:107ED000FFF75DFF0446042C3AD18548834988604A
:107EE000844888600846006940F020000861084620
:107EF000006940F0400008614FF43020FFF747FF71
:107F00000446042C1BD17948006941F6DF71084012
:107F1000764908610846006940F01000086176481B
:107F20000580E002FFF733FF0446052C10D06F48B0
:107F3000006941F6EF7108406C49086108E0052CC2
:107F400006D06A48006941F6EF7108406749086148
:107F5000204630BD78B506460C460425002000902A
:107F6000E802FFF714FF0546042D24D15F4800699D
:107F700040F001005D4908613480E802FFF707FF27
:107F80000546042D10D1B01C0090200C00990880EB
:107F9000E802FFF7FCFE05465448006941F6FE7111
:107FA00008405249086106E05048006941F6FE71F8
:107FB00008404E490861284678BD70B504460D4614
:107FC0000426F002FFF7E3FE0646042E11D14748CF
:107FD000006940F00100454908612580F002FFF783
:107FE000D6FE06464148006941F6FE7108403F4909
:107FF0000861304670BD70B505460E460424E002A7
:10800000FFF7C5FE0446042C17D13948374988606C
:10801000384888600846006940F0100008612E80EA
:10802000E002FFF7B4FE0446052C06D02F48006995
:1080300041F6EF7108402D490861204670BD2DE9D9
:10804000F04304464FF6FF763746B046B146042566
:10805000E443E6B2C4F30727C4F307484FEA1469C0
:10806000E802FFF794FE0546042D49D120481F4938
:108070008860204888600846006940F01000086168
:10808000FF2E06D01C4808300680E802FFF77FFE6E
:108090000546042D08D1FF2F06D017480A30078067
:1080A000E802FFF774FE0546042D0AD1B8F1FF0F70
:1080B00007D011480C30A0F80080E802FFF767FEF7
:1080C0000546042D0AD1B9F1FF0F07D00A480E303A
:1080D000A0F80090E802FFF75AFE0546052D0FD0E4
:1080E0000248006941F6EF71084007E000200240B5
:1080F00023016745AB89EFCD00F8FF1F6649086192
:108100002846BDE8F08330B5054604244FF43020FE
:10811000FFF73DFE0446042C41D160485E4988606B
:108120005F4888600846006940F020000861084602
:10813000006940F0400008614FF43020FFF727FE4F
:108140000446042C22D15448006941F6DF710840EE
:10815000514908610846006940F0100008611DB1EE
:1081600000205049088002E0A5204E4908804FF4C5
:108170003020FFF70CFE0446052C10D0464800695D
:1081800041F6EF7108404449086108E0052C06D02B
:108190004148006941F6DF7108403F4908612046C7
:1081A00030BDF0B505460E46174604243B483A4913
:1081B00088603B488860E002FFF7E9FD0446042C34
:1081C00019D13548006940F010003349086147F083
:1081D000F800304328433349891C0880E002FFF748
:1081E000D6FD0446052C06D02B48006941F6EF71F8
:1081F0000840294908612046F0BD2748C069800829
:1082000070472548006A704700202349096801F03B
:10821000200109B1012000E00020704729B11E4A69
:10822000126902431C4B1A6104E01B4A1269824323
:10823000194B1A61704701460020012908D1164ADE
:10824000D26902F001020AB1012008E0002006E034
:10825000114AD2680A400AB1012000E000207047AC
:108260000D49C860704704200B49C96801F001013D
:1082700009B101200EE00849C96801F0040109B103
:10828000022007E00449C96801F0100109B1032088
:1082900000E00420704700000020024023016745F1
:1082A000AB89EFCD00F8FF1F10B50446CC488442DF
:1082B00008D10121042000F0B3FB0021042000F0CC
:1082C000AFFB46E0C748844208D10121082000F0F6
:1082D000A7FB0021082000F0A3FB3AE0C24884423B
:1082E00008D10121102000F09BFB0021102000F09C
:1082F00097FB2EE0BD48844208D10121202000F0E8
:108300008FFB0021202000F08BFB22E0B848844244
:1083100008D10121402000F083FB0021402000F023
:108320007FFB16E0B348844208D10121802000F091
:1083300077FB0021802000F073FB0AE0AE48844206
:1083400007D10121801500F06BFB0021A01500F082
:1083500067FB10BD10B50121084600F061FB00214C
:10836000012000F05DFB10BD2DE9F0410246002523
:108370000026002000230024002791F803C00CF001
:108380000F0591F803C00CF0100CBCF1000F03D0E6
:1083900091F802C04CEA050591F800C0BCF1000F4D
:1083A00031D0146800202BE04FF0010C0CFA00F3E0
:1083B000B1F800C00CEA03069E4220D183004FF0C2
:1083C0000F0C0CFA03F7BC4305FA03FC4CEA040457
:1083D00091F803C0BCF1280F06D14FF0010C0CFA44
:1083E00000FCC2F814C00AE091F803C0BCF1480FC9
:1083F00005D14FF0010C0CFA00FCC2F810C0401C73
:108400000828D1D31460B1F800C0BCF1FF0F34DDEF
:10841000546800202EE000F1080C4FF0010808FA23
:108420000CF3B1F800C00CEA03069E4221D1830090
:108430004FF00F0C0CFA03F7BC4305FA03FC4CEAAF
:10844000040491F803C0BCF1280F05D100F1080C19
:1084500008FA0CF8C2F8148091F803C0BCF1480F78
:1084600007D100F1080C4FF0010808FA0CF8C2F827
:108470001080401C0828CED35460BDE8F0814FF630
:10848000FF710180022181700421C1707047024692
:10849000002093680B400BB1012000E000207047E2
:1084A0000146886880B2704702460020D3680B40BE
:1084B0000BB1012000E0002070470146C86880B27F
:1084C000704701617047416170470AB1016100E086
:1084D00041617047C16070474FF480320A43826146
:1084E0008161826182698269704702460020434B44
:1084F00018684FF68073184040EA021008433F4B5B
:10850000186070473E49C8617047F0B50A460023BD
:1085100000240021002500F00046B6F1004F02D1F2
:10852000364EF16901E0354E7168C0F3034583B200
:1085300000F44016B6F5401F08D121F070612F4EAF
:10854000766826F070662D4F7E6012E000F480168B
:10855000B6F5801F06D1032606FA05F4A14341F0C3
:10856000706106E0460D360103FA06F6B14341F0AC
:10857000706122B1460D360103FA06F6314300F070
:108580000046B6F1004F02D11C4EF16101E01B4ED6
:108590007160F0BD30B500228B071C0F0F2303FA6A
:1085A00004F2164B08338C1053F824309343134CC9
:1085B00008348D1044F8253023468C1053F82430AD
:1085C0008C07240F00FA04F423430C4C08348D105C
:1085D00044F8253030BD0A49DC310860704700009E
:1085E00000080140000C014000100140001401404F
:1085F00000180140001C0140002001400000014023
:10860000000020420E49086070470D4948607047DD
:108610000B49886070474AF6AA20094908607047EC
:108620004CF6CC4006490860704701460020044AD9
:10863000D2680A400AB1012000E000207047000023
:108640000030004010B50121080700F0F6F90021C4
:108650004FF0805000F0F1F910BD2A4908627047D0
:1086600028490861704701460020274A106820F019
:10867000E0000843106070472249A031086070474D
:1086800010B502460020204B186820F0030010436C
:1086900018601E4B1B6843F004031C4C2360012927
:1086A00001D130BF00E020BF184B1B6823F004034A
:1086B000164C236010BD1448006840F004001249B5
:1086C00008600846006840F0020008600F48006833
:1086D00040F004000D49086000BF00BF30BF704784
:1086E00001460020084A52680A400AB1012000E011
:1086F000002070470449096841EA8001024A11607C
:108700007047000000000E420070004010ED00E0D5
:10871000DF48006840F00100DD4908600846406815
:10872000DC490840DA49486008460068DA490840F0
:10873000D74908600846006820F480200860084691
:10874000406820F4FE0048604FF41F0088607047C6
:10875000CF49096821F48031CD4A1160114609687A
:1087600021F480211160B0F5803F03D0B0F5802F57
:108770000ED106E0C649096841F48031C44A11604F
:1087800007E0C349096841F4A021C14A116000E033
:1087900000BF00BF704710B5014600220023002033
:1087A0004A11012A02D1BA4C236806E0022A02D1FA
:1087B000B74C236A01E0B64C636A01F01F02012442
:1087C00094401C400CB1012000E0002010BD38B5E1
:1087D000002000900024002500BF3120FFF7DBFFC0
:1087E00005460098401C00900098B0F5A06F01D09D
:1087F000002DF2D03120FFF7CEFF08B1012400E0B8
:108800000024204638BD01460020A14A106820F00F
:10881000F80040EAC10010607047A0490860704746
:10882000024600209A4B586820F47C1042EA01036B
:108830001843974B5860704798490866704701463F
:108840000020934A506820F00300084350607047AE
:108850008F48406800F00C007047014600208C4AA9
:10886000506820F0F0000843506070470146002037
:10887000874A506820F4E060084350607047014622
:108880000020834A506820F4605040EAC1005060E4
:10889000704729B17E4A527A02437D4B5A7204E0F6
:1088A0007B4A527A82437A4B5A7270477B49D8315D
:1088B0000860704701460020754A506820F4404027
:1088C0000843506070470021714A20321170704A8D
:1088D00082F82010012802D004280AD104E00121E6
:1088E0006B4A2032117005E00521694A203211706F
:1088F00000E000BF00BF70476949086070476449E5
:10890000096A0143624A1162704765494439086047
:10891000704730B500210022002400235C4D6D68B3
:1089200005F00C0121B1042905D0082923D105E067
:108930005C4D056022E05B4D05601FE0544D6D68A5
:1089400005F47012524D6D6805F48034022505EB74
:1089500092421CB9544D554305600BE04C4D6D6877
:1089600005F400351DB1504D5543056002E04D4DF5
:108970005543056002E04B4D056000BF00BF444D0C
:108980006D6805F0F0010909484D6B5C0568DD4034
:1089900045603F4D6D6805F4E061090A434D6B5C2D
:1089A0004568DD4085603A4D6D6805F46051C90A3F
:1089B0003E4D6B5C4568DD40C560354D6D6805F426
:1089C0004041890B3A4D6B5CC568B5FBF3F5056119
:1089D00030BD29B12E4A526902432D4B5A6104E041
:1089E0002B4A526982432A4B5A61704729B1284A5F
:1089F00092690243264B9A6104E0254A92698243B8
:108A0000234B9A61704729B1214AD2690243204B16
:108A1000DA6104E01E4AD26982431D4BDA61704775
:108A200029B11B4AD2680243194BDA6004E0184AA4
:108A3000D2688243164BDA60704729B1144A126932
:108A40000243134B1A6104E0114A12698243104B2E
:108A50001A61704712494039086070470F49C8646D
:108A600070470B49C87170470948406A40F08070F0
:108A700007494862704701460020054A92680A404B
:108A80000AB1012000E00020704701498872704758
:108A9000001002400000FFF8FFFFF6FE0000424217
:108AA0008004424200127A0000093D0028000020A4
:108AB0003800002029B1574A12880243554B1A80CA
:108AC00004E0544A12888243524B1A80704751483E
:108AD000001D008840F010004E49091D08807047B5
:108AE0004C48001D00884FF6EF7108404949091DA8
:108AF00008807047002147481C300188001F00880B
:108B000041EA0040704700B50246FFF7E0FF100C55
:108B1000404918310880091D0A80FFF7E1FF00BDB8
:108B200000B50246FFF7D3FFC2F3034039490831CD
:108B30000880091D0A80FFF7D3FF00BD00B502467B
:108B4000FFF7C5FF100C334920310880091D0A804A
:108B5000FFF7C6FF00BD00202E4910310988090724
:108B6000080B2C491431098808437047002004E0A1
:108B7000401CB0F5801F00D970472649091D09889F
:108B800001F020010029F3D000BFF5E700202149C2
:108B9000091D09884FF6F77211401E4A121D1180F7
:108BA00004E0401CB0F5801F00D970471949091D29
:108BB000098801F008010029F3D000BFF5E701465C
:108BC0000020144A121D12880A400AB1012000E058
:108BD000002070470F49091D098881430D4A121D65
:108BE00011807047014600200A4A121D12880A406F
:108BF000D0B2084A12880A4012B108B1012000E040
:108C0000002070470349091D09888143014A121D4C
:108C1000118070470028004010B50446BE488442C9
:108C200008D101218014FFF7FBFE0021A014FFF7FB
:108C3000F7FE16E0B948844208D101210014FFF77D
:108C4000FCFE00212014FFF7F8FE0AE0B44884423D
:108C500007D10121C013FFF7F0FE0021E013FFF759
:108C6000ECFE10BD10B50022028802F441520B88C0
:108C70004C8823438C882343CC8823430C8923438B
:108C80004C8923438C892343CC8923431A43028094
:108C9000838B4FF2FF74234083830B8A038210BDC2
:108CA0002DE9F04F85B005460C464FF0000902272C
:108CB0004FF000084FF0010B0026B246A88B4FF290
:108CC00040010840A88302202884B5F81C90A068C1
:108CD000022801D100BF38E0A08810B94FF0010B85
:108CE00001E04FF0020B8D48854200D100E000BF4B
:108CF0006846FFF70EFEDDF800A0E088B0F5007FC3
:108D00000AD14FEA1A2000EB80004000A168B0FBB6
:108D1000F1F0401D86B20BE04FEA4B10BAFBF0F0C9
:108D200000EB80004000A168B0FBF1F0401D86B26E
:108D30000A20B6FBF0F606F00108A6EB0800C0F327
:108D40004F074FF6FF7000EA0828022F01DBFF2FC4
:108D500002DD02274FF00008E08840EA08003843AF
:108D60002884A088A1890843618808432188084392
:108D700040F4006040EA0909A5F81C9005B0BDE880
:108D8000F08F0021018041808180C180018141817B
:108D90008181C181072101827047002101804180CA
:108DA0008180C1800221816000218181704721B1D1
:108DB000028842F04002028004E002884FF6BF734E
:108DC0001A400280704721B1828B42F48062828314
:108DD00004E0828B4FF6FF331A408283704730B530
:108DE000002400230C110125A540ABB21AB18588DF
:108DF0001D43858002E085889D43858030BD1AB182
:108E000083880B43838002E083888B438380704791
:108E1000818170470146888970474FF6FF62914211
:108E200004D0028842F48072028004E002884FF687
:108E3000FF631A400280704721B1828842F0040229
:108E4000828004E082884FF6FB731A40828070476C
:108E500002884FF2FF731A40028002880A430280A0
:108E60007047018841F480510180704721B1028828
:108E700042F40052028004E002884DF6FF731A406B
:108E80000280704702460020012901D0108B00E0CB
:108E9000908A70470146088A7047B1F5804F04D127
:108EA000028842F48042028004E002884BF6FF739D
:108EB0001A40028070470246002013890B400BB114
:108EC000012000E000207047CA4302817047F0B5DE
:108ED0000246002000240023002501F00F07012690
:108EE000BE40B4B20B1101269E40B3B2968806EA8A
:108EF00003051689264016B10DB1012000E00020BF
:108F0000F0BD10B5002201F00F040123A3409AB276
:108F1000D343038110BD0000003001400038004001
:108F2000003C004010B50446FE48844208D10121AF
:108F3000C014FFF775FD0021E014FFF771FDC4E0D8
:108F4000B4F1804F08D101210846FFF776FD0021DA
:108F50000120FFF772FDB8E0F348844208D10121F7
:108F60000220FFF76AFD00210220FFF766FDACE05A
:108F7000EE48844208D101210420FFF75EFD002164
:108F80000420FFF75AFDA0E0E948844208D10121FE
:108F90000820FFF752FD00210820FFF74EFD94E066
:108FA000E448844208D101211020FFF746FD00214A
:108FB0001020FFF742FD88E0DF48844208D10121FC
:108FC0002020FFF73AFD00212020FFF736FD7CE04E
:108FD000DA48844208D101214014FFF721FD002125
:108FE0006014FFF71DFD70E0D548844209D10121CE
:108FF000C804FFF715FD00214FF40020FFF710FD16
:1090000063E0D048844209D101210805FFF708FD3B
:1090100000214FF48010FFF703FD56E0CA48844258
:1090200009D101214805FFF7FBFC00214FF4001096
:10903000FFF7F6FC49E0C548844208D101214020F1
:10904000FFF7FBFC00214020FFF7F7FC3DE0C048A4
:10905000844208D101218020FFF7EFFC002180200D
:10906000FFF7EBFC31E0BB48844208D101218015B9
:10907000FFF7E3FC0021A015FFF7DFFC25E0B64871
:10908000844209D101210804FFF7CAFC00214FF4F2
:109090008030FFF7C5FC18E0B048844209D10121B7
:1090A0004804FFF7BDFC00214FF40030FFF7B8FC87
:1090B0000BE0AB48844208D101218804FFF7B0FCE3
:1090C00000214FF48020FFF7ABFC10BD0022028886
:1090D000944B98420ED0994B98420BD0B0F1804FF0
:1090E00008D0914B984205D0904B984202D0904BBB
:1090F000984204D14FF68F731A404B881A438D4B18
:10910000984207D08C4B984204D04FF6FF431A4048
:10911000CB881A4302808B8883850B880385814B1B
:1091200098420BD0854B984208D08B4B984205D083
:109130008A4B984202D08A4B984201D10B7A03861F
:1091400001238382704770B5002400220023058C20
:109150004FF6FE7635400584028C8388048B4FF6EB
:109160008F752C40B51E2C400D882C43751E2A404F
:109170000D892A434D882A436A4DA8420BD06F4D72
:10918000A84208D0744DA84205D0744DA84202D020
:10919000734DA84213D14FF6F7752A404D892A43E3
:1091A0004FF6FB752A408D882A434FF6FF652B400A
:1091B0004FF6FF552B408D892B43CD892B43838060
:1091C0000483CD888586028470BD70B5002400229A
:1091D0000023058C4FF6EF7635400584028C83889A
:1091E000048B48F6FF752C404FF6FF452C400D8848
:1091F0004FF6FF7606EA05252C434FF6DF752A4029
:109200000D8906EA05152A434D8806EA05152A4305
:10921000444DA84202D0494DA8421DD14FF67F755A
:109220002A404D894FF6FF7606EA05152A434FF688
:10923000BF752A408D8806EA05152A434FF6FF358B
:109240002B404FF2FF752B408D8906EA85052B4395
:10925000CD8906EA85052B4383800483CD88058765
:10926000028470BD70B5002400220023058C4FF6E7
:10927000FF6635400584028C8388848B4FF68F759A
:109280002C404FF6FC752C400D882C434FF6FF55B3
:109290002A400D894FF6FF7606EA05252A434D88B8
:1092A00006EA05252A431F4DA84202D0234DA842B5
:1092B0001DD14FF2FF752A404D894FF6FF7606EA21
:1092C00005252A434FF6FF352A408D8806EA0525F5
:1092D0002A434EF6FF752B404DF6FF752B408D89C6
:1092E00006EA05152B43CD8906EA05152B43838035
:1092F0008483CD888587028470BD70B500220023E9
:109300000024058C4EF6FF7635400584038C848856
:10931000828B48F6FF752A404FF6FF452A400D889C
:1093200020E00000002C0140000400400008004044
:10933000000C0040001000400014004000340140C8
:10934000004C014000500140005401400018004012
:10935000001C00400020004000400140004401404B
:10936000004801404FF6FF7606EA05252A434DF6F0
:10937000FF752B400D8906EA05352B434D8806EA1B
:1093800005352B43FA4DA84202D0FA4DA84208D128
:109390004BF6FF752C408D894FF6FF7606EA851552
:1093A0002C4384808283CD88A0F84050038470BD14
:1093B000828B4FF2FF331A408283828B4FF6FF730A
:1093C00003EA01231A4382837047F0B50C46154621
:1093D000002200210026078C4EF6FF7C07EA0C07CE
:1093E0000784828B018C4FF6FF7707EA043640F63C
:1093F000FF473A404FF6FF7707EA05273A434FF613
:10940000FF7707EA03373A43D94FB8420ED0D94F16
:10941000B8420BD0B0F1804F08D0D74FB84205D03A
:10942000D64FB84202D0D64FB84206D14DF6FF779C
:10943000394046F48057394305E047F6FF57394035
:1094400044F48057394382830184F0BD828B4FF608
:10945000F3731A408283828B0A4382837047F0B58C
:109460000C461546002200210026078C4FF6FF6CA3
:1094700007EA0C070784828B018C4FF6FF7707EA17
:1094800004264FF60C773A404FF6FF7707EA0317AA
:109490002F433A43B64FB8420ED0B64FB8420BD026
:1094A000B0F1804F08D0B44FB84205D0B34FB842A6
:1094B00002D0B34FB84206D14FF6FF57394046F4B9
:1094C0008077394305E04FF2FF57394044F4807705
:1094D000394382830184F0BD028B4FF2FF331A407F
:1094E0000283028B4FF6FF7303EA01231A430283C0
:1094F0007047F0B50C461546002200210026078C67
:109500004FF6EF7C07EA0C070784028B018C4FF6BD
:10951000FF7707EA041640F6FF473A404FF6FF7719
:1095200007EA03373A434FF6FF7707EA05273A433E
:109530008F4FB8420ED08F4FB8420BD0B0F1804F52
:1095400008D08D4FB84205D08C4FB84202D08C4F16
:10955000B84206D14FF6DF77394046F0100739435D
:1095600005E04FF65F77394044F010073943028336
:109570000184F0BD028B4FF6F3731A400283028B15
:109580000A4302837047F0B50C46154600220021BD
:10959000068C4FF6FE773E400684028B018C4FF618
:1095A0000C7632407E1C06EA03162E433243704E80
:1095B000B0420ED06F4EB0420BD0B0F1804F08D009
:1095C0006D4EB04205D06D4EB04202D06C4EB042EE
:1095D00006D14FF6FD76314044F00106314305E0F7
:1095E0004FF6F576314044F00106314302830184A1
:1095F000F0BD70B505460C465D4885420ED05D480D
:1096000085420BD0B5F1804F08D05B48854205D02C
:109610005A48854202D05A48854200D100E000BF36
:10962000208850B92389A28861882846FFF7ABFFBC
:10963000E1882846FFF79EFF25E0208804280AD10C
:109640002389A28861882846FFF753FFE1882846CE
:10965000FFF742FF17E0208808280AD12389A28853
:1096600061882846FFF7FBFEE1882846FFF7EEFEFB
:1096700009E02389A28861882846FFF7A6FEE188D1
:109680002846FFF795FE70BD2DE9F04105460C46D2
:1096900000260127608808B9022600E00026A0887D
:1096A000012801D1022700E001272088A0B92389E1
:1096B000A28861882846FFF766FFE1882846FFF701
:1096C00059FF23893A4631462846FFF712FFE188C1
:1096D0002846FFF701FF13E02389A2886188284606
:1096E000FFF707FFE1882846FFF7F6FE23893A4691
:1096F00031462846FFF747FFE1882846FFF73AFF43
:10970000BDE8F0810A884B881A438B881A43CB88BE
:109710001A430B891A434B891A438B891A43A0F8C1
:10972000442070474FF6FF71818000210180C18085
:109730004180017270470021018041808180C18099
:10974000018141818181C181704700210180418077
:10975000012181800021C1800181704700210180A9
:1097600041808180C18001814181818170470000F9
:10977000002C01400034014000040040000800407B
:10978000000C004021B1028842F00102028004E096
:1097900002884FF6FE731A400280704731B1B0F86C
:1097A000442042F40042A0F8442005E0B0F84420F0
:1097B000C2F30E02A0F8442070471AB183890B430C
:1097C000838102E083898B43838170478182704764
:1097D00041EA0203A0F8483070471AB183890B436D
:1097E000838102E083898B438381704701894FF62F
:1097F000F8721140018170470A46002101894FF635
:109800008F73194011430181704730B504460D46EE
:1098100029462046FFF7F0FF208940F0070020810D
:1098200030BD2DE9F04104460D4616461F46602D19
:1098300006D13B46012231462046FFF75AFE05E09D
:109840003B46012231462046FFF79DFE2946204631
:10985000FFF7D2FF208940F007002081BDE8F081AA
:1098600030B50C4600210189C9B24FF6FF7505EAF3
:109870000325154325432943018130BD2DE9F041DE
:1098800005460E4617469846002443463A4631465A
:109890002846FFF7E5FF2C894FF6F870044044F0A6
:1098A00007044FF68F70044044F070042C81BDE82B
:1098B000F081F0B504460D4616461F463B4632463B
:1098C00029462046FFF7CCFF208940F480402081C4
:1098D000F0BD0185828270470A46002101884FF65B
:1098E0008F731940114301807047F0B50C4615463F
:1098F0001E460021002200230189028B038C4FF6B3
:10990000F877394021434FF6FC473A4040F20117BF
:109910003A434FF6DD773B404FF6FF7707EA0617ED
:109920002F433B43018102830384F0BD0A4600219B
:10993000018B4FF68F7319401143018370470A461C
:109940000021018B48F6FF7319404FF6FF7303EABD
:1099500002231943018370470A460021818B4FF689
:109960008F7319401143818370470A460021818B10
:1099700048F6FF7319404FF6FF7303EA02231943B9
:109980008183704721B1028842F08002028004E0A6
:1099900002884FF67F731A400280704721B1828897
:1099A00042F00402828004E082884FF6FB731A4082
:1099B0008280704721B1828842F00802828004E0F0
:1099C00082884FF6F7731A408280704721B18288EF
:1099D00042F00102828004E082884FF6FE731A4052
:1099E000828070470A460021018B4FF6F7731940B9
:1099F0001143018370470A460021018B4FF2FF7328
:109A000019404FF6FF7303EA02231943018370479D
:109A10000A460021818B4FF6F77319401143818369
:109A200070470A460021818B4FF2FF7319404FF6B1
:109A3000FF7303EA02231943818370470A4600211A
:109A4000018B4FF6FB7319401143018370470A469F
:109A50000021018B4FF6FF3319404FF6FF7303EAE5
:109A600002231943018370470A460021818B4FF678
:109A7000FB7319401143818370470A460021818B93
:109A80004FF6FF3319404FF6FF7303EA02231943E1
:109A9000818370470A460021018B4FF67F7319407E
:109AA0001143018370470A460021018BC1F30E0167
:109AB0004FF6FF7303EA02231943018370470A46F6
:109AC0000021818B4FF67F731940114381837047CA
:109AD0000A460021818BC1F30E014FF6FF7303EAA2
:109AE00002231943818370470A460021018C4FF6F7
:109AF000FD7319401143018470470A460021018C0F
:109B00004FF6F77319401143018470470A4600214C
:109B1000018C4FF6DF7319404FF6FF7303EA02130F
:109B20001943018470470A460021018C4FF67F7368
:109B300019404FF6FF7303EA02131943018470477B
:109B40000A460021018C4FF6FF5319404FF6FF7370
:109B500003EA02231943018470470A460021018C5D
:109B60004FF2FF7319404FF6FF7303EA02231943C4
:109B7000018470470A460021018C4DF6FF7319409D
:109B80004FF6FF7303EA023319430184704730B57F
:109B9000002301248C40A3B2048C9C430484048CD5
:109BA00002FA01F5ADB22C43048430BD30B5002378
:109BB00004248C40A3B2048C9C430484048C02FAD9
:109BC00001F5ADB22C43048430BD70B503460020CE
:109BD00000241846183001258D40ACB21D8CA543D9
:109BE0001D8409B1082909D100EB6100056825F041
:109BF000700505600568154305600EE00D1FC5F38F
:109C00004E052844056825F4E045056005684FF6D3
:109C1000FF7606EA02263543056070BD21B1028851
:109C200042F00202028004E002884FF6FD731A40FF
:109C30000280704721B1028842F00402028004E0F1
:109C400002884FF6FB731A400280704721B1828868
:109C500042F08002828004E082884FF67F731A40CF
:109C60008280704702884FF6F7731A40028002889C
:109C70000A430280704782884FF68F731A408280B1
:109C800082880A438280704702894FF6F8731A402F
:109C9000028102890A430281704702894FF67F736D
:109CA0001A40028102890A43028170478184704709
:109CB000818570478186704701877047818770472B
:109CC000A0F84010704702884FF6FF431A40028008
:109CD00002880A43028070470146888E7047014619
:109CE000088F70470146888F70470146B1F84000E1
:109CF00070470146888C70470146088D70470246C0
:109D00000020138A0B400BB1012000E000207047B7
:109D1000CA430282704730B5024600200023002467
:109D2000158A05EA0103958905EA010413B10CB10E
:109D3000012000E0002030BDCA43028270470000CD
:109D400010B50446FB48844209D101218803FEF77F
:109D500067FE00214FF48040FEF762FE32E0F648D5
:109D6000844209D101214804FEF767FE00214FF427
:109D70000030FEF762FE25E0F048844209D101215F
:109D80008804FEF75AFE00214FF48020FEF755FEAE
:109D900018E0EB48844209D10121C804FEF74DFECA
:109DA00000214FF40020FEF748FE0BE0E548844216
:109DB00008D101210805FEF740FE00214FF4801074
:109DC000FEF73BFE10BD2DE9F04786B005460E4676
:109DD0000024A24600BFA1460027B08900B100BF01
:109DE0002F462C8A4CF6FF700440F08804432C82E6
:109DF000AC894EF6F3100440B0883189084371896C
:109E000008430443AC81AC8A4FF6FF400440B0895C
:109E10000443AC8201A8FEF77CFDC648874202D10C
:109E2000DDF810A001E0DDF80CA0A88900F40040E6
:109E300040B10AEBCA0000EB0A1031684900B0FBE0
:109E4000F1F807E00AEBCA0000EB0A10316889005C
:109E5000B0FBF1F86420B8FBF0F0040120096421A4
:109E600001FB1089A88900F4004040B1322000EBCA
:109E7000C900B0FBF1F000F00700044308E0322015
:109E800000EB09106421B0FBF1F000F00F00044377
:109E90002C8106B0BDE8F0874FF416510160002117
:109EA0008180C18001810C21418100218181704725
:109EB00010B502460020108A4FF2FF0318400B88AD
:109EC0004C8823438C882343CC8823431843108237
:109ED00010BD0021018041808180C180704721B187
:109EE000828942F40052828104E082894DF6FF7338
:109EF0001A4082817047F0B50346002400260025F1
:109F0000002040F66A17B94200D100BF1846C1F3DD
:109F1000421401F01F06012707FA06F5012C01D1B2
:109F20000C3004E0022C01D1103000E014301AB1E2
:109F300007682F43076002E00768AF430760F0BD82
:109F40001AB1838A0B43838202E0838A8B43838224
:109F50007047028A4FF6F0731A400282028A0A435F
:109F60000282704782894FF2FF731A408281828990
:109F70000A438281704721B1828942F002028281C4
:109F800004E082894FF6FD731A4082817047028A8D
:109F90004FF6DF731A400282028A0A430282704738
:109FA00021B1028A42F48042028204E0028A4BF626
:109FB000FF731A4002827047C1F308028280704723
:109FC00001468888C0F308007047818941F001018B
:109FD00081817047028BD2B20283028B42EA012256
:109FE00002837047028B02F47F420283028B0A4392
:109FF0000283704721B1828A42F02002828204E00B
:10A00000828A4FF6DF731A408282704721B1828ABA
:10A0100042F01002828204E0828A4FF6EF731A4007
:10A020008282704721B1828A42F00802828204E073
:10A03000828A4FF6F7731A408282704721B1828973
:10A0400042F40042828103E08289C2F30E028281DF
:10A05000704721B1828A42F40062828204E0828ADF
:10A060004FF2FF731A4082827047828A4FF6FB7369
:10A070001A408282828A0A438282704721B1828A90
:10A0800042F00202828204E0828A4FF6FD731A4097
:10A090008282704702460020B1F5007F00D100BFE8
:10A0A00013880B400BB1012000E00020704701F441
:10A0B0000072B2F5007F00D100BFCA430280704732
:10A0C00070B50246002400230025002040F66A16E1
:10A0D000B14200D100BFC1F3421501F01F030126B8
:10A0E00006FA03F3012D02D19689334006E0022DD2
:10A0F00002D1168A334001E0968A33400C120126C1
:10A1000006FA04F41688344013B10CB1012000E0C3
:10A11000002070BD10B50022002340F66A14A14251
:10A1200000D100BF0A1201249440A3B2DC43048092
:10A1300010BD0000003801400044004000480040CD
:10A14000004C0040005000400CB5002001900090F1
:10A150006D48006840F480306B49086000BF6A4871
:10A16000006800F4003000900198401C01900098B5
:10A1700018B90198B0F5A06FF1D16348006800F4F8
:10A18000003010B10120009001E000200090009804
:10A19000012843D15D48006840F010005B49086029
:10A1A0000846006820F0030008600846006840F098
:10A1B00002000860544840685349486008464068B7
:10A1C00048600846406840F480604860084640683F
:10A1D00020F47C1048600846406840F4E81048606D
:10A1E0000846006840F08070086000BF464800687C
:10A1F00000F000700028F9D04348406820F00300C8
:10A20000414948600846406840F00200486000BF8D
:10A210003D48406800F00C000828F9D10CBD10B58D
:10A22000FFF792FF10BD10B5FDF77FFD36480068BF
:10A2300040F001003449086008464068344908404D
:10A240003149486008460068324908402E49086094
:10A250000846006820F4802008600846406820F422
:10A26000FE0048604FF41F008860FFF7D8FF4FF0F2
:10A2700000602949086010BD10B5002100200022AF
:10A28000214B5B6803F00C0121B1042906D0082999
:10A2900028D107E0214B224C236027E01F4B204CA4
:10A2A000236023E0184B5B6803F47010164B5B6867
:10A2B00003F48032022303EB904022B9194B43434D
:10A2C000174C23600DE0104B5B6803F4003323B19F
:10A2D000144B4343124C236003E0104B4343104C98
:10A2E000236003E00D4B0E4C236000BF00BF064B04
:10A2F0005B68C3F303130C4CE15C094B1B68CB4058
:10A30000074C236010BD00000010024000200240F6
:10A310000000FFF8FFFFF6FE08ED00E000127A00F3
:10A320003C00002000093D00400000200948804713
:10A3300009480047FEE7FEE7FEE7FEE7FEE7FEE727
:10A34000FEE7FEE7FEE7FEE704480549054A064B3F
:10A350007047000027A200083161000878480020FB
:10A3600078680020785800207858002008B501212E
:10A370000820FEF73BFB4020ADF8000001208DF8DF
:10A38000020010208DF803006946FA48FDF7ECFF43
:10A390004021F848FEF795F808BD38B5044601217C
:10A3A0000820FEF723FB6CB18020ADF800000120EF
:10A3B0008DF8020048208DF803006946ED48FDF74E
:10A3C000D3FF10E08020ADF8000001208DF80200DE
:10A3D00014208DF803006946E648FDF7C5FF80218B
:10A3E000E448FEF76EF838BD08B519208DF8000076
:10A3F00001208DF8010003208DF8020001208DF866
:10A4000003006846FDF7EDF808BD0EB50121C8024E
:10A41000FEF7ECFA41F61F40ADF800004FF47A70F9
:10A42000ADF804000020ADF80600ADF80200694662
:10A43000D148FEF74BFE01221146CF48FFF7BDF988
:10A440000121CD48FFF79EF90EBD00BF00BF00BF40
:10A4500000BF00BF00BF00BF00BF00BF4020C54914
:10A460001031086000BF00BF00BF00BF00BF00BFC9
:10A4700000BF00BF00BF4020BE49143108607047D4
:10A4800010B500BF00BF00BF00BF00BF00BF00BFCE
:10A4900000BF00BF0020FFF780FF4020B54910310A
:10A4A000086000BF00BF00BF00BF00BF00BF00BF0B
:10A4B00000BF00BF8020AF4914310860062001F0C2
:10A4C00011F84020AB491431086000BF00BF00BF45
:10A4D00000BF00BF00BF00BF00BF00BF4020A549B4
:10A4E0001031086000BF00BF00BF00BF00BF00BF49
:10A4F00000BF00BF00BF40209E491431086000BF6C
:10A5000000BF00BF00BF00BF00BF00BF00BF00BF53
:10A510000120FFF742FF00BF00BF00BF00BF00BF28
:10A5200000BF00BF00BF00BF40209249103108604B
:10A53000822000F0D7FF40208E491431086010BD02
:10A5400010B500208D490870FFF75FFFFFF74CFF43
:10A55000FFF70CFF0020FFF720FF80208549103116
:10A560000860402008600A2000F0A0FFFFF788FF85
:10A57000FFF76BFF00208249086010BD10B500BFD7
:10A5800000BF00BF00BF00BF00BF00BF00BF00BFD3
:10A590004020784910310860022000F0A3FF4020DD
:10A5A00074491431086010BD10B57448007810B1BA
:10A5B00001282AD111E06F480830006800F08000BF
:10A5C00050B97048007838B9FFF7D8FF01206B49BF
:10A5D00008701F206A49086017E066480830006864
:10A5E00000F0800030B901206649087000206349FE
:10A5F000087009E06248006830B9FFF741FFFFF7D3
:10A6000024FF00205D49087000BF00BF10BD10B5D9
:10A6100001220023037000BF00BF00BF00BF00BFC6
:10A6200000BF00BF00BF00BF2AE04023514C1034E0
:10A63000236000BF00BF00BF00BF00BF00BF00BF5E
:10A6400000BF00BF40234B4C1434236000BF00BF49
:10A6500000BF00BF00BF00BF00BF00BF00BF454B31
:10A6600008331B6803F0800313B9037813430370A6
:10A6700053061A0E22B90122401C09B100230370AF
:10A680000B00A1F10104A1B2CFD110BD10B5002083
:10A690003C490870FFF7F4FEFFF7D7FE10BD10B578
:10A6A00001211023002221E04020324C1034206090
:10A6B00000BF00BF00BF00BF00BF00BF00BF00BFA2
:10A6C00000BF40202B4C1434206000BF00BF00BFEF
:10A6D00000BF00BF00BF00BF00BF00BF254808305B
:10A6E000006800F0800000B90A4349001800A3F197
:10A6F0000104E3B2D8D1B2F5404F01D0401E10BDE5
:10A700000020FCE72DE9F041034617460BB1002974
:10A7100002DC0120BDE8F081012F04D0022F05D01A
:10A72000032F07D103E03F24072605E000BF0F24D5
:10A73000052601E00220EDE700BF491E002226E0C9
:10A74000491E4FF0000C35460CE06D1E18784FF096
:10A75000010808FA05F800EA080018B10CF1010038
:10A7600000F0FF0C002DF0D10CF0010060B90320C7
:10A77000D0E70000000C0140002C014050000020F8
:10A780005400002051000020187842405B1C002932
:10A79000D6D1224018782040904201D00420B9E759
:10A7A0000020B7E709E04A1ED1B2425C02F00F0276
:10A7B0004254425C42F0300242540029F3D17047C7
:10A7C0002DE9F74F06460D4606B115B90120BDE843
:10A7D000FE8F0298012804D0022808D003280DD14A
:10A7E00006E03F274FF045084FF01F0A0AE000BF80
:10A7F0000F274FF00B084FF01F0A03E000202870CE
:10A800000220E4E700BF0024A14608EA07080AEA9C
:10A81000070A30783840404503D0002028700320D4
:10A82000D5E70AE0305D3840404500D1A146305DB3
:10A830003840504500D103E0641C2878A042F1DC88
:10A8400000BF2878A04203DC002028700420BEE767
:10A85000641C641CA4EB09042C70B9F1000F0AD02D
:10A8600003E016F809003070761C2000A4F1010402
:10A87000F7D12878361A29783046029AFFF742FF36
:10A8800083464FEA0B20A2E7F0B502460C460026AD
:10A89000012500214FF4307302B10CB90120F0BD45
:10A8A00000BF00BF00BF00BF00BF00BF00BF00BFB0
:10A8B00000BF002010702EE05B1E491001F07F01E8
:10A8C0004020FA4F386000BF00BF00BF00BF00BF8C
:10A8D00000BF00BF00BF00BF4020F44F3F1D3860E5
:10A8E00000BF00BF00BF00BF00BF00BF00BF00BF70
:10A8F00000BFEE480838006800F0800010B941F051
:10A90000400101E001F03F01452904D11170521CC2
:10A910000020107001E0002BCED100BF002B03DC23
:10A92000002020700220BAE7072093FBF0F0401CC3
:10A930002070012500212AE05B1E4020DB4F38609B
:10A9400000BF00BF00BF00BF00BF00BF00BF00BF0F
:10A9500000BF4020D54F3F1D386000BF00BF00BF83
:10A9600000BF00BF00BF00BF00BF00BFCF48083816
:10A97000006800F0800000B929436806050E802DAC
:10A9800005D101251170521C0020107001E0002B30
:10A99000D2D100BF7F2903D146F0100600202070DD
:10A9A000002B03DC00202070032078E701252AE03B
:10A9B0005B1E4020BD4F386000BF00BF00BF00BF1E
:10A9C00000BF00BF00BF00BF00BF4020B74F3F1D0A
:10A9D000386000BF00BF00BF00BF00BF00BF00BFA6
:10A9E00000BF00BFB1480838006800F0800010B90F
:10A9F0001078284310706806050E802D03D10125BC
:10AA0000521C00201070002BD2D1304647E7F0B521
:10AA100002460C460026012500214FF4307302B196
:10AA20000CB90120F0BD00BF00BF00BF00BF00BFD8
:10AA300000BF00BF00BF00BF002010702EE05B1EF3
:10AA4000491001F01F014020984F386000BF00BF3F
:10AA500000BF00BF00BF00BF00BF00BF00BF40205D
:10AA6000924F3F1D386000BF00BF00BF00BF00BF56
:10AA700000BF00BF00BF00BF8C480838006800F06E
:10AA8000800010B941F0100101E001F00F010B2925
:10AA900004D11170521C0020107001E0002BCED1A7
:10AAA00000BF002B03DC002020700220BAE7052045
:10AAB00093FBF0F0401C2070012500212AE05B1E72
:10AAC00040207A4F386000BF00BF00BF00BF00BF0A
:10AAD00000BF00BF00BF00BF4020744F3F1D386063
:10AAE00000BF00BF00BF00BF00BF00BF00BF00BF6E
:10AAF00000BF6E480838006800F0800000B92943A4
:10AB00006806050E202D05D101251170521C00206C
:10AB1000107001E0002BD2D100BF1F2903D146F0F5
:10AB2000100600202070002B03DC00202070032082
:10AB300078E701252AE05B1E40205C4F386000BFAB
:10AB400000BF00BF00BF00BF00BF00BF00BF00BF0D
:10AB50004020564F3F1D386000BF00BF00BF00BF00
:10AB600000BF00BF00BF00BF00BF504808380068EA
:10AB700000F0800010B91078284310706806050EA8
:10AB8000202D03D10125521C00201070002BD2D1A2
:10AB9000304647E710B5FFF707FD45480078002825
:10ABA0007DD0802043490870002043490870434904
:10ABB00008704349087043490870FFF770FD3E492B
:10ABC0004148FFF761FE04468CB901223A493E48EC
:10ABD000FFF7F6FD044634B93648007840F001002E
:10ABE0003449087006E000203349087002E0002074
:10ABF0003149087031493548FFF709FF04468CB9DF
:10AC000002222E493148FFF7DBFD044634B92948BA
:10AC1000007840F002002749087006E0002027492C
:10AC2000087002E000202549087025492848FFF7F0
:10AC3000EEFE04468CB9032221492548FFF7C0FDEA
:10AC4000044634B91B48007840F0040019490870E4
:10AC500006E000201A49087002E000201849087038
:10AC60001448007800F0020048B11248007840F023
:10AC7000400010490870FFF709FD002010BD104981
:10AC80001348FFF7C4FE04467CB903220C49104860
:10AC9000FFF796FD0446ECB90648007800E068E04E
:10ACA00040F00400034908701BE017E0100C01405D
:10ACB000510000205C0000205800002059000020B6
:10ACC0005A0000205B000020100700209D07002094
:10ACD0002A08002000205649087002E0002054494C
:10ACE000087054495448FFF792FE04468CB902227A
:10ACF00050495148FFF764FD044634B94F48007885
:10AD000040F002004D49087006E0002049490870F3
:10AD100002E000204749087049494A48FFF7B4FD5E
:10AD200004468CB9012246494648FFF749FD0446CE
:10AD300034B94248007840F001004049087006E00C
:10AD400000203F49087002E000203D490870FFF7ED
:10AD50009DFC3A48007800F0020038B1374800788E
:10AD600040F0400035490870002087E7032000F0DC
:10AD70000FFC4FF0FF3081E770B506460D4606B177
:10AD80000DB9012070BD2B4801782B48FFF70AFD53
:10AD9000274801782C48FFF705FD002408E02648E5
:10ADA000005D3D2802D1601EC4B205E0601CC4B243
:10ADB000204800788442F2DD00BF1E4800788442BB
:10ADC00025DD002408E02048005D3D2802D1E01E7A
:10ADD000C4B205E0601CC4B2154800788442F2DDBC
:10ADE00000BF13480078844201DD0120CAE72C70BF
:10ADF00022461549C91C304612F0B5FD13480470AF
:10AE000022461149491C124812F0ADFD0EE02C708B
:10AE100022460949491C304612F0A5FD0B48047032
:10AE200022460549491C0A4812F09DFD0020A9E769
:10AE30005A000020590000209D0700205C000020DF
:10AE400058000020100700202A0800205B00002086
:10AE5000B70800201CB501213C20FDF7C7FD0420E8
:10AE6000ADF8040003208DF8060018208DF80700C7
:10AE700001A9FC48FDF778FA0820ADF8040003208A
:10AE80008DF8060004208DF8070001A9F548FDF7AC
:10AE90006BFA4FF40060ADF8040003208DF8060053
:10AEA00004208DF8070001A9EF48FDF75DFA0220A4
:10AEB000ADF8040003208DF8060010208DF807007F
:10AEC00001A9E948FDF750FA0221E748FDF7F9FA30
:10AED00026208DF8000001208DF8010000208DF85B
:10AEE000020001208DF803006846FCF77AFB1CBDC8
:10AEF0001FB501214804FDF786FDDC48FEF720FF61
:10AF00004FF4E13000900020ADF80400ADF80600E9
:10AF1000ADF80800ADF80C000C20ADF80A00694649
:10AF2000D248FEF750FF2021D048FFF7C0F8012299
:10AF300040F22551CD48FEF7DEFF0121CB48FEF758
:10AF4000CEFF1FBD0EB50C210220FDF723FB4FF4F1
:10AF50008050019000208DF8080010208DF8090025
:10AF600001208DF80A0001A8FCF740FE28208DF88A
:10AF7000000001208DF801008DF802008DF803001B
:10AF80006846FCF72EFB0EBD704770B505460E46B1
:10AF9000012000F08BFA00240BE0295DB348FFF795
:10AFA0000BF800BFB148008800F080000028F9D0FD
:10AFB000641CB442F1D3012000F078FA70BD2DE991
:10AFC000F04105460E464FF08057002400BF12E0C6
:10AFD00004E07F1E17B90120BDE8F081A348008876
:10AFE00000F020000028F4D0A048FEF7E9FF285523
:10AFF0004FF08057641CB442EAD30020ECE770B5F0
:10B000004FF400619848FDF742FA05461DB1012D45
:10B0100003D1002401E0022400BF00BF204670BD20
:10B02000704770B508219048FDF73EFA06460421A6
:10B030008D48FDF739FA46EA0010C5B23DB1012D41
:10B0400003D0112D05D1002403E0022401E00124E6
:10B0500000BF00BF204670BD0020704710B5FFF74D
:10B06000F9FEFFF745FFFFF76DFF10BD70B5044611
:10B070000D46FFF7F1FF00B170BD4FF480617A48D3
:10B08000FDF721FA032000F011FA29462046FFF7C8
:10B090007CFF4FF480617448FDF713FA00BFEBE7C3
:10B0A0002DE9F04106460F4614461D464FF00008B4
:10B0B000002240F225516D48FEF71DFF394630460B
:10B0C000FFF763FF29462046FFF779FF00F0FF08EE
:10B0D000012240F225516548FEF70DFF4046BDE8CC
:10B0E000F0812DE9F04389B005460C461646202133
:10B0F00001A812F0D9FC0027B846B94601208DF806
:10B10000040029208DF80500FC208DF8060003209E
:10B110008DF8070020788DF8080060788DF8090018
:10B120008DF80A6007279DF80A000A3000F0FF0832
:10B1300043462A46394601A8FFF7B2FF00F0FF094F
:10B14000484609B0BDE8F0832DE9F04790B00746C6
:10B150000E461446202108A812F0A6FC20216846BD
:10B1600012F0A2FC4FF00009CA460025A8460120B3
:10B170008DF8200027208DF82100FC208DF822007A
:10B18000E01CC0B28DF8230030788DF82400707870
:10B190008DF825008DF8264000BF05E0795DE81D9B
:10B1A00008AA1154681CC5B2A542F7DB9DF823001C
:10B1B000001D00F0FF094FF0070A53466A46494652
:10B1C00008A8FFF76DFF00F0FF08B8F1000F04D1E9
:10B1D0009DF8060008B14FF00108404610B0BDE8E8
:10B1E000F087F0B5C1B006460D46002420A103C982
:10B1F000CDE90101083401A908192A46314612F0A7
:10B20000B2FB2C440D2001A90855641C002240F219
:10B2100025511648FEF76FFE214601A8FFF7B5FE3F
:10B22000062101A8FFF7CBFE0746012240F2255177
:10B230000E48FEF760FE002041B0F0BD1CB50024B2
:10B240000EA0006801900EA0006800900220FFF799
:10B25000E7FE032201A96846FFF776FFC4B28CB16E
:10B2600020461CBD00080140001001400044004081
:10B2700041542B4E414D453D0000000000070000A9
:10B28000240404000020FFF7CBFE00BFE9E72DE90E
:10B29000F04106460C460025002706F108007349D8
:10B2A000C86002217148FFF78AFEC5B225B10020AF
:10B2B00020601020BDE8F0816C480078552803D14B
:10B2C0006A484078AA2803D0002020601120F1E7C6
:10B2D00001216648801CFFF772FEC5B21DB1002037
:10B2E00020601020E6E701216048C01CFFF767FEE0
:10B2F000C5B21DB1002020601020DBE702215B48B1
:10B30000001DFFF75CFEC5B21DB1002020601020BB
:10B31000D0E756480179407941EA0027B7F5836FB5
:10B3200003D9002020601220C4E702214F48801D6D
:10B33000FFF745FEC5B21DB1002020601020B9E71F
:10B34000B81E4A4988600A469168D068FFF737FE00
:10B35000C5B21DB1002020601020ABE70121434899
:10B360001430FFF72CFEC5B21DB100202060102064
:10B37000A0E702213D481530FFF721FEC5B21DB1FF
:10B3800000202060102095E73848407DCC2803D16C
:10B390003648807D332803D000202060142089E7C0
:10B3A000324801683160406870603048017D8068D3
:10B3B000083031542D48417D8068093031542B4884
:10B3C000817D80680A30315428488068C71D381D47
:10B3D000206000206EE7F8B505460E46002000907C
:10B3E000002405F1080021490861B41C0C71210AF0
:10B3F0001E48417101682960406868601B483246F8
:10B40000016905F1080012F0AEFA241D6A462146D2
:10B41000A81C00F060FAA41C9DF800002855641CCC
:10B420001248407D2855641C1048807D2855641CB6
:10B4300021462846FFF71AFE0A2000F037F8F8BD2B
:10B440000020704710B502210948FDF73AF80220A4
:10B4500000F02CF802210648FDF735F80A2000F02C
:10B4600025F802210248FDF72CF810BDD80800206D
:10B47000001001404FF0E021096921F004014FF074
:10B48000E0221161C21700EB5272C2F3C702234BD4
:10B490001A701946097801EB4102C2EBC1114FF64F
:10B4A000FF7202EAC1011E4A1180704701461C4A20
:10B4B00012884A434FF0E0235A6100229A61012228
:10B4C0001A6100BF4FF0E022106900F001021AB1CA
:10B4D00000F48032002AF5D000224FF0E0231A61F8
:10B4E0009A61704701460D4A12784A434FF0E023B3
:10B4F0005A6100229A6101221A6100BF4FF0E022D6
:10B50000106900F001021AB100F48032002AF5D06F
:10B5100000224FF0E0231A619A6170476A00002010
:10B520006C00002008B501210520FDF75FFA01211C
:10B530001A48FCF7EAFF4FF40040ADF80000032082
:10B540008DF8020010208DF8030069461448FCF7BE
:10B550000BFF4FF400411248FCF7B5FF08BD10B5D2
:10B56000002411E04FF400410D48FCF7AAFF6420CD
:10B57000FFF7B8FF4FF400410948FCF7A4FF64202F
:10B58000FFF7B0FF601C84B2B4F5FA7FEADB10BDB0
:10B5900010B50446FFF7E3FF002010BD00023000A5
:10B5A00000080140F0B502460B46FF24FF250026A7
:10B5B0000AE0905D80EA0401701CC6B2FE48405C5F
:10B5C00080EA0504FD48455C1800A3F10103F0D1B1
:10B5D00045EA0420F0BDF0B5C1B006460D46174659
:10B5E00026B11DB117B12878802804DD002028700D
:10B5F000702041B0F0BD002420E0305D000901A9B9
:10B6000001F8140001A810F8140040F0300001F80F
:10B610001400305D00F00F00012101EB440101AA8C
:10B620005054012000EB440001A9085C40F03000B8
:10B63000012101EB44015054601CC4B22878A0429F
:10B64000DBDC28784006000E28702A7801A93846ED
:10B6500012F089F90020CCE7F0B5C1B006460D46DE
:10B66000174626B11DB117B12878802804DD0020C7
:10B670002870702041B0F0BD002453E0305D000917
:10B6800001A901F8140001A810F81400092806DC2B
:10B6900001A810F81400303001F8140010E001A8DF
:10B6A00010F814000A280BDB01A810F814000F286A
:10B6B00006DC01A810F81400373001A901F81400C5
:10B6C000305D00F00F00012101EB440101AA50544C
:10B6D000012000EB440001A9085C092809DC0120D5
:10B6E00000EB4400085C3030012101EB4401505470
:10B6F00016E0012000EB440001A9085C0A280FDBDA
:10B70000012000EB4400085C0F2809DC012000EB5D
:10B710004400085C3730012101EB440101AA505478
:10B72000601CC4B22878A042A8DC28784006000E2D
:10B7300028702A7801A9384612F015F9002099E7F7
:10B740002DE9F041C0B007460E4690461FB116B134
:10B75000B8F1000F05D100203070702040B0BDE876
:10B76000F081002555E017F81540302C06DB392C08
:10B7700004DC2007000E0DF8050017E0412C07DB64
:10B78000462C05DCE01F0007000E0DF805000DE05B
:10B79000612C07DB662C05DCE01F0007000E0DF8AE
:10B7A000050003E0002030707120D7E7012000EB96
:10B7B00045003C5C302C0ADB392C08DC1DF80510F8
:10B7C00004F00F000844C0B20DF805001FE0412C42
:10B7D0000BDB462C09DC1DF80510E01F00F00F0004
:10B7E0000844C0B20DF8050011E0612C0BDB662C9B
:10B7F00009DC1DF80510E01F00F00F000844C0B27E
:10B800000DF8050003E0002030707220A6E7681CE8
:10B81000C5B2307800EBD071B5EB610FA3DB3078A7
:10B8200000EBD0714910317032786946404612F011
:10B830009AF8002092E73CB503460C461AB113B1C2
:10B8400004F0070008B170203CBD00211068009092
:10B850005068019037E09DF800005D5C68408DF80D
:10B8600000009DF801004D1C5D5D68408DF80100F1
:10B870009DF802008D1C5D5D68408DF802009DF80A
:10B880000300CD1C5D5D68408DF803009DF8040049
:10B890000D1D5D5D68408DF804009DF805004D1D8F
:10B8A0005D5D68408DF805009DF806008D1D5D5DAD
:10B8B00068408DF806009DF80700CD1D5D5D68406D
:10B8C0008DF807000831A142C5D300981060019897
:10B8D00050600020B8E730B503460D460BB9702024
:10B8E00030BD1478002102E0585C4440491CA94254
:10B8F000FAD314700020F3E710B504460B4604B1E8
:10B900000BB9702010BD196801E06254491C01F0A8
:10B9100007000028F9D1196000BFF3E710B503460E
:10B920000A4603B10AB9702010BD116801F0070082
:10B93000C0F1080401E05C54491C01F00700002834
:10B94000F9D1116000BFEFE72DE9F0418CB0054659
:10B950000C4616461F46DDF8488025B11EB10E2C58
:10B9600001DC0D2F03DA70200CB0BDE8F0818DF8FA
:10B970002040224629460DF1210011F0F4FFC4F1C8
:10B980000E010DF121021019462212F063F80E206B
:10B9900001900DF1210201A91046FFF7D1FE3022DE
:10B9A000042104A812F056F8F01950F80D1D059165
:10B9B00041680691806803E07CDB01087CDC0108BB
:10B9C00007901020019004AA01A904A8FFF7B8FE6F
:10B9D000DDE90401CDE90A0100200290039002AAEA
:10B9E000102108A8FFF727FF0298C8F80000039865
:10B9F000C8F804000020B7E72DE9FF4107460D46CF
:10BA0000144600260FB105B11CB9702004B0BDE882
:10BA1000F081287800909DF80000062801D0712060
:10BA2000F4E79DF80020394601A811F09CFF01AA17
:10BA3000694601A8FFF7CFFD002607E0701CC6B2DB
:10BA40000B2E03DD002028700120DFE701A8805DB8
:10BA50003028F3D0C6F10C00C0B200909DF8000071
:10BA600002281DDD9DF80000821E01A881192046D4
:10BA700011F079FF2E219DF80000801E21549DF8C1
:10BA80000E109DF80000401E21549DF80F009DF8F7
:10BA9000001060549DF80000401CC0B2009019E0F6
:10BAA000302020702E2060709DF80000022806D102
:10BAB0009DF80E00A0709DF80F00E07008E09DF862
:10BAC0000000012804D13020A0709DF80F00E07024
:10BAD000042000909DF800002870002096E72DE9D2
