:020000040800F2
:1000000078790020A1380008CD120008CF1200082E
:10001000D3120008D7120008DB120008000000000D
:10002000000000000000000000000000DF120008D7
:10003000E112000800000000E3120008E5120008C9
:10004000BB380008BB380008E7120008BB380008BE
:10005000BB380008BB380008BB380008BB380008B4
:10006000BB38000815130008BB380008BB3800086F
:10007000BB380008BB380008BB380008BB38000894
:10008000BB380008BB380008BB380008BB38000884
:100090000D130008BB380008BB380008BB38000847
:1000A000BB38000809130008BB380008BB3800083B
:1000B0000B130008BB380008BB380008BB38000829
:1000C000BB380008BB380008BB380008BB38000844
:1000D000BB380008E9120008F1120008BB3800081C
:1000E00017130008BB380008BB380008BB380008ED
:1000F000BB380008BB380008BB380008BB38000814
:10010000BB380008BB380008BB380008BB38000803
:1001100007130008BB380008BB380008BB380008CC
:10012000BB380008BB380008BB380008BB380008E3
:1001300000F002F800F05AF80AA090E8000C82449F
:100140008344AAF10107DA4501D100F04FF8AFF27C
:10015000090EBAE80F0013F0010F18BFFB1A43F0A5
:1001600001031847D0900000F09000000A444FF0BF
:10017000000C10F8013B13F0070408BF10F8014B06
:100180001D1108BF10F8015B641E05D010F8016B4B
:10019000641E01F8016BF9D113F0080F1EBF10F8AF
:1001A000014BAD1C0C1B09D16D1E58BF01F801CBD2
:1001B000FAD505E014F8016B01F8016B6D1EF9D555
:1001C0009142D6D37047000000230024002500266A
:1001D000103A28BF78C1FBD8520728BF30C148BFAA
:1001E0000B6070471FB51FBD10B510BD08F08AFC2D
:1001F0001146FFF7F7FF01F053F808F0A8FC03B42D
:10020000FFF7F2FF03BC08F0ADFC00002DE9F04160
:10021000ADF52F6D07460D460024A0464FF42F6123
:10022000684608F045FCFB4890F886212046641C8F
:100230000DF80020F74890F887212046641C0DF83F
:100240000020EAB22046641C0DF800200DEB0400EB
:100250002A46394608F093FB2C44FF2C13D9FF2083
:10026000B4FBF0F0401C00F0FF08002608E0C6EBED
:1002700006216A468818FF2105F032FA701CC6B2C2
:100280004645F4DB03E0FF21684605F029FA0DF549
:100290002F6DBDE8F08100214FF08042918400BFB6
:1002A0004FF08041898CB1EB400FF9DB704758B1BA
:1002B000D949096821F47041D74A1160114609688B
:1002C00041F4E04111600AE0D349096821F470412A
:1002D000D14A11601146096841F4804111607047AC
:1002E00000204FF08041888400BF4FF08040808C18
:1002F0000928FADB704700204FF08041888400BF56
:100300004FF08040808C0828FADB704758B1C24912
:10031000096821F47061C04A11601146096841F40E
:10032000E06111600AE0BC49096821F47061BA4AD1
:1003300011601146096841F4A061116070472DE910
:10034000F04104460F4672B64FF48060B2490C315A
:100350000860400008600120FFF7A9FF0120FFF7B7
:10036000D5FF2020AD490861FFF7BAFF4FF40060C8
:10037000A94910310860FFF7B3FF4FF48060A64928
:100380001031086039E0257800261FE005F0800074
:1003900028B14FF40060A0490C31086004E04FF42C
:1003A00000609D49103108606806050EFFF7A3FF45
:1003B0004FF4806098490C310860FFF791FF4FF4CB
:1003C0008060954910310860701CC6B2082EDDDBD4
:1003D0000020FFF76CFFFFF783FF4FF480608E492A
:1003E0000C310860FFF77CFF4FF480608A491031C0
:1003F0000860641C0120FFF75AFF3800A7F10107CD
:10040000C1D1FFF76DFF4FF4806083490C31086064
:100410000120FFF740FF4FF400607F490C31086076
:100420000120FFF744FF0120FFF735FF62B67C484B
:10043000007890B100207B49088007E0012005F09A
:1004400023FC00F08000802800D105E0754800887A
:100450004EF290218842F1DD00BF20206F494861B3
:10046000BDE8F08100204FF0804188841AE00BE065
:100470004FF08040808C102800DD0CE067488068D9
:1004800000F0100000B915E06348001D006800F49A
:1004900080600028ECD100BF4FF08040808C0428A1
:1004A00000DD05E05D48806800F010000028DED126
:1004B00000BF00BF5948806800F0100008B101205B
:1004C00070470020FCE700204FF0804188841AE04C
:1004D0000BE04FF08040808C102800DD0CE04F488E
:1004E000806800F0100000B915E04B48001D00685E
:1004F00000F480600028ECD000BF4FF08040808C7A
:10050000042800DD05E04548806800F01000002860
:10051000DED100BF00BF4148806800F0100008B184
:10052000012070470020FCE770B504460025002636
:1005300072B60020FFF7BBFE0020FFF7E7FE37484A
:10054000806800F01000002843D0FFF78BFF2FE0F9
:100550000025002213E06806050EFFF7B4FF00B97E
:100560002DE02D48001D006800F4006008B145F042
:100570000105FFF777FF00B921E0501CC2B2082A3D
:10058000E9DB0120FFF793FE4FF4006022491031B0
:100590000860FFF798FF00B911E02570FFF762FFD0
:1005A00000B90CE00020FFF782FE641C701C86B2CC
:1005B0001A48806800F010000028C9D100BF4FF42D
:1005C000006015490C3108604010086062B6304682
:1005D00070BD62B60020FBE72DE9F047A8B00446E5
:1005E000894692461E460F278021022005F079FB9E
:1005F000022005F0DEFAB9F1000F17D12278611C54
:10060000022005F0EAFB08484079401C0649487181
:1006100015E00000641E0020040C014000100140A1
:10062000C50C002024040040640E00202178601CCA
:10063000FFF785FEFE484079401CFD4948710020C7
:10064000FC49088077E0022005F01EFB00F08000E6
:10065000802816D127A9022005F05CFC05468021E0
:10066000022005F03EFB022005F0A3FA2798306037
:1006700029465046279A08F082F9012028B0BDE8A3
:10068000F087ED48806800F01000002847D06846E9
:10069000FFF74AFF8046B8F1000F3CD0E4480079EC
:1006A000152806D1E2484079022802D11520E049F8
:1006B0000871DF484079DE490979884208DBC6F8CD
:1006C000008042466946504608F059F90220D5E7B5
:1006D000D7484179801D00EBC1100578D448427994
:1006E000801D00EBC210411C2A46684608F047F9FD
:1006F0006420FFF7D0FD29466846FFF720FECC486E
:100700004079401CCA494871CC4805702A46694660
:10071000401C08F034F90020C649088000BFC548D5
:1007200000884EF66021884205DD0FB1781EC7B201
:100730000020C0490880002F85D100209EE72DE9C8
:10074000F04FADF6140D80468A4693461F464FF48F
:10075000006105A808F0ACF90020049000250024F1
:100760000290814601902020B3494861002627E08D
:1007700018F804507F2D0BDD0121B14880F8881155
:1007800080F8896146F618200DF6140DBDE8F08F4B
:1007900008EB0401A64A921D02EBC6106A1C08F081
:1007A000EEF86019441C544508D90121A44880F88A
:1007B000881180F8896146F61820E5E7701CC6B2FA
:1007C0009B480079B042D3DC99480078C1284BD1CE
:1007D00097484078022847D19548067900249949DE
:1007E000601C095C9748005D01EB00200190A41C8F
:1007F0008F4802792046641C9249085C10448C4959
:10080000087108460079232801DD1520BCE726E0A1
:100810008C48055D7F2D08DD0121894880F888110D
:1008200080F8896146F61820AEE7864A1119804A99
:10083000921D02EBC6106A1C08F0A1F86019441C56
:100840000198801C844208D901217D4880F88811D4
:1008500080F8896146F6182096E7701CC6B2744885
:100860000079B042D4DC00BF8021022005F039FAC3
:10087000022005F09EF900206D49487175E06C4832
:100880004679002003906A48801D00EBC61000786E
:100890000A2815D16648801D00EBC6104078AA28AA
:1008A0000ED16349891D01EBC6100822664908F084
:1008B0001BF810B90020039004E00120039001E030
:1008C000012003905A49891D01EBC61004AB05AA0B
:1008D0000399FFF781FE814655480079152805D117
:1008E0005348407910B9152051490871B9F1000FEA
:1008F00002D146F6202047E7B9F1020F09D105A938
:100900005846049A08F03BF8049838604FF41040B9
:100910003AE7B9F1010F27D19DF81B0050B99DF8B6
:100920001C0038B99DF81D009F280DD09DF81D00B2
:10093000902809D005A95846049A08F020F8049890
:1009400038604FF410401FE7394840793849097939
:10095000884209DB05A95846049A08F010F8049863
:1009600038604FF410400FE700BF314840793049FC
:100970000979884283DB00BF06E72DE9F047ADF532
:10098000825D05468946002600270024A0460021F6
:100990000DF58050C1634FF400610DF63C0008F086
:1009A00087F84FF400610FA808F082F82748007814
:1009B000012802D00020254948703046761C285C6A
:1009C0001B4908703046761C285C48703046761CFF
:1009D000285C88703046761C285CC8700846007811
:1009E000C12804D0C2287CD0C3287BD104E210489F
:1009F0004078002859D115490870487007200C49E3
:100A000008712021124808F053F8A9192022104833
:100A100007F0B5FF5B220E4938390DF63C0007F0B0
:100A2000F3FF41F23C036B440FAA5B2112E000008C
:100A3000640E00202404004000100140DD2A002044
:100A4000641E002008000020728B000800000020B7
:100A5000580C00200DF63C00FFF771FE0446B4F57B
:100A6000104F18D10322FC490FA807F03DFF0028C2
:100A700010D12112F94880F8861180F887410821A9
:100A800080F8881190F888210DF1430100F2891057
:100A900007F075FF41E12112F04880F8861180F8D7
:100AA0008741002180F8881137E1ED48407801281E
:100AB0007ED10220EA4908711822EA490DF63C006D
:100AC00007F05DFFA9190A68CDF83D284968CDF8FF
:100AD000411806F1080029180A68CDF84928496824
:100AE00001E01BE1EAE1CDF84D1841F23C036B4413
:100AF0000FAA5B210DF63C00FFF721FE0446B4F57A
:100B0000104F1BD10322D8490FA807F0EDFEA8B95A
:100B10002112D24880F8861180F88741082180F898
:100B2000881190F888210DF1430100F2891007F037
:100B300026FF0020CD4908704870EEE00120CB4927
:100B4000087008464078401C4870084640780428E1
:100B50000EDD6A21C14880F88611862180F8871150
:100B6000002180F888110020C04908704870A6E173
:100B70000720BB4908715B22BD490DF63C0007F018
:100B800043FF41F23C036B440FAA5B210DF63C008E
:100B9000FFF7D5FD0446B4F5104F22D10322AE492C
:100BA0000FA807F0A1FE0028C7D16321AB4800E0E1
:100BB00021E080F88611AD484078C0F10500C0B250
:100BC00040F0C001A54880F88711082180F88811FD
:100BD00090F888210DF1430100F2891007F0CFFE53
:100BE0009BE021129D4880F8861180F88741002102
:100BF00080F8881191E09A48407802289DD1012020
:100C0000974908719B490A68CDF83C284A68CDF895
:100C100040288968CDF844189148C278A9190DF682
:100C20003D0007F0ACFE9DF83C28511C924B934AC6
:100C30000DF63C00FFF783FD0446B4F5104F11D1CB
:100C40008E48407A90280DD12112844880F8861170
:100C500080F88741002180F888118748006888491A
:100C600008605AE001208149087008464078401C1D
:100C700048700846407804280EDD6A21774880F8DD
:100C80008611862180F88711002180F888110020C4
:100C900076490870487012E10120714948700720B8
:100CA00008715B2272490DF63C0007F0ADFE41F27F
:100CB0003C036B440FAA5B210DF63C00FFF73FFDA0
:100CC0000446B4F5104F1FD1032263490FA807F063
:100CD0000BFE10BB6321614880F8861163484078A1
:100CE000C0F10500C0B240F0C0015C4880F8871137
:100CF000082180F8881190F888210DF1430100F255
:100D0000891007F03CFE08E02112544880F8861153
:100D100080F88741002180F88811D0E05048407861
:100D2000B0B94F4BDA78A9199B7803EB830CCCEB65
:100D3000032C544B0CEB030007F021FE9021474895
:100D400080F88611002180F8871180F8881152E020
:100D50004348407880284ED1414BDA78A9199B78D6
:100D600003EB830CCCEB032C464B0CEB030007F09E
:100D700006FE4448133890F8F000042804D10020FF
:100D80004049133981F8F0000720354908715B228A
:100D900037490DF63C0007F037FE41F23C036B4447
:100DA0000FAA5B210DF63C00FFF7C9FC0446B4F521
:100DB000104F17D1032228490FA807F095FDD0B98D
:100DC0002112264880F8861180F88741082180F892
:100DD000881190F888210DF1430100F2891007F085
:100DE000CEFD08E021121D4880F8861180F8874169
:100DF000002180F8881162E01F480068FC21B0FBE8
:100E0000F1F017498978884240D915488078C0EBBD
:100E100080101A4A02EB8001FC221B4807F0AFFD4C
:100E200061210E4880F8861113480068FC21B0FB50
:100E3000F1F0401C0A498978491C401AC1B20748A0
:100E400080F887110E480068FC380D490860FC21C5
:100E5000024880F8881130E07B0C0020641E0020DE
:100E6000640E00207E0C0020960C00200000002064
:100E7000200C0020A90C0020B80C00207D2B0020A5
:100E8000BC0C00201B000020ED1F0020F5488078DE
:100E9000C0EB8010F44A02EB8001F4480268F44889
:100EA00007F06DFDF1480178F24880F88811902133
:100EB00080F88611002180F8871100E000BF00BF94
:100EC000EC4890F88811EA48FFF7A0F901200DF5E9
:100ED000825DBDE8F08710B50024E748007878B15E
:100EE000E6480178E648FFF748FD04460020E2495D
:100EF0000870E24908704FF48071E14807F0B6FDD0
:100F000010BD2DE9F04707460E4691461D46DDF817
:100F100020800024D74890F886212046641C2A545B
:100F2000D44890F887212046641C2A542046641C2B
:100F30002E54285D3246394607F021FD3444C8F866
:100F40000040BDE8F08730B5ADF6FC2D04464FF407
:100F50002F6103A807F0ACFD00200290C54890F86F
:100F60008801012803DD0021C24880F8881102A809
:100F70000090C04890F8881103AB2246BC48FFF7A8
:100F8000C0FFFF2103A804F0ABFB0DF6FC2D30BD24
:100F90002DE9F04707460D4691469A46DDE9086877
:100FA0000024B44890F886212046641C3254B1488D
:100FB00090F887212046641C32542046641C355426
:100FC00030192A46394607F0DAFC2C44C8F80040AC
:100FD000BDE8F0872DE9F041ADF6083D04468846AE
:100FE00016464FF42F6106A807F062FD0020059019
:100FF0000027A4A000680490A3A00068039090219B
:101000009C4880F88611002180F88711032204A9EA
:10101000204607F069FCB8B96321964880F886112C
:101020009A484078C0F10500C0B240F0C001914834
:1010300080F88711082180F8881190F88821E11D37
:101040008B4807F09CFC15E0032203A9204607F01B
:101050004BFC78B99021874880F88611002180F8F0
:101060008711082180F8881190F88821E11D8048B7
:1010700007F085FC4FF42F6106A807F019FD05A8BD
:1010800006A9CDE900107B4890F88811334600226C
:101090007748FFF77DFF0598FF2813D9FF210598B2
:1010A000B0FBF1F0401CC7B2002508E0C5EB0521FC
:1010B00006AA8818FF2104F013FB681CC5B2BD42C4
:1010C000F4DB03E0FF2106A804F00AFB0DF6083D5F
:1010D000BDE8F08110B502460023002002E0145C58
:1010E0006340401C8842FAD3184610BDF0B5A9B041
:1010F00004460D4616460120654908702178601C9B
:10110000FFF71DF90020624908708021022004F0D9
:10111000E8FD022004F04DFD00205E49088029E032
:10112000022004F0B1FD00F08000802815D128A92C
:10113000022004F0EFFE07468021022004F0D1FDDA
:10114000022004F036FD2898306039462846289A57
:1011500007F015FC012029B0F0BD4F48806800F071
:10116000100038B101A8FFF7DFF907460FB10220E0
:10117000F1E700BF474800884EF660218842CFDB88
:101180000020E8E71FB500214FF4E13004F0B4FF80
:1011900000214FF4E13004F0C0FF01215C2001F098
:1011A00017F91020ADF80C0003208DF80E00042074
:1011B0008DF80F0003A9384800F0E8FD4FF44060B7
:1011C000ADF80C0003208DF80E0048208DF80F00BC
:1011D00003A9324800F0DAFD10208DF80F0020201E
:1011E000ADF80C0003A92C4800F0D0FD0121084601
:1011F00001F0FBF84FF0804001F04EF94FF6FF7020
:10120000ADF804002320ADF800000020ADF8060082
:10121000ADF8020069464FF0804001F011FA01215B
:10122000880701F069FD0121022001F0DEF819486C
:10123000243801F031F94FF6FF70ADF80400472073
:10124000ADF800000020ADF80600ADF802006946D8
:101250001048243801F0F4F901210E48243801F037
:101260004BFD1FBD640E00207D2B0020BC0C002018
:10127000ED1F0020641E00202A0D00202B0D0020F1
:101280009C33002000880000008200000000002045
:10129000C50C00202404004000100140000C014057
:1012A0000EB507A207CA8DE8070000F075F804F034
:1012B000F5FF05F00CF805F026F800BFFEE700008A
:1012C0000AAAAAAA9669000320012200704700BF5B
:1012D000FEE700BFFEE700BFFEE700BFFEE7704786
:1012E000704770477047704710B504F02DFE10BD71
:1012F00010B504F06DFE012000F0E4FE10B10120F5
:1013000000F0EAFE10BD70477047704710B503F05B
:10131000A9FF10BD7047704710B500F0EBFE4FF409
:10132000803000F007FF00F044FF0446012C27D175
:10133000102000F001FA022000F0EAF9002000F08D
:101340007EFF002000F08DFFA00200F081FFE0038F
:1013500000F0A2FF4FF4E011200400F053FF012041
:1013600000F05CFF00BF392000F007FF0028FAD032
:10137000022000F056FF00BF00F05CFF0828FBD100
:1013800000214FF0006000F05EF84FF4C06000F004
:1013900023F810BD62B6704710B5FFF7BDFF4820B7
:1013A00002F09EFA0121084601F012F801210948D5
:1013B00000F0BDFD03F0C2FE03F0CCFE03F0DAFE48
:1013C00003F08EF804F003FF04F019FFFFF7DAFED4
:1013D00010BD00000002300033490143334A116060
:1013E000704770B5002100230F22C47804B32F4C3E
:1013F000246804F4E064C4F5E064210AC1F1040344
:10140000CA40447804FA03F1847814402143090166
:10141000274C0678A155047804F01F050124AC4040
:1014200005786D11AD0005F1E025C5F8004109E032
:10143000047804F01F050124AC401E4D0678761197
:1014400045F8264070BD1C4A0A400243174B1B1F3B
:101450001A60704739B1154A121D12680243134BC6
:101460001B1D1A6006E0114A121D126882430F4BC1
:101470001B1D1A607047042808D14FF0E02109694C
:1014800041F004014FF0E022116107E04FF0E0214C
:10149000096921F004014FF0E02211617047024810
:1014A000001D0249086070470000FA050CED00E0DD
:1014B00000E400E080E100E080FFFF1F01684FF6DC
:1014C000FE72114001600021016041608160C160D5
:1014D0008D49884208D18C490839496841F00F018B
:1014E000894A083A51608AE087491431884208D114
:1014F00085490839496841F0F001834A083A51604A
:101500007DE081492831884208D17F4908394968FE
:1015100041F470617C4A083A516070E07A493C318C
:10152000884208D178490839496841F47041764ABF
:10153000083A516063E074495031884208D17249D9
:101540000839496841F470216F4A083A516056E001
:101550006D496431884208D16B490839496841F4C2
:101560007001694A083A516049E067497831884218
:1015700008D165490839496841F07061624A083A02
:1015800051603CE06149884206D1011F096841F081
:101590000F01021F116032E05C491431884208D10A
:1015A0005A49091F096841F0F001584A121F116099
:1015B00025E056492831884208D15449091F096855
:1015C00041F47061514A121F116018E04F493C31DB
:1015D000884208D14D49091F096841F470414B4ABE
:1015E000121F11600BE049495031884207D1474929
:1015F000091F096841F47021444A121F11607047A5
:1016000010B50022026847F6F0739A430C6A8B68A3
:1016100023430C6923434C6923438C692343CC69DE
:1016200023434C6A23438C6A23431A430260CB68EA
:1016300043600B6883604B68C36010BD002101608C
:1016400041608160C160016141618161C16101628C
:1016500041628162704721B1026842F0010202607A
:1016600004E002684FF6FE731A40026070471AB138
:1016700003680B43036002E003688B430360704719
:10168000416070470146486880B2704701460020BB
:10169000002201F080531BB11C4B083B1A6802E08A
:1016A000194B083B1A6802EA01030BB1012000E064
:1016B0000020704700F0805119B11449091F0860DB
:1016C00002E01149083948607047014600200022B5
:1016D00001F080531BB10D4B083B1A6802E00A4B26
:1016E000083B1A6802EA01030BB1012000E0002068
:1016F000704700F0805119B10449091F086002E0E9
:101700000149083948607047080002400804024057
:1017100001460020FE4A106800F0380008431060BF
:101720007047FB49096821F00801F94A1160114628
:101730000968014311607047F549096821F01001FB
:10174000F34A116011460968014311607047F1487E
:10175000EF494860F04848607047EE48EC494860FF
:10176000ED4848607047EA48006940F08000E84969
:1017700008617047E648006940F08000E44908616C
:1017800070470420E249C96801F0010109B1012054
:101790000EE0DF49C96801F0040109B1022007E049
:1017A000DB49C96801F0100109B1032000E0042001
:1017B000704700B502460423FFF7E3FF034603E04A
:1017C000FFF7DFFF0346521E012B01D1002AF7D19C
:1017D00002B90523184600BD30B5044604254FF470
:1017E0003020FFF7E6FF0546042D17D1C8480069F1
:1017F00040F00200C649086108464461006940F0B3
:10180000400008614FF43020FFF7D3FF0546C04881
:10181000006941F6FD710840BD490861284630BDA8
:1018200010B504244FF43020FFF7C3FF0446042C06
:1018300016D1B748006940F00400B5490861084670
:10184000006940F0400008614FF43020FFF7B1FF1D
:101850000446AF48006941F6FB710840AC49086195
:10186000204610BD00B502460423FFF78AFF034659
:1018700003E0FFF786FF0346521E012B01D1002A29
:10188000F7D102B90523184600BD10B504244FF462
:101890003020FFF7E7FF0446042C16D19C4800696E
:1018A00040F004009A4908610846006940F0400091
:1018B00008614FF43020FFF7D5FF044694480069D3
:1018C00041F6FB71084092490861204610BD002096
:1018D0008F49C96901F0020109B1012000E000202F
:1018E000704730B5A5250424FFF7F1FF00B10025AE
:1018F0004FF43020FFF75DFF0446042C3AD18548B1
:1019000083498860844888600846006940F0200068
:1019100008610846006940F0400008614FF430203B
:10192000FFF747FF0446042C1BD17948006941F6B4
:10193000DF710840764908610846006940F01000F0
:10194000086176480580E002FFF733FF0446052C66
:1019500010D06F48006941F6EF7108406C4908618A
:1019600008E0052C06D06A48006941F6EF7108408E
:1019700067490861204630BD78B506460C46042507
:1019800000200090E802FFF714FF0546042D24D143
:101990005F48006940F001005D4908613480E80259
:1019A000FFF707FF0546042D10D1B01C0090200C56
:1019B00000990880E802FFF7FCFE054654480069DC
:1019C00041F6FE7108405249086106E0504800693E
:1019D00041F6FE7108404E490861284678BD70B551
:1019E00004460D460426F002FFF7E3FE0646042EE9
:1019F00011D14748006940F0010045490861258040
:101A0000F002FFF7D6FE06464148006941F6FE7136
:101A100008403F490861304670BD70B505460E4626
:101A20000424E002FFF7C5FE0446042C17D1394810
:101A300037498860384888600846006940F01000DF
:101A400008612E80E002FFF7B4FE0446052C06D0A4
:101A50002F48006941F6EF7108402D490861204682
:101A600070BD2DE9F04304464FF6FF763746B04689
:101A7000B1460425E443E6B2C4F30727C4F307489C
:101A80004FEA1469E802FFF794FE0546042D49D198
:101A900020481F498860204888600846006940F057
:101AA00010000861FF2E06D01C4808300680E802AE
:101AB000FFF77FFE0546042D08D1FF2F06D01748FB
:101AC0000A300780E802FFF774FE0546042D0AD1AC
:101AD000B8F1FF0F07D011480C30A0F80080E802E1
:101AE000FFF767FE0546042D0AD1B9F1FF0F07D0B5
:101AF0000A480E30A0F80090E802FFF75AFE0546AB
:101B0000052D0FD00248006941F6EF71084007E04B
:101B10000020024023016745AB89EFCD00F8FF1F8D
:101B2000664908612846BDE8F08330B505460424BF
:101B30004FF43020FFF73DFE0446042C41D16048AD
:101B40005E4988605F4888600846006940F0200070
:101B500008610846006940F0400008614FF43020F9
:101B6000FFF727FE0446042C22D15448006941F6B1
:101B7000DF710840514908610846006940F01000D3
:101B800008611DB100205049088002E0A5204E499F
:101B900008804FF43020FFF70CFE0446052C10D0CF
:101BA0004648006941F6EF7108404449086108E081
:101BB000052C06D04148006941F6DF7108403F49D5
:101BC0000861204630BDF0B505460E461746042490
:101BD0003B483A4988603B488860E002FFF7E9FDEE
:101BE0000446042C19D13548006940F010003349EF
:101BF000086147F0F800304328433349891C0880C6
:101C0000E002FFF7D6FD0446052C06D02B480069FC
:101C100041F6EF710840294908612046F0BD274888
:101C2000C069800870472548006A70470020234932
:101C3000096801F0200109B1012000E0002070478F
:101C400029B11E4A126902431C4B1A6104E01B4A67
:101C500012698243194B1A6170470146002001291D
:101C600008D1164AD26902F001020AB1012008E047
:101C7000002006E0114AD2680A400AB1012000E0C3
:101C8000002070470D49C860704704200B49C9689F
:101C900001F0010109B101200EE00849C96801F015
:101CA000040109B1022007E00449C96801F01001EC
:101CB00009B1032000E0042070470000002002402A
:101CC00023016745AB89EFCD00F8FF1F10B504462F
:101CD000CC48844208D10121042000F093FB00216C
:101CE000042000F08FFB46E0C748844208D1012160
:101CF000082000F087FB0021082000F083FB3AE079
:101D0000C248844208D10121102000F07BFB002151
:101D1000102000F077FB2EE0BD48844208D101215D
:101D2000202000F06FFB0021202000F06BFB22E060
:101D3000B848844208D10121402000F063FB002113
:101D4000402000F05FFB16E0B348844208D1012137
:101D5000802000F057FB0021802000F053FB0AE0B8
:101D6000AE48844207D10121801500F04BFB0021D1
:101D7000A01500F047FB10BD10B50121084600F08A
:101D800041FB0021012000F03DFB10BD2DE9F04199
:101D9000024600250026002000230024002791F899
:101DA00003C00CF00F0591F803C00CF0100CBCF14F
:101DB000000F03D091F802C04CEA050591F800C06D
:101DC000BCF1000F31D0146800202BE04FF0010C63
:101DD0000CFA00F3B1F800C00CEA03069E4220D1D1
:101DE00083004FF00F0C0CFA03F7BC4305FA03FC19
:101DF0004CEA040491F803C0BCF1280F06D14FF05F
:101E0000010C0CFA00FCC2F814C00AE091F803C0FF
:101E1000BCF1480F05D14FF0010C0CFA00FCC2F8E0
:101E200010C0401C0828D1D31460B1F800C0BCF128
:101E3000FF0F34DD546800202EE000F1080C4FF055
:101E4000010808FA0CF3B1F800C00CEA03069E4240
:101E500021D183004FF00F0C0CFA03F7BC4305FAB5
:101E600003FC4CEA040491F803C0BCF1280F05D12F
:101E700000F1080C08FA0CF8C2F8148091F803C0BD
:101E8000BCF1480F07D100F1080C4FF0010808FA27
:101E90000CF8C2F81080401C0828CED35460BDE86E
:101EA000F0814FF6FF710180022181700421C17021
:101EB00070470246002093680B400BB1012000E000
:101EC000002070470146886880B2704702460020B3
:101ED000D3680B400BB1012000E0002070470146A1
:101EE000C86880B2704701617047416170470AB1AC
:101EF000016100E041617047C16070474FF480327A
:101F00000A43826181618261826982697047024607
:101F10000020434B18684FF68073184040EA0210C7
:101F200008433F4B186070473E49C8617047F0B5A1
:101F30000A46002300240021002500F00046B6F1E7
:101F4000004F02D1364EF16901E0354E7168C0F3A1
:101F5000034583B200F44016B6F5401F08D121F0C6
:101F600070612F4E766826F070662D4F7E6012E00D
:101F700000F48016B6F5801F06D1032606FA05F494
:101F8000A14341F0706106E0460D360103FA06F602
:101F9000B14341F0706122B1460D360103FA06F6F5
:101FA000314300F00046B6F1004F02D11C4EF16102
:101FB00001E01B4E7160F0BD30B500228B071C0F95
:101FC0000F2303FA04F2164B08338C1053F8243015
:101FD0009343134C08348D1044F8253023468C105D
:101FE00053F824308C07240F00FA04F423430C4CDC
:101FF00008348D1044F8253030BD0A49DC310860C2
:102000007047000000080140000C01400010014032
:102010000014014000180140001C01400020014054
:10202000000001400000204210B50121080700F027
:10203000F6F900214FF0805000F0F1F910BD2A4967
:102040000862704728490861704701460020274A06
:10205000106820F0E0000843106070472249A0316A
:102060000860704710B502460020204B186820F029
:102070000300104318601E4B1B6843F004031C4C04
:102080002360012901D130BF00E020BF184B1B683D
:1020900023F00403164C236010BD1448006840F080
:1020A0000400124908600846006840F00200086019
:1020B0000F48006840F004000D49086000BF00BFF1
:1020C00030BF704701460020084A52680A400AB1F2
:1020D000012000E0002070470449096841EA8001BE
:1020E000024A11607047000000000E42007000407C
:1020F00010ED00E0DF48006840F00100DD490860B5
:1021000008464068DC490840DA49486008460068EB
:10211000DA490840D74908600846006820F4802062
:1021200008600846406820F4FE0048604FF41F0035
:1021300088607047CF49096821F48031CD4A116029
:102140001146096821F480211160B0F5803F03D069
:10215000B0F5802F0ED106E0C649096841F4803100
:10216000C44A116007E0C349096841F4A021C14A8B
:10217000116000E000BF00BF704710B501460022AB
:10218000002300204A11012A02D1BA4C236806E03C
:10219000022A02D1B74C236A01E0B64C636A01F00F
:1021A0001F02012494401C400CB1012000E00020DB
:1021B00010BD38B5002000900024002500BF31205C
:1021C000FFF7DBFF05460098401C00900098B0F533
:1021D000A06F01D0002DF2D03120FFF7CEFF08B163
:1021E000012400E00024204638BD01460020A14A19
:1021F000106820F0F80040EAC10010607047A04964
:1022000008607047024600209A4B586820F47C1002
:1022100042EA01031843974B586070479849086693
:10222000704701460020934A506820F0030008439D
:10223000506070478F48406800F00C0070470146BE
:1022400000208C4A506820F0F0000843506070472E
:1022500001460020874A506820F4E060084350603F
:10226000704701460020834A506820F4605040EADD
:10227000C1005060704729B17E4A527A02437D4BBB
:102280005A7204E07B4A527A82437A4B5A72704700
:102290007B49D8310860704701460020754A506874
:1022A00020F440400843506070470021714A2032BA
:1022B0001170704A82F82010012802D004280AD137
:1022C00004E001216B4A2032117005E00521694AC2
:1022D0002032117000E000BF00BF704769490860FC
:1022E00070476449096A0143624A1162704765494F
:1022F00044390860704730B50021002200240023D3
:102300005C4D6D6805F00C0121B1042905D0082948
:1023100023D105E05C4D056022E05B4D05601FE0C8
:10232000544D6D6805F47012524D6D6805F480349B
:10233000022505EB92421CB9544D554305600BE054
:102340004C4D6D6805F400351DB1504D5543056089
:1023500002E04D4D5543056002E04B4D056000BF66
:1023600000BF444D6D6805F0F0010909484D6B5CF4
:102370000568DD4045603F4D6D6805F4E061090A80
:10238000434D6B5C4568DD4085603A4D6D6805F4F2
:102390006051C90A3E4D6B5C4568DD40C560354DF6
:1023A0006D6805F44041890B3A4D6B5CC568B5FB1F
:1023B000F3F5056130BD29B12E4A526902432D4B18
:1023C0005A6104E02B4A526982432A4B5A61704792
:1023D00029B1284A92690243264B9A6104E0254AB2
:1023E00092698243234B9A61704729B1214AD2698D
:1023F0000243204BDA6104E01E4AD26982431D4B3E
:10240000DA61704729B11B4AD2680243194BDA607E
:1024100004E0184AD2688243164BDA60704729B14B
:10242000144A12690243134B1A6104E0114A1269FB
:102430008243104B1A617047124940390860704757
:102440000F49C86470470B49C87170470948406A12
:1024500040F0807007494862704701460020054AF5
:1024600092680A400AB1012000E00020704701494B
:1024700088727047001002400000FFF8FFFFF6FE70
:10248000000042428004424200127A0000093D00EE
:10249000C60C0020D60C002010B50446FE4884422D
:1024A00008D10121C014FFF7ADFF0021E014FFF7B0
:1024B000A9FFC4E0B4F1804F08D101210846FFF71D
:1024C000AEFF00210120FFF7AAFFB8E0F3488442E5
:1024D00008D101210220FFF7A2FF00210220FFF70F
:1024E0009EFFACE0EE48844208D101210420FFF7B2
:1024F00096FF00210420FFF792FFA0E0E948844204
:1025000008D101210820FFF78AFF00210820FFF7EA
:1025100086FF94E0E448844208D101211020FFF7AF
:102520007EFF00211020FFF77AFF88E0DF48844219
:1025300008D101212020FFF772FF00212020FFF7A2
:102540006EFF7CE0DA48844208D101214014FFF795
:1025500059FF00216014FFF755FF70E0D548844211
:1025600009D10121C804FFF74DFF00214FF40020DD
:10257000FFF748FF63E0D048844209D101210805F4
:10258000FFF740FF00214FF48010FFF73BFF56E0BC
:10259000CA48844209D101214805FFF733FF0021D1
:1025A0004FF40010FFF72EFF49E0C548844208D1E0
:1025B00001214020FFF733FF00214020FFF72FFFCC
:1025C0003DE0C048844208D101218020FFF727FF69
:1025D00000218020FFF723FF31E0BB48844208D16F
:1025E00001218015FFF71BFF0021A015FFF717FF42
:1025F00025E0B648844209D101210804FFF702FF13
:1026000000214FF48030FFF7FDFE18E0B04884420F
:1026100009D101214804FFF7F5FE00214FF40030F5
:10262000FFF7F0FE0BE0AB48844208D1012188049B
:10263000FFF7E8FE00214FF48020FFF7E3FE10BD16
:1026400000220288944B98420ED0994B98420BD0AE
:10265000B0F1804F08D0914B984205D0904B9842F2
:1026600002D0904B984204D14FF68F731A404B889A
:102670001A438D4B984207D08C4B984204D04FF6AA
:10268000FF431A40CB881A4302808B8883850B88CE
:102690000385814B98420BD0854B984208D08B4BD9
:1026A000984205D08A4B984202D08A4B984201D179
:1026B0000B7A038601238382704770B500240022C1
:1026C0000023058C4FF6FE7635400584028C838806
:1026D000048B4FF68F752C40B51E2C400D882C4373
:1026E000751E2A400D892A434D882A436A4DA84207
:1026F0000BD06F4DA84208D0744DA84205D0744D40
:10270000A84202D0734DA84213D14FF6F7752A4064
:102710004D892A434FF6FB752A408D882A434FF690
:10272000FF652B404FF6FF552B408D892B43CD89FC
:102730002B4383800483CD888586028470BD70B569
:10274000002400220023058C4FF6EF7635400584E7
:10275000028C8388048B48F6FF752C404FF6FF45AA
:102760002C400D884FF6FF7606EA05252C434FF6E0
:10277000DF752A400D8906EA05152A434D8806EAC9
:1027800005152A43444DA84202D0494DA8421DD107
:102790004FF67F752A404D894FF6FF7606EA0515FC
:1027A0002A434FF6BF752A408D8806EA05152A434D
:1027B0004FF6FF352B404FF2FF752B408D8906EA0F
:1027C00085052B43CD8906EA85052B438380048349
:1027D000CD880587028470BD70B5002400220023D7
:1027E000058C4FF6FF6635400584028C8388848B08
:1027F0004FF68F752C404FF6FC752C400D882C43FE
:102800004FF6FF552A400D894FF6FF7606EA05255B
:102810002A434D8806EA05252A431F4DA84202D0C7
:10282000234DA8421DD14FF2FF752A404D894FF626
:10283000FF7606EA05252A434FF6FF352A408D88A4
:1028400006EA05252A434EF6FF752B404DF6FF7527
:102850002B408D8906EA05152B43CD8906EA05151F
:102860002B4383808483CD888587028470BD70B5B7
:10287000002200230024058C4EF6FF7635400584A7
:10288000038C8488828B48F6FF752A404FF6FF45FB
:102890002A400D8820E00000002C01400004004088
:1028A00000080040000C00400010004000140040F0
:1028B00000340140004C01400050014000540140F0
:1028C00000180040001C0040002000400040014073
:1028D00000440140004801404FF6FF7606EA052516
:1028E0002A434DF6FF752B400D8906EA05352B432B
:1028F0004D8806EA05352B43FA4DA84202D0FA4D21
:10290000A84208D14BF6FF752C408D894FF6FF7613
:1029100006EA85152C4384808283CD88A0F8405038
:10292000038470BD828B4FF2FF331A408283828B07
:102930004FF6FF7303EA01231A4382837047F0B511
:102940000C461546002200210026078C4EF6FF7C1F
:1029500007EA0C070784828B018C4FF6FF7707EAA2
:10296000043640F6FF473A404FF6FF7707EA05275F
:102970003A434FF6FF7707EA03373A43D94FB84255
:102980000ED0D94FB8420BD0B0F1804F08D0D74FFE
:10299000B84205D0D64FB84202D0D64FB84206D181
:1029A0004DF6FF77394046F48057394305E047F646
:1029B000FF57394044F48057394382830184F0BD86
:1029C000828B4FF6F3731A408283828B0A43828391
:1029D0007047F0B50C461546002200210026078CF2
:1029E0004FF6FF6C07EA0C070784828B018C4FF6C9
:1029F000FF7707EA04264FF60C773A404FF6FF7749
:102A000007EA03172F433A43B64FB8420ED0B64FEA
:102A1000B8420BD0B0F1804F08D0B44FB84205D0C7
:102A2000B34FB84202D0B34FB84206D14FF6FF576A
:102A3000394046F48077394305E04FF2FF5739407B
:102A400044F48077394382830184F0BD028B4FF2D6
:102A5000FF331A400283028B4FF6FF7303EA012310
:102A60001A4302837047F0B50C4615460022002138
:102A70000026078C4FF6EF7C07EA0C070784028BD1
:102A8000018C4FF6FF7707EA041640F6FF473A40FD
:102A90004FF6FF7707EA03373A434FF6FF7707EA27
:102AA00005273A438F4FB8420ED08F4FB8420BD014
:102AB000B0F1804F08D08D4FB84205D08C4FB8424E
:102AC00002D08C4FB84206D14FF6DF77394046F03E
:102AD0001007394305E04FF65F77394044F010079F
:102AE000394302830184F0BD028B4FF6F3731A4021
:102AF0000283028B0A4302837047F0B50C461546E9
:102B000000220021068C4FF6FE773E400684028BA1
:102B1000018C4FF60C7632407E1C06EA03162E43DB
:102B20003243704EB0420ED06F4EB0420BD0B0F177
:102B3000804F08D06D4EB04205D06D4EB04202D0ED
:102B40006C4EB04206D14FF6FD76314044F001069E
:102B5000314305E04FF6F576314044F0010631434C
:102B600002830184F0BD70B505460C465D48854280
:102B70000ED05D4885420BD0B5F1804F08D05B4840
:102B8000854205D05A48854202D05A48854200D134
:102B900000E000BF208850B92389A28861882846B8
:102BA000FFF7ABFFE1882846FFF79EFF25E020886E
:102BB00004280AD12389A28861882846FFF753FF99
:102BC000E1882846FFF742FF17E0208808280AD14D
:102BD0002389A28861882846FFF7FBFEE188284602
:102BE000FFF7EEFE09E02389A28861882846FFF7F7
:102BF000A6FEE1882846FFF795FE70BD2DE9F0415D
:102C000005460C4600260127608808B9022600E028
:102C10000026A088012801D1022700E00127208892
:102C2000A0B92389A28861882846FFF766FFE1885A
:102C30002846FFF759FF23893A4631462846FFF7D1
:102C400012FFE1882846FFF701FF13E02389A288DD
:102C500061882846FFF707FFE1882846FFF7F6FE60
:102C600023893A4631462846FFF747FFE188284640
:102C7000FFF73AFFBDE8F0810A884B881A438B883A
:102C80001A43CB881A430B891A434B891A438B8901
:102C90001A43A0F8442070474FF6FF71818000214D
:102CA0000180C18041800172704700210180418014
:102CB0008180C180018141818181C1817047002172
:102CC00001804180012181800021C1800181704704
:102CD0000021018041808180C18001814181818109
:102CE00070470000002C0140003401400004004007
:102CF00000080040000C004021B1028842F00102AF
:102D0000028004E002884FF6FE731A40028070478A
:102D100031B1B0F8442042F40042A0F8442005E06C
:102D2000B0F84420C2F30E02A0F8442070471AB154
:102D300083890B43838102E083898B4383817047BE
:102D40008182704741EA0203A0F8483070471AB107
:102D500083890B43838102E083898B43838170479E
:102D600001894FF6F8721140018170470A4600212F
:102D700001894FF68F73194011430181704730B5B7
:102D800004460D4629462046FFF7F0FF208940F013
:102D90000700208130BD2DE9F04104460D4616465E
:102DA0001F46602D06D13B46012231462046FFF7E3
:102DB0005AFE05E03B46012231462046FFF79DFEC4
:102DC00029462046FFF7D2FF208940F007002081E6
:102DD000BDE8F08130B50C4600210189C9B24FF63B
:102DE000FF7505EA0325154325432943018130BDBD
:102DF0002DE9F04105460E46174698460024434605
:102E00003A4631462846FFF7E5FF2C894FF6F87021
:102E1000044044F007044FF68F70044044F07004FF
:102E20002C81BDE8F081F0B504460D4616461F46DC
:102E30003B46324629462046FFF7CCFF208940F426
:102E400080402081F0BD0185828270470A460021C2
:102E500001884FF68F731940114301807047F0B518
:102E60000C4615461E460021002200230189028BD4
:102E7000038C4FF6F877394021434FF6FC473A4030
:102E800040F201173A434FF6DD773B404FF6FF77AC
:102E900007EA06172F433B43018102830384F0BDF9
:102EA0000A460021018B4FF68F73194011430183AD
:102EB00070470A460021018B48F6FF7319404FF610
:102EC000FF7303EA02231943018370470A46002176
:102ED000818B4FF68F7319401143818370470A46E7
:102EE0000021818B48F6FF7319404FF6FF7303EA08
:102EF000022319438183704721B1028842F0800286
:102F0000028004E002884FF67F731A400280704707
:102F100021B1828842F00402828004E082884FF668
:102F2000FB731A408280704721B1828842F0080208
:102F3000828004E082884FF6F7731A4082807047DF
:102F400021B1828842F00102828004E082884FF63B
:102F5000FE731A40828070470A460021018B4FF6AB
:102F6000F77319401143018370470A460021018B12
:102F70004FF2FF7319404FF6FF7303EA0223194320
:102F8000018370470A460021818B4FF6F773194081
:102F90001143818370470A460021818B4FF2FF73F2
:102FA00019404FF6FF7303EA0223194381837047E8
:102FB0000A460021018B4FF6FB7319401143018330
:102FC00070470A460021018B4FF6FF3319404FF638
:102FD000FF7303EA02231943018370470A46002165
:102FE000818B4FF6FB7319401143818370470A466A
:102FF0000021818B4FF6FF3319404FF6FF7303EA30
:1030000002231943818370470A460021018B4FF642
:103010007F7319401143018370470A460021018BD9
:10302000C1F30E014FF6FF7303EA02231943018334
:1030300070470A460021818B4FF67F731940114378
:10304000818370470A460021818BC1F30E014FF640
:10305000FF7303EA02231943818370470A46002164
:10306000018C4FF6FD7319401143018470470A46E5
:103070000021018C4FF6F77319401143018470470A
:103080000A460021018C4FF6DF7319404FF6FF739B
:1030900003EA02131943018470470A460021018C98
:1030A0004FF67F7319404FF6FF7303EA021319437B
:1030B000018470470A460021018C4FF6FF531940E6
:1030C0004FF6FF7303EA02231943018470470A464F
:1030D0000021018C4FF2FF7319404FF6FF7303EA92
:1030E00002231943018470470A460021018C4DF6E2
:1030F000FF7319404FF6FF7303EA0233194301844B
:10310000704730B5002301248C40A3B2048C9C434B
:103110000484048C02FA01F5ADB22C43048430BD62
:1031200030B5002304248C40A3B2048C9C43048457
:10313000048C02FA01F5ADB22C43048430BD70B5A5
:103140000346002000241846183001258D40ACB2FB
:103150001D8CA5431D8409B1082909D100EB61002C
:10316000056825F0700505600568154305600EE0EB
:103170000D1FC5F34E052844056825F4E04505609C
:1031800005684FF6FF7606EA02263543056070BDF6
:1031900021B1028842F00202028004E002884FF668
:1031A000FD731A400280704721B1028842F0040288
:1031B000028004E002884FF6FB731A4002807047D9
:1031C00021B1828842F08002828004E082884FF63A
:1031D0007F731A408280704702884FF6F7731A4057
:1031E000028002880A430280704782884FF68F73FC
:1031F0001A40828082880A438280704702894FF693
:10320000F8731A40028102890A43028170470289D9
:103210004FF67F731A40028102890A430281704788
:103220008184704781857047818670470187704728
:1032300081877047A0F84010704702884FF6FF431F
:103240001A40028002880A43028070470146888E35
:1032500070470146088F70470146888F70470146C6
:10326000B1F8400070470146888C70470146088DD0
:10327000704702460020138A0B400BB1012000E08A
:1032800000207047CA430282704730B502460020D2
:1032900000230024158A05EA0103958905EA010443
:1032A00013B10CB1012000E0002030BDCA430282FE
:1032B0007047000010B50446FB48844209D1012143
:1032C0008803FFF79FF800214FF48040FFF79AF83A
:1032D00032E0F648844209D101214804FFF79FF803
:1032E00000214FF40030FFF79AF825E0F0488442BF
:1032F00009D101218804FFF792F800214FF48020C2
:10330000FFF78DF818E0EB48844209D10121C80489
:10331000FFF785F800214FF40020FFF780F80BE05D
:10332000E548844208D101210805FFF778F800211B
:103330004FF48010FFF773F810BD2DE9F04786B009
:1033400005460E460024A24600BFA1460027B089CC
:1033500000B100BF2F462C8A4CF6FF700440F08865
:1033600004432C82AC894EF6F3100440B0883189B6
:103370000843718908430443AC81AC8A4FF6FF408F
:103380000440B0890443AC8201A8FEF7B4FFC648EC
:10339000874202D1DDF810A001E0DDF80CA0A88979
:1033A00000F4004040B10AEBCA0000EB0A1031689B
:1033B0004900B0FBF1F807E00AEBCA0000EB0A1085
:1033C00031688900B0FBF1F86420B8FBF0F004012B
:1033D0002009642101FB1089A88900F4004040B154
:1033E000322000EBC900B0FBF1F000F0070004430D
:1033F00008E0322000EB09106421B0FBF1F000F08E
:103400000F0004432C8106B0BDE8F0874FF416513D
:10341000016000218180C18001810C214181002156
:103420008181704710B502460020108A4FF2FF03D9
:1034300018400B884C8823438C882343CC88234333
:103440001843108210BD0021018041808180C1801D
:10345000704721B1828942F40052828104E082895E
:103460004DF6FF731A4082817047F0B50346002481
:1034700000260025002040F66A17B94200D100BF9F
:103480001846C1F3421401F01F06012707FA06F59A
:10349000012C01D10C3004E0022C01D1103000E0ED
:1034A00014301AB107682F43076002E00768AF4382
:1034B0000760F0BD1AB1838A0B43838202E0838ADE
:1034C0008B4383827047028A4FF6F0731A40028260
:1034D000028A0A430282704782894FF2FF731A40C0
:1034E000828182890A438281704721B1828942F0B8
:1034F0000202828104E082894FF6FD731A408281C4
:103500007047028A4FF6DF731A400282028A0A432A
:103510000282704721B1028A42F48042028204E0B2
:10352000028A4BF6FF731A4002827047C1F3080209
:103530008280704701468888C0F3080070478189FF
:1035400041F0010181817047028BD2B20283028B6C
:1035500042EA012202837047028B02F47F42028317
:10356000028B0A430283704721B1828A42F0200213
:10357000828204E0828A4FF6DF731A4082827047AB
:1035800021B1828A42F01002828204E0828A4FF6E0
:10359000EF731A408282704721B1828A42F008029A
:1035A000828204E0828A4FF6F7731A408282704763
:1035B00021B1828942F40042828103E08289C2F310
:1035C0000E028281704721B1828A42F400628282B7
:1035D00004E0828A4FF2FF731A4082827047828A27
:1035E0004FF6FB731A408282828A0A4382827047B6
:1035F00021B1828A42F00202828204E0828A4FF67E
:10360000FD731A408282704702460020B1F5007FA8
:1036100000D100BF13880B400BB1012000E0002057
:10362000704701F40072B2F5007F00D100BFCA43B9
:103630000280704770B50246002400230025002058
:1036400040F66A16B14200D100BFC1F3421501F045
:103650001F03012606FA03F3012D02D19689334098
:1036600006E0022D02D1168A334001E0968A3340EB
:103670000C12012606FA04F41688344013B10CB17A
:10368000012000E0002070BD10B50022002340F6AC
:103690006A14A14200D100BF0A1201249440A3B2CF
:1036A000DC43048010BD00000038014000440040AD
:1036B00000480040004C0040005000400CB5002085
:1036C000019000906D48006840F480306B490860BC
:1036D00000BF6A48006800F4003000900198401C68
:1036E0000190009818B90198B0F5A06FF1D1634826
:1036F000006800F4003010B10120009001E00020CB
:1037000000900098012843D15D48006840F0100007
:103710005B4908600846006820F00300086008461E
:10372000006840F00200086054484068534948600F
:103730000846406848600846406840F48060486039
:103740000846406820F47C1048600846406840F411
:10375000E81048600846006840F08070086000BFCC
:103760004648006800F000700028F9D043484068DF
:1037700020F00300414948600846406840F00200DC
:10378000486000BF3D48406800F00C000828F9D1AF
:103790000CBD10B5FFF792FF10BD10B5FDF7D7FFB8
:1037A0003648006840F00100344908600846406827
:1037B00034490840314948600846006832490840A9
:1037C0002E4908600846006820F4802008600846FA
:1037D000406820F4FE0048604FF41F008860FFF747
:1037E000D8FF4FF000602949086010BD10B50021D6
:1037F00000200022214B5B6803F00C0121B1042959
:1038000006D0082928D107E0214B224C236027E06D
:103810001F4B204C236023E0184B5B6803F47010AF
:10382000164B5B6803F48032022303EB904022B90D
:10383000194B4343174C23600DE0104B5B6803F4B6
:10384000003323B1144B4343124C236003E0104B6D
:103850004343104C236003E00D4B0E4C236000BF2C
:1038600000BF064B5B68C3F303130C4CE15C094BD0
:103870001B68CB40074C236010BD000000100240C5
:10388000002002400000FFF8FFFFF6FE08ED00E018
:1038900000127A00DC0C002000093D00E00C002042
:1038A0000948804709480047FEE7FEE7FEE7FEE7D4
:1038B000FEE7FEE7FEE7FEE7FEE7FEE70448054910
:1038C000054A064B704700009B370008310100088D
:1038D00078590020787900207869002078690020E4
:1038E0004FF0E021096921F004014FF0E02211615D
:1038F000C21700EB5272C2F3C702234B1A7019466B
:10390000097801EB4102C2EBC1114FF6FF7202EAE6
:10391000C1011E4A1180704701461C4A12884A4361
:103920004FF0E0235A6100229A6101221A6100BF20
:103930004FF0E022106900F001021AB100F4803269
:10394000002AF5D000224FF0E0231A619A617047F7
:1039500001460D4A12784A434FF0E0235A61002293
:103960009A6101221A6100BF4FF0E022106900F055
:1039700001021AB100F48032002AF5D000224FF083
:10398000E0231A619A617047F00C0020F20C0020CD
:1039900010B504462CB90120F649096808820020B8
:1039A00010BDF549096808688047F24800680A3088
:1039B000F6E710B5EF480068C078F04949788842CA
:1039C00013DCEC480068807878B9EA4800688088A1
:1039D00058B9E8480068C078E64909688872E6493D
:1039E000096848688047002010BD0220FCE710B538
:1039F00004462CB90120DF4909680882002010BD67
:103A0000DD49096888688047DA4800680C30F6E7C5
:103A100010B5D84B1B68D978D64B1B685879D84B52
:103A20001B689A6990470446D2480068807AE8B1DA
:103A30003CB9D0480068007918B9CE480068807851
:103A400008B1022010BD8CB9CB490968C86880470D
:103A5000C84800684079C7490968C872C548006805
:103A6000C078C449096808730020EBE70220E9E741
:103A700010B504462CB90220BE490968088200200E
:103A800010BD0020BF490880BA480068007800F0E7
:103A90007F0018BBB7490968487A00F0200131B1AE
:103AA000B849097841F00201B64A117005E0B549FC
:103AB000097801F0FD01B34A117000F0400131B105
:103AC000B049097841F00101AE4A117005E0AD49F5
:103AD000097801F0FE01AB4A11703AE0A548006890
:103AE000007800F07F00012801D1A648C8E7A1486E
:103AF0000068007800F07F00022828D19D4A1268F3
:103B0000517901F00F0001F080027AB19E4B03EB76
:103B10008002D2F8002C02F03002102A16D1994A05
:103B2000127842F00102974B1A700FE0964B03EBAC
:103B30008002D2F8002C02F44052B2F5805F05D129
:103B4000904A127842F001028E4B1A7001E0002078
:103B500096E789490968086980478A4890E72DE90E
:103B6000F04784480068007800F07F08B8F1000F43
:103B70000AD180480068407A00F0DF007D4909687A
:103B800048720020BDE8F087B8F1020F7ED1794875
:103B90000068408818B977480068007908B10220A9
:103BA000F0E7DFF8D89173480068477927F080057F
:103BB0002C4670480068407900F0800038B17249A6
:103BC00001EB8400D0F8000C00F0300606E06E49EE
:103BD00001EB8400D0F8000C00F4405699F8000086
:103BE000A84204D91EB163480068807A08B902204F
:103BF000C8E707F0800080B1634901EB8400D0F88A
:103C0000000C00F0300010284BD1E0B201F01DF89C
:103C1000E0B2302100F09FFE43E05B4901EB8400FD
:103C2000D0F8000C00F44050B0F5805F39D1E4B911
:103C3000564A92F82C10E0B201F091F8524A02EB89
:103C40008401D1F8001C4BF68F7201EA020080F467
:103C5000805080F4005040F4004141F080014A4B14
:103C600003EB8402C2F8001C1BE0E0B200F0D5FFB9
:103C7000454A02EB8401D1F8001C4BF68F7201EA31
:103C8000020080F4805080F4005000E00FE040F427
:103C9000004141F080013C4B03EB8402C2F8001C60
:103CA00000BF354909684869804700206AE700BFBE
:103CB000022067E72DE9F0412E480068467926F09A
:103CC00080073C462B480068407900F0800038B1FE
:103CD0002D4901EB8400D0F8000C00F0300506E01F
:103CE000294901EB8400D0F8000C00F4405523482A
:103CF0000078A04208D91F480068408820B91DB14B
:103D00001C480068807A10B90220BDE8F08106F0F6
:103D10008000A0B11C4A02EB8401D1F8001C48F6D7
:103D2000BF7201EA020080F0100040F4004141F04F
:103D30008001154B03EB8402C2F8001C14E0124A08
:103D400002EB8401D1F8001C4BF68F7201EA0200ED
:103D500080F4805040F4004141F080010A4B03EBB5
:103D60008402C2F8001C00BF0349096888698047C3
:103D70000020CAE7FC0C0020080D00206C0D00207C
:103D8000000D0020F40C002000500040700D0020B9
:103D900010B5F7480068407A40F02000F4490968FF
:103DA0004872F4490968C8698047002010BD10B501
:103DB0000246EF480068438A32B98888C01AEC4C42
:103DC00024682082002010BD08681844FBE72DE914
:103DD000F041E748006800F110042688A068C0B1EF
:103DE000BEB1A588B54200D93546A8B2A1688847BA
:103DF00007462088401B208060882844608000207F
:103E000000F07FFF8046AAB24146384600F03EFDF2
:103E100000BF208850B14FF44050D749088000219E
:103E2000084600F07AFF3020D44908802088A18815
:103E3000884204DB0320CE490968087218E0208814
:103E4000002804DD0520CA490968087210E02088AE
:103E500070B90620C649096808720021C848006880
:103E600080B2801CC74A42F810103020C349088035
:103E7000BDE8F0812DE9F047BD48006800F110056C
:103E80002E88BB480068077AD6B9042F18D1BE48DF
:103E9000007801280FD10021B948006880B2801C49
:103EA000B84A42F810103020B449088000BF002002
:103EB000B549087003E007271020B049088027E0C3
:103EC000AC88A64201D8042000E002200746B44294
:103ED00000D93446A0B2A96888478046002000F087
:103EE00005FF8146A2B24946404600F0B5FCA1B2AA
:103EF000002000F012FF2888001B288068882044DA
:103F0000688030209D49088000029B49088000BFDE
:103F1000974909680F72BDE8F08770B5022694488A
:103F20000068447892480068007800F07F0000281C
:103F300044D1092C03D1FFF73CFD06465FE0052C78
:103F400014D18B480068C0787F280BDC8848006853
:103F5000807838B986480068808818B98448006835
:103F6000807A08B1082565E0002648E0032C0ED1D0
:103F70007F480068C078012807D17D4800688088A4
:103F800018B9FFF705FF064639E0022637E0012C95
:103F900035D177480068C07801280DD17448006891
:103FA000808848B972480068407A00F0200018B153
:103FB000FFF7D5FD064622E0022620E06C480068A7
:103FC000007800F07F00012805D10B2C17D1FFF7F6
:103FD0001FFD064613E066480068007800F07F0089
:103FE00002280BD1012C03D1FFF7B9FD064606E0EC
:103FF000032C04D1FFF75EFE064600E002264EB118
:10400000E0B2624A1268516988470646032E01D120
:1040100009250FE00EB108250CE0062500215848BF
:10402000006880B2801C574A42F810103020534973
:10403000088000BF4E4909680D7270BD2DE9F84F28
:104040004B48006845780027BA46062D1BD14848E2
:104050000068007800F07F00002813D14449096807
:104060008878012803D149490968CF690AE0022804
:1040700003D1464909680F6A04E0032802D1434985
:1040800009684F6AADE0002D67D139480068408863
:10409000002862D136480068C08802285DD13448C3
:1040A00000680079002858D131480068007800F095
:1040B0007F0030B92E480068808810B9AFF24F6792
:1040C0008FE02B480068007800F07F00012811D1B4
:1040D0002749096848792D4909688A69002190476C
:1040E00000287ED122480068807A002879D0AFF27B
:1040F0007F6776E01E480068007800F07F000228A5
:104100006FD11B480068407900F00F06184800681E
:10411000407900F0700916480068407900F080008E
:1041200038B11B4901EB8600D0F8000C00F03008D4
:1041300006E0174901EB8600D0F8000C00F4405867
:1041400014480078B0424CD9B9F1000F49D1B8F108
:10415000000F46D0AFF2E76743E0082D1CD10448BA
:104160000068007800F07F00D8BBAFF2DB7738E062
:10417000FC0C0020080D00200C0D00200E0D00206E
:10418000505C004000600040F60C0020000D002054
:10419000005000406C0D00200A2D22D1C548006857
:1041A000007800F07F0001281BD1C2480068807AA7
:1041B000B8B1C0480068408898B9BE480068007926
:1041C00078B9BC480068C08801280AD1B949096893
:1041D0004879B94909688A690021904708B9AFF25E
:1041E000F17757B1B3480068A0F812A0B148006851
:1041F00087610020B84700240FE0AE4A126850786B
:10420000AD4A1268116988470446032C05D109207C
:10421000A84909680872BDE8F88FA6480068008AB6
:104220004FF6FF71884204D10920A249096808723B
:10423000F1E7022C03D09F480068008A20B90820CB
:104240009C4909680872E6E79A480068007800F01F
:104250008000E0B397480068C088009095480068E7
:10426000008A0099884204D9924900980968088216
:1042700023E090480068008A8E490968C98888420E
:104280001BDA8C480068008A8B49096891F82C1069
:10429000884203DA0020894908700EE085480068EA
:1042A000008A8549096891F82C1090FBF1F201FB16
:1042B000120010B90120814908707F48006890F809
:1042C0002C107C4800688182FFF7D4FD07E0FFE7EF
:1042D000032078490968087200037949088000BF03
:1042E00099E710B5774890F82C10002000F037FDC2
:1042F00070480068007A082805D14002704908809B
:104300001020714908806B480068007A092801D1A3
:10431000012010BD0020FCE738B501246B4800687F
:1043200080B2001D6A4931F8100080B201EB4000F4
:10433000009060480068007A092832D00098007820
:104340005C49096808700098401C0090009800784B
:104350005849096848700098401C0090009800EB8C
:1043600044000090009931F8020B009100F0A0FE8B
:10437000504909684880009800EB4400009000997B
:1043800031F8020B009100F093FE4A4909688880D9
:10439000009800EB440000900098008845490968A7
:1043A000C880012043490968087242480068C088F3
:1043B00010B9FFF7B2FD01E0FFF740FEFFF791FFF4
:1043C00038BD30B50146434B1A78002014E003068F
:1043D000414C04EB9353D3F8003C48F68F742340D0
:1043E00048F280042343C4B2234304063A4D05EB4C
:1043F0009454C4F8003C401C9042E8D341F0800340
:10440000324C241F236030BD10B52A480068047A5E
:10441000022C01D0042C05D1FFF72CFD25480068A3
:10442000047A1CE0062C19D122480068407805283F
:104430000ED120480068007800F07F0040B91D4987
:104440000968C878FFF7BDFF24490968086A8047F2
:104450001949096888688047082400E0082415493C
:1044600009680C72FFF73DFF10BD10B511480068D8
:10447000047A022C01D0042C01D1082412E0032C70
:1044800001D0052C05D1FFF7A2FC0A480068047A88
:1044900008E0072C05D108490968C8688047082446
:1044A00000E00824034909680C72FFF71AFF10BDE9
:1044B00070470000FC0C0020000D0020F60C0020CE
:1044C0000C0D0020700D00200E0D0020505C0040EF
:1044D000006000406C0D002000500040080D0020DE
:1044E00010B50848084908600220096808720748A2
:1044F00007490860074808490860054909680868CD
:10450000804710BD80330020FC0C0020700D00207F
:10451000000D0020A00D0020080D002008B500208F
:10452000009022E1C448008800F00F00C3490870E1
:104530000846007800287CD1C1480068C14908803D
:104540000846008800F03000BF490880BD48008858
:1045500000F44050BB490880B94909684BF6BF7266
:1045600001EA020080F4005080F0200040F4004195
:1045700041F08001B24A1160AF48008800F010009D
:1045800090BB1046006848F60F710840114608605D
:10459000FFF73AFFAA4909684BF6BF7201EA020029
:1045A000A849098801F4805109B180F48050A549D7
:1045B000098801F4005109B180F40050A24909882A
:1045C00001F0100109B180F010009F49098801F045
:1045D000200109B180F0200081B241F4004141F096
:1045E0008001974A116008BDFFE79548006880B2D6
:1045F0000090BDF8000000F40060B0B3904800687F
:10460000C0F30E0048F68F7108408D490860FFF72F
:1046100083FE8B4909684BF6BF7201EA02008949A3
:10462000098801F4805109B180F4805085490988D6
:1046300000E056E001F4005109B180F400508249D5
:10464000098801F0100109B180F010007E49098845
:1046500001F0200109B180F0200081B241F4004155
:1046600041F08001764A1160BDE7FFE7BDF8000028
:1046700000F40040002878D071480068C0F30E00B4
:1046800048F68F7108406E490860FFF7EEFE6C49EE
:1046900009684BF6BF7201EA02006A49098801F411
:1046A000805109B180F480506649098801F40051B5
:1046B00009B180F400506449098801F0100109B182
:1046C00080F010006049098801F0200109B180F0F4
:1046D000200081B241F4004141F08001584A11604C
:1046E00081E756480078594901EB8000D0F8000C6A
:1046F00080B20090BDF8000000F40040C0B14F4807
:10470000007801EB8000D0F8000CC0F30E0048F6F2
:104710008F710840494909784C4A02EB8101C1F880
:10472000000C46490978491E494A52F82100804741
:10473000BDF8000000F08000B8B14048007843495F
:1047400001EB8000D0F8000C48F60F7108403B499F
:1047500009783E4A02EB8101C1F8000C374909781B
:10476000491E3C4A52F821008047354844300068D1
:1047700080B23149088000F4004000287FF4D2AEB6
:1047800000BF30E710B500244AE047F6FF702C491F
:10479000443108602848008800F00F00274908705D
:1047A00008460078294901EB8000D0F8000C84B25B
:1047B00004F40040C8B12148007801EB8000D0F833
:1047C000000CC0F30E0048F68F7108401B490978B1
:1047D0001E4A02EB8101C1F8000C18490978491EF4
:1047E0001B4A52F8210080471AE004F08000B8B15B
:1047F00012480078154901EB8000D0F8000C48F60B
:104800000F7108400D490978104A02EB8101C1F887
:10481000000C0A490978491E0E4A52F821008047C7
:1048200007484430006880B20349088000F4004023
:104830000028AAD110BD00002C0D0020F80C00208B
:10484000005C00400C0D00200E0D002000500040C8
:104850004C0D0020300D0020F0B5144604F1010C81
:104860004FEA6C07DFF848C00CEB41033D460AE015
:104870000678401C90F800C046EA0C2223F8022B70
:104880009B1C401C6D1E002DF2D1F0BDF0B5561CD6
:104890007510074E06EB41042B4605E034F8047B07
:1048A00020F8017B401C5B1E002BF7D1F0BD0000FF
:1048B00000600040FA4908607047F948006880B21B
:1048C0007047F749091D08607047F548001D0068EA
:1048D00080B27047F2480830006880B27047F049F3
:1048E0000C3108607047EE480C30006880B27047A9
:1048F0004FF6F8710140EA4A103211607047E848FB
:104900001030006880B27047E64B03EB8002C2F8BB
:10491000001C70470146E34A02EB8100D0F8000C0E
:1049200080B2704710B5DF4B03EB8002D2F8002C49
:1049300048F68F131A400A43DA4C04EB8003C3F89D
:10494000002C10BD0146D74A02EB8100D0F8000CC4
:1049500000F4C060704730B5D24C04EB8003D3F84C
:10496000003C48F6BF7403EA040201F010030BB1E7
:1049700082F0100201F020030BB182F0200242F419
:10498000004343F08003C74D05EB8004C4F8003CAE
:1049900030BD30B5C34C04EB8003D3F8003C4BF67C
:1049A0008F7403EA040201F480530BB182F4805245
:1049B00001F400530BB182F4005242F4004343F07F
:1049C0008003B84D05EB8004C4F8003C30BD30B521
:1049D00003460C461846FFF79DFF0546012C07D1FC
:1049E00025F48050AF4A02EB8301C1F8000C08E0C7
:1049F000022C06D125F01000AA4A02EB8301C1F86F
:104A0000000C30BD0146A74A02EB8100D0F8000C33
:104A100000F0300070470146A24A02EB8100D0F856
:104A2000000C00F44050704710B59E4B03EB800221
:104A3000D2F8002C48F6BF7302EA030181F010019E
:104A400081F0200141F4004242F08002954C04EBD9
:104A50008003C3F8002C10BD10B5924B03EB80020D
:104A6000D2F8002C4BF68F7302EA030181F48051D7
:104A700081F4005141F4004242F08002894C04EB81
:104A80008003C3F8002C10BD864A02EB8001D1F8E8
:104A9000001C41F4807148F68F72114048F2800288
:104AA0001143804B03EB8002C2F8001C70477D4A23
:104AB00002EB8001D1F8001C48F68F62114048F2E9
:104AC00080021143774B03EB8002C2F8001C704751
:104AD000744A02EB8001D1F8001C48F68F62114045
:104AE00048F2800211436F4B03EB8002C2F8001CB6
:104AF00070476C4A02EB8001D1F8001C41F48071D0
:104B000048F68F72114048F280021143654B03EB67
:104B10008002C2F8001C7047624A02EB8001D1F8A3
:104B2000001C41F4807148F68F72114048F28002F7
:104B300011435C4B03EB8002C2F8001C7047594ADA
:104B400002EB8001D1F8001C48F68F62114048F258
:104B500080021143534B03EB8002C2F8001C7047E4
:104B60000146504A02EB8100D0F8000C00F0300002
:104B7000102801D1012070470020FCE70146494A76
:104B800002EB8100D0F8000C00F44050B0F5805FDB
:104B900001D1012070470020FCE7424A02EB80016E
:104BA000D1F8001CC1F30E0148F68F7211403D4B45
:104BB00003EB8002C2F8001C70473A4A02EB800106
:104BC000D1F8001C48F60F721140364B03EB8002FF
:104BD000C2F8001C7047334A02EB8001D1F8001C78
:104BE00048F68F7211404CF2800211432D4B03EBBB
:104BF0008002C2F8001C70472A4A02EB8001D1F8FB
:104C0000001C48F68F72114048F2C0021143254B38
:104C100003EB8002C2F8001C7047224A02EB8001BD
:104C2000D1F8001C01F4804171B102EB8001D1F890
:104C3000001C48F68F7211404CF280021143194B50
:104C400003EB8002C2F8001C7047164A02EB800199
:104C5000D1F8001C01F0400171B102EB8001D1F8E4
:104C6000001C48F68F72114048F2C00211430D4BF0
:104C700003EB8002C2F8001C704710B5094B03EB30
:104C80008002D2F8002C48F68F731A4048F2800355
:104C90001A430A43034C04EB8003C3F8002C10BDF5
:104CA000405C0040005000400146FC4A02EB81009D
:104CB000D0F8000C00F00F00704710B54A105200F9
:104CC000F74B1B689BB203EBC003F64C44F8132070
:104CD00010BD10B54A105300F14A126892B202EBAF
:104CE000C002121DEF4C44F8123010BD0146EC48D2
:104CF000006880B200EBC100EA4A32F8100080B2CE
:104D000070470146E648006880B200EBC100001D14
:104D1000E44A32F8100080B27047E14A126892B259
:104D200002EBC002921CDF4B43F8121070470246A0
:104D30003E290BDD481101F01F030BB9431E98B249
:104D40004FF4004343EA8023136007E0481001F06A
:104D500001030BB1431C98B283021360704710B576
:104D60000246CF48006880B200EBC200801DCD4CE7
:104D700004EB40033E290BDD481101F01F040CB980
:104D8000441EA0B24FF4004444EA80241C6007E0B3
:104D9000481001F001040CB1441CA0B284021C6054
:104DA00010BD0146BE48006880B200EBC100801C07
:104DB000BC4A32F81000C0F3090070470146B848F9
:104DC000006880B200EBC100801DB64A32F81000C6
:104DD000C0F30900704730B54B105B00B04C24683D
:104DE000A4B204EBC004AF4D45F8143053105C007E
:104DF000AB4B1B689BB203EBC0031B1D45F8134074
:104E000030BD10B54A105200A54B1B689BB203EB96
:104E1000C003A44C44F8132010BD10B54A10530031
:104E20009F4A126892B202EBC002121D9D4C44F8D8
:104E3000123010BD01469A48006880B200EBC100F4
:104E4000984A32F8100080B27047014694480068D2
:104E500080B200EBC100001D924A32F8100080B20F
:104E6000704730B50B46012B1FD18D49096889B2B7
:104E700001EBC001891C8B4D05EB41043E2A0BDD83
:104E8000511102F01F050DB94D1EA9B24FF4004596
:104E900045EA8125256007E0511002F001050DB1BA
:104EA0004D1CA9B28D0225600AE0022B08D17C4975
:104EB000096889B201EBC001891C7A4C44F81120C1
:104EC000012B1FD17649096889B201EBC001891D08
:104ED000744D05EB41043E2A0BDD511102F01F0514
:104EE0000DB94D1EA9B24FF4004545EA8125256054
:104EF00007E0511002F001050DB14D1CA9B28D0261
:104F000025600AE0022B08D16549096889B201EBE6
:104F1000C001891D634C44F8112030BD30B50346F3
:104F200001291FD15E48006880B200EBC300801CDD
:104F30005C4D05EB40043E2A0BDD501102F01F05CD
:104F40000DB9451EA8B24FF4004545EA80252560FD
:104F500007E0501002F001050DB1451CA8B2850212
:104F600025600AE0022908D14D48006880B200EBB4
:104F7000C300801C4B4C44F8102030BD30B50346B4
:104F800001291FD14648006880B200EBC300801D94
:104F9000444D05EB40043E2A0BDD501102F01F0585
:104FA0000DB9451EA8B24FF4004545EA802525609D
:104FB00007E0501002F001050DB1451CA8B28502B2
:104FC00025600AE0022908D13548006880B200EB6C
:104FD000C300801D334C44F8102030BD01463048DA
:104FE000006880B200EBC100801C2E4A32F810002D
:104FF000C0F30900704701462948006880B200EB01
:10500000C100801D274A32F81000C0F30900704724
:1050100001462348006880B200EBC100801D214A90
:1050200032F8100000F47C4008B1012070471C48A1
:10503000006880B200EBC100801C1A4A32F81000F0
:10504000C0F3090008B10220F0E70020EEE710B538
:10505000012910D1114B03EB8002D2F8002C48F645
:105060008F731A4048F2C0031A430C4C04EB8003C0
:10507000C3F8002C11E002290FD1084B03EB80028A
:10508000D2F8002C48F68F731A404CF280031A4372
:10509000024C04EB8003C3F8002C10BD005000400C
:1050A000505C004000600040024641EA0220704728
:1050B0000146CAB20B1243EA0220704700201D4984
:1050C00008604FF43F401C49088008460088194991
:1050D000091F0860002070472DE9F04104460E4684
:1050E000154604F07F00FFF701FE0746AAB23946D5
:1050F0003046FFF7B1FBA9B204F07F00FFF70DFEC9
:105100000020BDE8F0812DE9F04104460E4600255F
:1051100004F07F00FFF752FE054604F07F00FFF722
:10512000F0FD07462A4639463046FFF7AFFB2846D2
:10513000BDE8F081445C0040060D002010B5002061
:10514000FDF7A6F80121C805FDF74FF910BD70471E
:105150007047704708B514208DF8000000208DF8C6
:1051600001008DF8020001208DF803006846FCF76D
:1051700038F908BD08B50420ADF8000003208DF80B
:10518000020010208DF8030069462248FCF7FEFD5E
:1051900008BD10B5044624B104211E48FCF7A3FE47
:1051A00003E004211B48FCF7A0FE10BD30B50B4600
:1051B000002100BF16E00A24B4EB107F05D930248B
:1051C00004EB107403F8114005E0412404EB107463
:1051D0000A3C03F81140000100254C00641C1D55D9
:1051E0004C1CE1B29142E6DB30BD70B50A48046860
:1051F000001D0568001D0668344454B108220749A3
:105200002046FFF7D3FF0422044910312846FFF758
:10521000CDFF70BD00100140E8F7FF1F120D002008
:10522000704710B50C480D4A127881180120FFF71D
:105230006AFF84B20948007820440849087008468B
:105240000078FF2802D10120054908700120FFF7EE
:1052500003FC10BD704700009C3300202B0D002084
:105260002A0D002010B537480068374908800846E5
:10527000008800F4004035490988084008B1FFF76C
:105280004DF93148008800F48060304909880840B1
:1052900030B14FF6FF302B4908602D4948688047F0
:1052A0002948008800F4005028490988084018B1AE
:1052B0004DF6FF70234908602348008800F48050B1
:1052C00022490988084030B14EF6FF701D49086038
:1052D000002000F0AAF91C48008800F400601B4977
:1052E0000988084060B11B48007810B100F07DF9D2
:1052F00002E0022000F099F94FF2FF7011490860B6
:105300001148008800F4007010490988084040B135
:105310004FF6FF500B4908600F480078401C0E49BB
:1053200008700948008800F480700849098808401E
:1053300030B14FF6FF6003490860072000F075F9AF
:1053400010BD0000445C00402C0D0020060D002024
:10535000700D0020080E00202E0D002010B5FFF764
:1053600044FF002081490968887200F015F9FFF7B1
:10537000A5FE00207E49086010BD10B500207B49C5
:105380000968887279490968C8727A48C07977498A
:10539000096848720020FFF7ABFA4FF40071002053
:1053A000FFF7C0FA10210020FFF7D5FA18210020DE
:1053B000FFF78FFC58210020FFF77FFC0020FFF74C
:1053C00087FB6D4890F82C100020FFF7C8FC0020E8
:1053D000FFF742FB4FF4C0610120FFF7A3FA9821C9
:1053E0000120FFF776FC40210120FFF7B8FC4FF4C5
:1053F00040510120FFF7CDFA4FF4C0610220FFF7C2
:1054000091FA4FF48C710220FFF757FC40210220E3
:10541000FFF783FC20210220FFF79DFA0120544969
:1054200008600020FEF7CDFF01205149086010BD43
:105430005248817A11B105214D4A1160704704200C
:105440004B490860704770477047014629B90120F1
:10545000464A12681082002070474948FCE710B5A0
:10546000044648492046FEF7A2FC10BD10B504468C
:1054700045492046FEF79BFC10BD70B5044600254B
:10548000062C1AD139480068007800F07F00012806
:1054900013D136480068407978B93448006880787C
:1054A000222802D1AFF23B0512E030480068807834
:1054B00021280DD1AFF259050AE02C480068007888
:1054C00000F07F00212803D1032C01D1AFF2850524
:1054D0000DB9022070BD2548006885610021234870
:1054E000006841820020A8470020F3E71F480068B9
:1054F000C178234801600020704700B502461B4870
:105500000068007800F07F00212804D10B2A02D126
:10551000FFF7ECFF00BD0220FCE710B504461B4975
:105520002046FEF744FC10BD10B50446184920463D
:10553000FEF73DFC10BD70B505460C480068C47808
:10554000042C01DD002070BD124800EBC401284688
:10555000FEF72DFCF7E70246002901DD0220704727
:10556000002A01DD0220FAE70020F8E7FC0C002009
:10557000040E0020A58B0008700D00208033002051
:10558000680D0020DC0D0020D40D0020C40D00208B
:10559000CC0D0020E40D002010B50120FFF7F9FD2F
:1055A00001244C48046000204B49088008460088CC
:1055B000484908600020091D08604FF4E050464942
:1055C00008800846008843490860002010BD10B5D7
:1055D0000120404908600020091D0860FFF7D9FD3F
:1055E00003203C490860002010BD10B53948006810
:1055F00084B244F0080437480460006884B244F080
:10560000040434480460FFF7A3FD10BD10B5314811
:10561000006884B224F004042E480460FFF799FD6A
:105620004FF43F402B49086010BD70B50546072D6B
:1056300001D02A48057029480078082841D2DFE8BF
:1056400000F0040A1016212E4142FFF7DFFF06206A
:10565000224908703BE0FFF7D9FF04201F4908707A
:1056600035E002201D494870032008702FE01B48D8
:105670004078401E194948700846407808B904200F
:10568000087024E01348006884B244F01004114804
:1056900004600520114908700A20487017E00F487F
:1056A0004078401E0D4948700846407840B9094886
:1056B000006884B224F010040648046006200870D4
:1056C00005E000BF00BF06200449087000BF00BF0E
:1056D00070BD0000405C0040060D0020090E002057
:1056E00070B505460C46002618E0A81940224FF474
:1056F0008C71FFF7B1F840210220FFF70EFB02206A
:10570000FFF792F906F1400086B2A4F1400084B29E
:1057100000BF0220FFF776F92028FAD1402CE4DC04
:10572000002C12DDA81922464FF48C71FFF794F873
:1057300021460220FFF7F1FA0220FFF775F900BFBA
:105740000220FFF75FF92028FAD170BD70B504463A
:105750000D462078022808D1607830B92079E178A8
:1057600040EA0120C01D164908602A781549164BE9
:105770001B68C818214603F002F928781249096805
:10578000084411490860084600680D4909688842C4
:1057900005D901200D49087000200B490860002040
:1057A00070BD10B50A48007840B10A490A48FFF7B1
:1057B000CDFF0020064908700649087010BD0000A2
:1057C0000C0E0020F4340020100E0020140E0020D7
:1057D0002A0D00202B0D00209C3300201CB5044610
:1057E000012144F20500FCF7F3FDFE48006820F4B7
:1057F0007F60FC4908600846006840F40B60086060
:1058000003208DF802000815ADF8000048208DF83F
:1058100003006946F348001FFCF7B8FA4FF4007024
:10582000ADF8000018208DF803006946ED48001F10
:10583000FCF7ACFA25208DF8040002208DF8060054
:1058400001208DF8070001A8FBF7CBFD4021E648B9
:10585000FDF7E7FE012240F22441E348FDF705FE93
:105860001CBD1CB5044601210520FCF7B1FD01213A
:105870004804FCF7BAFDDB48001F006820F47F40B5
:10588000D849091F08600846006840F40B400860CA
:1058900003208DF802000820ADF8000048208DF8A4
:1058A00003006946CF48001FFCF770FA0420ADF8EA
:1058B000000018208DF803006946CA48001FFCF755
:1058C00065FA26208DF8040002208DF806000120DC
:1058D0008DF8070001A8FBF784FD4021C348FDF7C0
:1058E000A0FE012240F22441C048FDF7BEFD1CBDD0
:1058F0001CB5044601210846FCF76AFD0121880415
:10590000FCF773FD03208DF80200F4B10121202083
:10591000FCF75EFD0121B648FCF709FB4FF400706F
:10592000ADF8000048208DF803006946B148FCF747
:105930002DFA4FF48070ADF8000018208DF80300A8
:105940006946AC48FCF722FA19E001210820FCF76F
:105950003FFD4FF40060ADF8000048208DF80300D3
:105960006946A548FCF712FA4FF48060ADF80000D4
:1059700018208DF8030069469F48FCF707FA272096
:105980008DF8040002208DF8060001208DF8070034
:1059900001A8FBF726FD40219848FDF742FE0122B1
:1059A00040F224419548FDF760FD1CBD7FB50546DA
:1059B0000C4600940020ADF80400ADF80600ADF8E8
:1059C0000800ADF80C000C20ADF80A006946284626
:1059D000FDF7B3FC01212846FDF73BFD7FBD00B577
:1059E0008BB001210846FCF7E6FC8548FBF766FD15
:1059F0007D48001D009083480068C06A0190002027
:105A0000029080480068C08C0390002004908020A1
:105A1000059000200690079008904FF440500990A0
:105A200000200A9069467648FBF7EAFD0121744898
:105A3000FBF711FE72481438FBF740FD6A48001D61
:105A4000009070480068806A019010200290002049
:105A5000039069466A481438FBF7D2FD012240F2F0
:105A600026616148FDF701FD0122C0215E48FDF776
:105A700021FD0BB000BD00B58BB001210846FCF73D
:105A80009AFC5F481430FBF719FD5848001D009040
:105A90005D480068C06A0190002002905A48006882
:105AA000C08C039000200490802005900020069078
:105AB000079008904FF44050099000200A906946E2
:105AC0004F481430FBF79CFD01214D481430FBF783
:105AD000C2FD4B482830FBF7F1FC4448001D009004
