:020000040800F2
:106000007868002001A30008A1630008A3630008CA
:10601000AB630008AF630008B36300080000000032
:10602000000000000000000000000000B76300084E
:10603000B963000800000000BB630008BD630008EE
:106040001BA300081BA30008BF630008CFB401080E
:106050001BA300081BA300081BA300081BA3000828
:106060001BA30008C56400081BA300081BA30008AD
:106070001BA300081BA300081BA300081BA3000808
:106080001BA300081BA300081BA300081BA30008F8
:10609000BD6400081BA300081BA300081BA3000885
:1060A0001BA300082B6400081BA300081BA3000807
:1060B000BB6400081BA300081BA300081BA3000867
:1060C0001BA300081BA300081BA300081BA30008B8
:1060D0001BA30008DD630008DF6300081BA30008A2
:1060E000D56400081BA300081BA300081BA300081D
:1060F0001BA300081BA300081BA300081BA3000888
:106100001BA300081BA300081BA300081BA3000877
:10611000296400081BA300081BA300081BA3000898
:106120001BA300081BA300081BA300081BA3000857
:1061300000F002F800F05AF80AA090E8000C82443F
:106140008344AAF10107DA4501D100F04FF8AFF21C
:10615000090EBAE80F0013F0010F18BFFB1A43F045
:106160000103184744CA010064CA01000A444FF001
:10617000000C10F8013B13F0070408BF10F8014BA6
:106180001D1108BF10F8015B641E05D010F8016BEB
:10619000641E01F8016BF9D113F0080F1EBF10F84F
:1061A000014BAD1C0C1B09D16D1E58BF01F801CB72
:1061B000FAD505E014F8016B01F8016B6D1EF9D5F5
:1061C0009142D6D37047000000230024002500260A
:1061D000103A28BF78C1FBD8520728BF30C148BF4A
:1061E0000B6070471FB51FBD10B510BD17F012FA38
:1061F0001146FFF7F7FF00F0ACF817F030FA03B4E0
:10620000FFF7F2FF03BC17F035FA000010B502F0FB
:1062100069FA4FF4803002F085FA02F0C2FA0446BF
:10622000012C27D1102001F05FFD022001F048FD74
:10623000002002F0FCFA002002F00BFBA00202F0AA
:10624000FFFAE00302F020FB4FF4E011200402F01B
:10625000D1FA012002F0DAFA00BF392002F085FA03
:106260000028FAD0022002F0D4FA00BF02F0DAFAD5
:106270000828FBD14FF4C0414FF0006001F0CDF988
:106280004FF4C06001F092F910BD00BFBFF34F8F13
:106290003C48006800F4E0603B490843001D394970
:1062A0000860BFF34F8F00BF00BFFEE708B5FFF7E0
:1062B000ADFF482005F09EF805F0F4F814F010FF4B
:1062C00011F03AFE12F083F8012011F04AFB05F0BC
:1062D00075FE06F0D7FA12F0C1FD04F098FE04F046
:1062E00019F908F019FE01226946284807F0EEFB6B
:1062F0009DF80000552807D09DF80000AA2803D07B
:10630000002000F048FF06E09DF80000AA2802D017
:10631000012000F040FF012269461C48401C07F0A4
:10632000D5FB9DF8000055280ED09DF80000AA2846
:106330000AD116F0CBFC16F0D5FC16F0E3FC15F0F4
:1063400097FE012001F08FF805F0D0FE17F032F82B
:1063500008BDFF200E4981F86901002081F866011F
:106360000C4908724FF496600B490860FFF79EFFD6
:1063700006E002F03AF900F0DFF8084800F014FDFA
:10638000F7E700000CED00E00000FA0500E003086C
:10639000D43C002004420020000000209C0D00207E
:1063A000704711F09EFB00BFFEE700BFFEE700BF95
:1063B000FEE700BFFEE7704770477047704710B5B3
:1063C00001F0DEFB48B101204D49087001F0DDFB12
:1063D00001F0CDFB002001F08EFB10BD704710B521
:1063E0002021484803F040FEE8B1002240F2255148
:1063F000444803F06AFD4FF48071434817F0BEF83B
:106400004249414804F006FF414908704FF4966044
:1064100040490860012011F0A4FA012240F2255100
:10642000384803F052FD10BD704710B504F0C0FDB0
:10643000394908700121394803F057FC00283BD046
:106440000121364803F062FC35480078A0B10821EC
:10645000344802F006F860B131480078401C3049F9
:106460000870084600780A2806D1012014F058FE6A
:1064700002E000202A4908702648006820B125481B
:106480000068401E234908602748006820B126485C
:106490000068401E244908602448006820B1234851
:1064A0000068401E214908602148006820B120484A
:1064B0000068401E1E49086010BD704710B516F0F8
:1064C00099FC10BD10B5082001F0F1FB0120144922
:1064D000087010BD10B54FF4805001F0D7FB68B1C3
:1064E0004FF4805001F0E3FB012011F03AFA012053
:1064F000104908704FF496600649086010BD00000E
:106500002700002000440040EC0800206400002028
:10651000600000200000002068000020002C0140E6
:10652000E7050020001001400400002008000020C2
:10653000540000206900002070B504F039FD0546C4
:10654000012D14D1FE48007888B10020FC49087064
:106550000721012011F0EEFA0321FAA011F042FE0A
:106560001E20FC490860FF20FB4981F8690106F004
:1065700066F8F848006870B9F74890F86901FF2894
:1065800006D14FF49670F349086005F0AFFD02E0C4
:106590003C20F0490860EF4800680321B0FBF1F2AD
:1065A00001FB1200E8B112F0A4FC0446204611F0F1
:1065B000B1FC14E00721012011F0BCFA0321E7A08F
:1065C00011F010FE4FF47A7004F030FF12F091FCDD
:1065D00004461020E54908700020DE490860002CC0
:1065E000E8D0E3480068B0F5077F07D2DA4890F8B2
:1065F0006901FF2802D1002011F0B3F9DC480068DE
:1066000010B9002014F08CFD70BDF8B5012012F017
:1066100049FB0446FF2C09D1CE480068052804D266
:106620000020D4490870D4490870F8BDCA4890F8D1
:106630006901FF2849D0452C1CD1FF20C64981F8AB
:10664000690105F096FFCD488079032806D1CB4833
:10665000C079042802D113F0DEFA1DE1C748807921
:106660000528FAD1C548C0790328F6D1072013F0D0
:106670003BFF11E1302CF0DB392CEEDCB648407AE0
:106680000128EAD1BE4A511C204614F084FB05467D
:106690003DB905F00CFF14F042FA002013F0BBFAEC
:1066A0000FE0012D05D105F064FF042013F0B3FACB
:1066B00007E0022D05D1032013F0ADFA002005F00C
:1066C000CFFE0020A4494872E6E04F2C07D1AD4828
:1066D000007820B100209F490860AA490870232C47
:1066E0001BD1A5480078C0B9002613E0002012F0A5
:1066F000D9FA0446232C0CD1701CC6B2032E09D142
:1067000005F0B5FF01209C4908706420914908609C
:1067100001E000E0EAE700BFBEE09748007801280A
:106720002FD1312C08D105F0B7FF1E208949086010
:1067300000209149087016E0322C08D102208E49C1
:10674000087005F0C3FF6420824908600BE0332C19
:1067500009D18D48047005F0AFFF64207D490860C1
:10676000032085490870452CAED105F0BFFC4FF4DD
:1067700096707849086000207E4908707E4908704C
:106780008AE07D48007802280CD1322C9CD17E48CA
:10679000047005F091FF64206E490860032076497B
:1067A000087079E074480078032875D1302C14DB28
:1067B000392C12DC75486F49097844546D480078CB
:1067C000C0002830C1B2724B2A22042011F08AFA8C
:1067D00068480078401C67490870664800780628B9
:1067E0004DD10721002011F0A5F90622694967481B
:1067F00016F0FAFD38B1032167A011F0F3FC1E205A
:106800005449086035E0032166A011F0EBFC5E48B6
:106810000078312807D1552000900122694665484B
:1068200007F079F923E058480078322807D1AA20E8
:106830000090012269465F4807F06DF917E0524861
:106840000078332807D1FF200090012269465A487A
:1068500007F061F90BE04C480078342807D1FF209D
:106860000090012269465348401E07F054F900F099
:1068700031FE00203F4908703F49087000BF452C99
:106880000AD105F033FC4FF49670324908600020BD
:10689000384908703849087000BFC6E61FB52E4851
:1068A00090F86901012849D12B48007800F00100D7
:1068B00018B929480078052828D12748807A78B166
:1068C0003E48006860B9032013F0A5F9FF20224973
:1068D00081F86901002005F0C3FD002004B010BD5F
:1068E0002749481C12F017FC04467CB9344801784B
:1068F000344812F026FC044614B905F06CFC05E09F
:106900000920154981F869010020E7E7124800785D
:1069100000F0020018B91048007805286FD110F077
:1069200066FF09F0C8FA2848007840B105F0CDFDAF
:1069300012488079032854D1104847E060E05EE0B7
:1069400069000020C0B6D1C0C1ACBDD3B6CFBFAACC
:106950000000000004000020D43C0020B5E7C1BFC7
:10696000B5CD2CC7EBB3E4B5E70000006000002014
:10697000000000201A00002018000020D408002089
:106980003E3E002010000020190000201B000020C7
:1069900052F1010821000020C3DCC2EBB4EDCEF3BC
:1069A00000000000C7D0BBBBD6D02CC7EBC9D4B504
:1069B000C800000001E00308105E00080800002085
:1069C000590000209907002086000020C079042883
:1069D00007D1052013F01FF9FF20FE4981F8690156
:1069E0000BE0FD488079032807D1FB48C0790628D1
:1069F00003D10220F74981F8690100206EE7D1E157
:106A0000F44890F8690102286ED1F248807A50B1BA
:106A1000F248006838B9072013F066FD002005F041
:106A20001FFD00205AE7EE48EA49D1F8162082619E
:106A3000498B8183E748EB490A68C0F81E228988A0
:106A4000A0F82212002012F04DFB0220E649087047
:106A5000E04890F8671100F509735A1C00F50670BC
:106A600012F08AFB0446012012F03CFBDE4800785D
:106A700001280AD105F03AFBFF20D64981F86901C7
:106A80001020DA490870002028E70CBBD8480078AD
:106A9000D04981F86A0101F26B12511ED448401CA2
:106AA00004F059FDCB4890F86A01401ECC49953955
:106AB000085C3F2806D1C74890F86A01401EC549C6
:106AC00081F86A010920C34981F86901002005E7BE
:106AD000022C94D1FF20BF4981F8690105F011FD16
:106AE000072013F001FD5DE1BA4890F86901032821
:106AF0004CD105F061FDB74890F86701BD49C870F9
:106B0000B44890F82604C01D0871B24890F8680196
:106B100008B9012000E00020B6490875481CAD49BD
:106B2000D1F816204261498B0183AA4890F82624A7
:106B300000F22741AF481B3016F0A1FC08F042FEDE
:106B40000446B4F5104F16D1AA48007C401EA14956
:106B500081F82604084690F82624A74900F2274029
:106B600016F08DFC002013F0F6FDFF20994981F806
:106B700069010020B2E605F0DAFC072013F0EBFD16
:106B8000FF20944981F869010020A7E6914890F818
:106B900069010428A7D08F4890F8690106281FD101
:106BA00013F040FB04460CB1012C06D10721012053
:106BB00010F0C0FF05F07BFC09E0022C02D105F0CB
:106BC000D8FC04E0032C02D1002005F049FC002091
:106BD0008A490872FF207F4981F8690100207DE61B
:106BE0007C4890F86901072807D113F034FEFF2094
:106BF000784981F86901002070E6764890F86901CB
:106C000008281BD16A4676499A39A1F5A87004F084
:106C1000B3FE04466F49487A05F085FA6D4890F84E
:106C20006611684605F0ADFA03F01AFD12F04FF850
:106C30000120684981F8690100204FE6654890F815
:106C4000690109287CD1634890F82F0500287FD17D
:106C5000604890F86A1100F26B1005F01BFB12F00F
:106C6000F4FE044654BB05F022FC5B4880790328FF
:106C70000DD15948C079042809D113F0A5F8FF2097
:106C8000544981F86901002012F0C5FF14E0524810
:106C90008079052810D15048C07903280CD113F011
:106CA00035FC044644B905F002FC002013F01CFC3E
:106CB000FF20484981F8690100200FE6012C1DD111
:106CC000FF20444981F8690105F053FC424880796E
:106CD000032806D14048C079042802D112F09BFF56
:106CE0000AE03D488079052806D13B48C079032851
:106CF00002D1072013F0F8FB0020EFE5022C21D190
:106D000035488079032807D13348C079042803D156
:106D1000032012F080FF0AE02F488079052806D171
:106D20002D48C079032802D1072013F0DDFB002095
:106D300005F096FBFF20274981F869010020CDE589
:106D40002EE005E0FF20234981F869010020C5E518
:106D5000204890F82F05012824D113F055FE12F099
:106D600074FE04465CB905F0A2FB13F0D8FEFF20C8
:106D7000184981F86901002012F04DFF0EE0012C46
:106D800006D1FF20134981F8690105F0F2FB05E007
:106D9000032012F040FF002005F062FB00209DE57B
:106DA00001209BE500BF99E570B5054605F1080097
:106DB000094908610D48007800286AD10846C07961
:106DC000897900EB012640F20441701A8E4272D09C
:106DD0003DDC15E0D43C0020D40800200800002051
:106DE000D43E0020D405002069000020600000206F
:106DF000D62B00200C1E0020211F00200442002062
:106E0000B6F5017F79D010DCB6F5847F69D005DC5A
:106E1000A6F20110E0B3062870D159E0A6F20910DD
:106E200000286DD0F928F7D177E040F20531701ACB
:106E30008E426FD006DCA6F2072000286BD0FD281A
:106E4000EAD190E0012867D00228E5D1ABE0B0F5A7
:106E5000817F77D00EDCFE2875D004DC012873D04A
:106E6000FD28D9D1C1E0FF286FD0A0F20110002881
:106E7000D2D1D8E0B0F5827F68D0A0F2FD20002802
:106E800070D0A0F5DE40FF3820B10128C4D108E061
:106E900012E0FAE012F0B7F904461520FE49087036
:106EA000F2E0FE49C868083112F0B7F9044615202F
:106EB000F9490870E8E082E00020F8498860086934
:106EC000083112F020FA04461520F3490870DBE07F
:106ED0000020F249886012F0CBFA1020EE490870C9
:106EE000D2E00020ED4988600869083112F0CCFA40
:106EF00004461520E8490870C6E018E0BFE0FFE747
:106F0000E649C868083112F065FB04461520E249DD
:106F10000870B9E031E01AE03BE0E049C8680831A8
:106F200012F005FC04461520DB490870ACE0DB4993
:106F30000A69C868083112F005FD04461520D649D3
:106F40000870A1E07BE05AE043E062E081E0D349D1
:106F50000A69C868083112F09EFD04461520CE4922
:106F6000087091E081E0CD49C868083112F065FEF3
:106F700004461520C849087086E00020C74988608B
:106F80000869083113F067F804461520C2490870F3
:106F90007AE0C249C868083113F098FC044615200D
:106FA000BD49087070E00020BC498860086908315C
:106FB00013F0B1FE04461520B749087064E0B749E4
:106FC000C868083113F091F904461520B2490870D9
:106FD0005AE00020B14988600869083113F0A1F92E
:106FE00004461520AC4908704EE0AC49C868083129
:106FF00013F0A7F904461520A749087044E0A749F3
:10700000C868083113F0A1F904461520A249087098
:107010003AE0A249C868083113F0FFF90446152088
:107020009D49087030E000209C498860086908315B
:1070300013F0E2FA044615209749087024E09749B6
:10704000C868083113F020FB0446152092490870E7
:107050001AE00020914988600869083113F08DFB1F
:10706000044615208C4908700EE08C49C868083128
:1070700013F094FB044615208749087004E015209E
:1070800085490870042400BF00BF83480078152894
:1070900014D11CB941208149887007E045207F49FF
:1070A000887009690C7001207C4988607B48816880
:1070B000284604F066F9102077490870FFF7EEFBC8
:1070C00010B93C2076490860FFF79FFA72480078B3
:1070D00016280ED15120714988700846C078401C8E
:1070E000C87008468168284604F04BF910206A49A8
:1070F000087070BDF8B5054605F1080067490861DC
:10710000002088606448007820BB0846C0798979EF
:1071100000EB01266FF4F040304410B1012813D188
:107120000BE055200090012269465E4806F0F3FC12
:1071300000241520584908700BE00024AA20009074
:1071400015205549087004E015205349087004249F
:1071500000BF00BF50480078152814D11CB9412049
:107160004E49887007E045204C49887009690C70C9
:1071700001204A49886049488168284604F001F99D
:107180001020454908709DF80000AA2801D101206F
:10719000F8BD0020FCE7F0B591B00446424AD2E9C0
:1071A00001311068D268CDE90531079204903FA300
:1071B000D3E90020D3E9021301AD0BC500920026EC
:1071C00010F08FFC11F084FD10F075FC11F091FEB1
:1071D000074610F09FFE012138A011F003F80321AB
:1071E00039A010F0FFFF11F073FD0721012010F00E
:1071F000A1FC012138A010F0F5FF00BF11F073FDD4
:1072000020B10721032010F095FCF7E707210120AA
:1072100010F090FC012133A010F0E4FF032135A011
:1072200010F0E0FF00BF3649481C11F074FF002841
:10723000F9D10721012010F07DFC012131A010F0CF
:10724000D1FF032132A010F0CDFF00BF002006F0D7
:1072500085FF00BF06F0C6FE0028FBD008A90CA8D9
:1072600007F013F820B103212CA010F0BBFFEDE7CD
:107270000721012010F05EFC01212CA010F0B2FFCC
:1072800003212EA010F0AEFF04210CA806F013F885
:1072900000B157E05CE0000060000020D40800204E
:1072A0000400002000E0030884D6010855502D6D2D
:1072B000504F532D3030303030303030BFAACABC40
:1072C000BCECB2E22E2E2E00C8B7C8CFB1B3B9E2E3
:1072D000D2D1C1C1C6F00000B0B4BCFCBCECB2E27B
:1072E0002E2E2E00B4C5CCF5BFA8BCECB2E22E2EDB
:1072F0002E000000C7EBCBA2B4C5CCF5BFA80000A0
:107300003E3E00204943BFA8BCECB2E22E2E2E0028
:10731000B2E5C8EB4943BFA800000000CAA7B0DC33
:107320002CD6D8D0C2B2E5C8EB000000B0B2C8ABD2
:10733000D0BEC6ACBCECB2E22E2E2E00C7EBC9D438
:10734000B5C8000003216BA010F04CFF00BFFEE7A2
:107350000C9D0020099013E00A20B5FBF0F100FB22
:10736000115030309DF82410C1F104010AAA505484
:107370000A20B5FBF0F59DF82400401CC0B209902E
:107380009DF824000528E7DB0721012010F0D2FB3F
:1073900001215BA010F026FF13F07FFF28B103212D
:1073A0005AA010F01FFF00BFFEE704F00FFE002CF4
:1073B00026D10521012010F0BDFB012157A010F0BE
:1073C00011FF032159A010F00DFF04F00FF828B1B0
:1073D00005215AA010F006FF00BFFEE70A98CDF87D
:1073E00019009DF82C008DF81D00102104A803F051
:1073F000D1FE28B1032151A010F0F4FE00BFFEE73A
:107400000721012010F096FB11F073FD074610F0E4
:1074100081FD02214DA010F0E5FE042104A810F02A
:10742000E1FE04F0D3FD4FF47A7003F0FFFF8CB956
:107430000FE04A48FFF75EFE58B110F03CFB022116
:1074400047A010F0CFFE1021684603F0A3FE00F025
:1074500041F8EEE7AA200990012209A9434806F065
:107460005AFB11B0F0BD08B504466CB1012C0BD12C
:107470000721002010F05EFB02213DA010F0B2FEBB
:1074800004213EA010F0AEFE23E0012011F00AFC22
:107490000546452D09D1FF20009001226946334859
:1074A000401C06F038FB00F015F815F056FFC0B28E
:1074B00000909DF8000020B9062133A010F092FE44
:1074C00007E09DF80000FF2803D0062132A010F04D
:1074D00089FEDAE7BFF34F8F3248006800F4E060BE
:1074E00031490843001D2F490860BFF34F8F00BF8B
:1074F000FEE70000BCECB2E2CAA7B0DC000000006E
:10750000B3F5CABCBBAFCAB1D6D30000C7EBBCEC65
:10751000B2E2525443BEA7D5F1000000C0B6D1C0BC
:10752000C4A3BFE9BCECB2E200000000C0B6D1C009
:10753000B3F5CABCBBAFD6D02E2E2E00C0B6D1C07C
:10754000B2E2CAD4CAA7B0DC00000000CBF9D3D0A5
:10755000B2E2CAD4CDEAB3C9000000009C0D0020FD
:10756000D5FDD4DAB9D8BBFA2E2E2E0000E00308E0
:10757000C7EBC1ACBDD3B5E7C4D40000B0B4C8A15B
:10758000CFFBCDCBB3F60000C5E4D6C3B3C9B9A6D3
:107590002CC7EBD6D8C6F400C5E4D6C3CAA7B0DC66
:1075A000000000000CED00E00000FA053349014343
:1075B000334A1160704770B5002100230F22C47850
:1075C00004B32F4C246804F4E064C4F5E064210A99
:1075D000C1F10403CA40447804FA03F184781440EA
:1075E00021430901274C0678A155047804F01F05B2
:1075F0000124AC4005786D11AD0005F1E025C5F81A
:10760000004109E0047804F01F050124AC401E4D40
:107610000678761145F8264070BD1C4A0A400243A0
:10762000174B1B1F1A60704739B1154A121D12689B
:107630000243134B1B1D1A6006E0114A121D12680B
:1076400082430F4B1B1D1A607047042808D14FF06E
:10765000E021096941F004014FF0E022116107E0E7
:107660004FF0E021096921F004014FF0E02211619F
:1076700070470248001D0249086070470000FA0583
:107680000CED00E000E400E080E100E080FFFF1F7F
:1076900010B50446FA48844208D10121401501F092
:1076A000A9F90021601501F0A5F917E0F548844219
:1076B00008D10121001501F09DF90021201501F0EC
:1076C00099F90BE0F048844208D10121C80301F088
:1076D00091F900214FF4004001F08CF910BD30B554
:1076E0000246002000235068E84C20400D790C68C9
:1076F00044EA0524204350609068E54C2040D1E9DD
:1077000002542C434D7944EA450420439060D06AEA
:1077100020F470000C7C641EE4B2234340EA035062
:10772000D06230BD00210160017141718160C16092
:1077300001210174704721B1826842F00102826028
:1077400003E0826822F001028260704721B1826802
:1077500042F48072826003E0826822F48072826068
:10776000704710B50023CBB21AB144681C43446083
:1077700002E044689C43446010BD816841F0080108
:1077800081607047014600208A6802F008020AB151
:10779000012000E000207047816841F00401816011
:1077A0007047014600208A6802F004020AB10120F5
:1077B00000E00020704721B1826842F4A00282609C
:1077C00003E0826822F4A002826070470146002034
:1077D0008A6802F480020AB1012000E000207047AC
:1077E00010B50A4600210023416821F46041531E70
:1077F00041EA4331416010BD21B1426842F4006268
:10780000426003E0426822F4006242607047F0B5D3
:1078100004460D4600200021092D11DDE068A5F188
:107820000A0606EB4607072606FA07F18843A5F184
:107830000A0606EB460603FA06F10843E0600CE090
:10784000206905EB4507072606FA07F1884305EB93
:10785000450603FA06F108432061072A0FDA606B38
:10786000561E06EB86071F2606FA07F18843561EAA
:1078700006EB860605FA06F10843606322E00D2A4E
:107880000FDA206BD61F06EB86071F2606FA07F1D4
:107890008843D61F06EB860605FA06F108432063E7
:1078A00010E0E06AA2F10D0606EB86071F2606FA35
:1078B00007F18843A2F10D0606EB860605FA06F1EC
:1078C0000843E062F0BD21B1826842F48012826018
:1078D00003E0826822F48012826070470146C86C1F
:1078E00080B2704766484C300068704721B14268EA
:1078F00042F48062426003E0426822F480624260A7
:10790000704721B1426842F48052426003E042680D
:1079100022F48052426070470A460021816821F4B7
:10792000E04111438160704721B1826842F4004216
:10793000826003E0826822F400428260704721B1D5
:10794000826842F40212826003E0826822F402122A
:1079500082607047014600208A6802F400120AB172
:10796000012000E000207047F0B5044615460020D5
:1079700000220026092911DDE068A1F10A0707EBC2
:10798000470C072707FA0CF29043A1F10A0707EB0F
:10799000470703FA07F21043E0600CE0206901EBAF
:1079A000410C072707FA0CF2904301EB410703FA59
:1079B00007F210432061A06BC0F30156EF1C06F1E3
:1079C000010CA7EB0C0707EB870C1F2707FA0CF23B
:1079D0009043EF1C06F1010CA7EB0C0707EB8707A0
:1079E00001FA07F21043A063F0BD10B50A4600216A
:1079F0000023816B21F44011531E41EA035181633E
:107A000010BD08B5002300930090009B0B44009329
:107A1000009B1A6008BD08B5024600200090009245
:107A200001F12800009B184400900098006880B283
:107A300008BD0A4600214168164B194011434160B8
:107A400070474162826270470A460021416821F016
:107A50001F0111434160704740B10949083109686D
:107A600041F40001064A0832116007E00449083178
:107A7000096821F40001024A0832116070470000D1
:107A80000024014000280140003C0140FFFEF0FFBF
:107A9000FDF7F1FFFFFD3FFF0246002013680B409A
:107AA0000BB1012000E000207047CA43026070471C
:107AB00070B502460020002300240B125568CEB298
:107AC00005EA060415681D4015B10CB1012000E05F
:107AD000002070BD00220A12D343036070470000EB
:107AE00010B5012000F0A0FF002000F09DFF10BDA8
:107AF0002A49086070472949091F086070472749CB
:107B000084310860704701460020254A10884FF6EE
:107B10007F4210400843224A1080704701460020EF
:107B20001F4A10884FF68072104008431C4A10808C
:107B3000704708B500220092194A2C3A0092009A28
:107B400002440092009A116008BD08B50146002069
:107B5000009013482C38009000980844009000983A
:107B6000008808BD0D489C300068C0B270470C48C2
:107B70000830008840F0010009490831088070474A
:107B80000648A0300068C0B2704705480830008839
:107B900040F00200024908310880704704860D4217
:107BA0002C6C0040002044490860091D0860091D34
:107BB0000860091D086041483F491431086070475A
:107BC00000213D498279002A3AD00A4612680368AA
:107BD0009A430B461A600A1D126803689A430B1DEC
:107BE0001A60027911440A6803681A430A60324A2B
:107BF0000832126803689A432F4B08331A601A1D23
:107C0000126803689A432C4B0C331A604279102A8D
:107C10000ED11A1F126803681A43274B08331A60E3
:107C20001A1D126803681A43234B0C331A600DE0C7
:107C30002149427911440A6803681A430A6005E041
:107C4000027911440A6803689A430A607047002168
:107C5000016001710C214171002181717047164949
:107C6000103109680143144A10321160704701460F
:107C70000020114A143212680A400AB1012000E0C3
:107C8000002070470C4914310860704701460020FD
:107C90000022094B1B6803EA0102074B14331B68DF
:107CA0000B4013B10AB1012000E0002070470249E7
:107CB000143108607047000000040140FFFF0F000E
:107CC00001460020FE4A106800F0380008431060AA
:107CD0007047FB49096821F00801F94A1160114613
:107CE0000968014311607047F549096821F01001E6
:107CF000F34A116011460968014311607047F14869
:107D0000EF494860F04848607047EE48EC494860E9
:107D1000ED4848607047EA48006940F08000E84953
:107D200008617047E648006940F08000E449086156
:107D300070470420E249C96801F0010109B101203E
:107D40000EE0DF49C96801F0040109B1022007E033
:107D5000DB49C96801F0100109B1032000E00420EB
:107D6000704700B502460423FFF7E3FF034603E034
:107D7000FFF7DFFF0346521E012B01D1002AF7D186
:107D800002B90523184600BD30B5044604254FF45A
:107D90003020FFF7E6FF0546042D17D1C8480069DB
:107DA00040F00200C649086108464461006940F09D
:107DB000400008614FF43020FFF7D3FF0546C0486C
:107DC000006941F6FD710840BD490861284630BD93
:107DD00010B504244FF43020FFF7C3FF0446042CF1
:107DE00016D1B748006940F00400B549086108465B
:107DF000006940F0400008614FF43020FFF7B1FF08
:107E00000446AF48006941F6FB710840AC4908617F
:107E1000204610BD00B502460423FFF78AFF034643
:107E200003E0FFF786FF0346521E012B01D1002A13
:107E3000F7D102B90523184600BD10B504244FF44C
:107E40003020FFF7E7FF0446042C16D19C48006958
:107E500040F004009A4908610846006940F040007B
:107E600008614FF43020FFF7D5FF044694480069BD
:107E700041F6FB71084092490861204610BD002080
:107E80008F49C96901F0020109B1012000E0002019
:107E9000704730B5A5250424FFF7F1FF00B1002598
:107EA0004FF43020FFF75DFF0446042C3AD185489B
:107EB00083498860844888600846006940F0200053
:107EC00008610846006940F0400008614FF4302026
:107ED000FFF747FF0446042C1BD17948006941F69F
:107EE000DF710840764908610846006940F01000DB
:107EF000086176480580E002FFF733FF0446052C51
:107F000010D06F48006941F6EF7108406C49086174
:107F100008E0052C06D06A48006941F6EF71084078
:107F200067490861204630BD78B506460C460425F1
:107F300000200090E802FFF714FF0546042D24D12D
:107F40005F48006940F001005D4908613480E80243
:107F5000FFF707FF0546042D10D1B01C0090200C40
:107F600000990880E802FFF7FCFE054654480069C6
:107F700041F6FE7108405249086106E05048006928
:107F800041F6FE7108404E490861284678BD70B53B
:107F900004460D460426F002FFF7E3FE0646042ED3
:107FA00011D14748006940F001004549086125802A
:107FB000F002FFF7D6FE06464148006941F6FE7121
:107FC00008403F490861304670BD70B505460E4611
:107FD0000424E002FFF7C5FE0446042C17D13948FB
:107FE00037498860384888600846006940F01000CA
:107FF00008612E80E002FFF7B4FE0446052C06D08F
:108000002F48006941F6EF7108402D49086120466C
:1080100070BD2DE9F04304464FF6FF763746B04673
:10802000B1460425E443E6B2C4F30727C4F3074886
:108030004FEA1469E802FFF794FE0546042D49D182
:1080400020481F498860204888600846006940F041
:1080500010000861FF2E06D01C4808300680E80298
:10806000FFF77FFE0546042D08D1FF2F06D01748E5
:108070000A300780E802FFF774FE0546042D0AD196
:10808000B8F1FF0F07D011480C30A0F80080E802CB
:10809000FFF767FE0546042D0AD1B9F1FF0F07D09F
:1080A0000A480E30A0F80090E802FFF75AFE054695
:1080B000052D0FD00248006941F6EF71084007E036
:1080C0000020024023016745AB89EFCD00F8FF1F78
:1080D000664908612846BDE8F08330B505460424AA
:1080E0004FF43020FFF73DFE0446042C41D1604898
:1080F0005E4988605F4888600846006940F020005B
:1081000008610846006940F0400008614FF43020E3
:10811000FFF727FE0446042C22D15448006941F69B
:10812000DF710840514908610846006940F01000BD
:1081300008611DB100205049088002E0A5204E4989
:1081400008804FF43020FFF70CFE0446052C10D0B9
:108150004648006941F6EF7108404449086108E06B
:10816000052C06D04148006941F6DF7108403F49BF
:108170000861204630BDF0B505460E46174604247A
:108180003B483A4988603B488860E002FFF7E9FDD8
:108190000446042C19D13548006940F010003349D9
:1081A000086147F0F800304328433349891C0880B0
:1081B000E002FFF7D6FD0446052C06D02B480069E7
:1081C00041F6EF710840294908612046F0BD274873
:1081D000C069800870472548006A7047002023491D
:1081E000096801F0200109B1012000E0002070477A
:1081F00029B11E4A126902431C4B1A6104E01B4A52
:1082000012698243194B1A61704701460020012907
:1082100008D1164AD26902F001020AB1012008E031
:10822000002006E0114AD2680A400AB1012000E0AD
:10823000002070470D49C860704704200B49C96889
:1082400001F0010109B101200EE00849C96801F0FF
:10825000040109B1022007E00449C96801F01001D6
:1082600009B1032000E00420704700000020024014
:1082700023016745AB89EFCD00F8FF1F10B5044619
:10828000CC48844208D10121042000F0B3FB002136
:10829000042000F0AFFB46E0C748844208D101212A
:1082A000082000F0A7FB0021082000F0A3FB3AE023
:1082B000C248844208D10121102000F09BFB00211C
:1082C000102000F097FB2EE0BD48844208D1012128
:1082D000202000F08FFB0021202000F08BFB22E00B
:1082E000B848844208D10121402000F083FB0021DE
:1082F000402000F07FFB16E0B348844208D1012102
:10830000802000F077FB0021802000F073FB0AE062
:10831000AE48844207D10121801500F06BFB00219B
:10832000A01500F067FB10BD10B50121084600F054
:1083300061FB0021012000F05DFB10BD2DE9F04143
:10834000024600250026002000230024002791F883
:1083500003C00CF00F0591F803C00CF0100CBCF139
:10836000000F03D091F802C04CEA050591F800C057
:10837000BCF1000F31D0146800202BE04FF0010C4D
:108380000CFA00F3B1F800C00CEA03069E4220D1BB
:1083900083004FF00F0C0CFA03F7BC4305FA03FC03
:1083A0004CEA040491F803C0BCF1280F06D14FF049
:1083B000010C0CFA00FCC2F814C00AE091F803C0EA
:1083C000BCF1480F05D14FF0010C0CFA00FCC2F8CB
:1083D00010C0401C0828D1D31460B1F800C0BCF113
:1083E000FF0F34DD546800202EE000F1080C4FF040
:1083F000010808FA0CF3B1F800C00CEA03069E422B
:1084000021D183004FF00F0C0CFA03F7BC4305FA9F
:1084100003FC4CEA040491F803C0BCF1280F05D119
:1084200000F1080C08FA0CF8C2F8148091F803C0A7
:10843000BCF1480F07D100F1080C4FF0010808FA11
:108440000CF8C2F81080401C0828CED35460BDE858
:10845000F0814FF6FF710180022181700421C1700B
:1084600070470246002093680B400BB1012000E0EA
:10847000002070470146886880B27047024600209D
:10848000D3680B400BB1012000E00020704701468B
:10849000C86880B2704701617047416170470AB196
:1084A000016100E041617047C16070474FF4803264
:1084B0000A438261816182618269826970470246F2
:1084C0000020434B18684FF68073184040EA0210B2
:1084D00008433F4B186070473E49C8617047F0B58C
:1084E0000A46002300240021002500F00046B6F1D2
:1084F000004F02D1364EF16901E0354E7168C0F38C
:10850000034583B200F44016B6F5401F08D121F0B0
:1085100070612F4E766826F070662D4F7E6012E0F7
:1085200000F48016B6F5801F06D1032606FA05F47E
:10853000A14341F0706106E0460D360103FA06F6EC
:10854000B14341F0706122B1460D360103FA06F6DF
:10855000314300F00046B6F1004F02D11C4EF161EC
:1085600001E01B4E7160F0BD30B500228B071C0F7F
:108570000F2303FA04F2164B08338C1053F82430FF
:108580009343134C08348D1044F8253023468C1047
:1085900053F824308C07240F00FA04F423430C4CC6
:1085A00008348D1044F8253030BD0A49DC310860AC
:1085B0007047000000080140000C0140001001401D
:1085C0000014014000180140001C0140002001403F
:1085D00000000140000020420E49086070470D492C
:1085E000486070470B49886070474AF6AA200949DD
:1085F000086070474CF6CC40064908607047014659
:108600000020044AD2680A400AB1012000E000209C
:10861000704700000030004010B50121080700F04D
:10862000F6F900214FF0805000F0F1F910BD2A4911
:108630000862704728490861704701460020274AB0
:10864000106820F0E0000843106070472249A03114
:108650000860704710B502460020204B186820F0D3
:108660000300104318601E4B1B6843F004031C4CAE
:108670002360012901D130BF00E020BF184B1B68E7
:1086800023F00403164C236010BD1448006840F02A
:108690000400124908600846006840F002000860C3
:1086A0000F48006840F004000D49086000BF00BF9B
:1086B00030BF704701460020084A52680A400AB19C
:1086C000012000E0002070470449096841EA800168
:1086D000024A11607047000000000E420070004026
:1086E00010ED00E0DF48006840F00100DD4908605F
:1086F00008464068DC490840DA4948600846006896
:10870000DA490840D74908600846006820F480200C
:1087100008600846406820F4FE0048604FF41F00DF
:1087200088607047CF49096821F48031CD4A1160D3
:108730001146096821F480211160B0F5803F03D013
:10874000B0F5802F0ED106E0C649096841F48031AA
:10875000C44A116007E0C349096841F4A021C14A35
:10876000116000E000BF00BF704710B50146002255
:10877000002300204A11012A02D1BA4C236806E0E6
:10878000022A02D1B74C236A01E0B64C636A01F0B9
:108790001F02012494401C400CB1012000E0002085
:1087A00010BD38B5002000900024002500BF312006
:1087B000FFF7DBFF05460098401C00900098B0F5DD
:1087C000A06F01D0002DF2D03120FFF7CEFF08B10D
:1087D000012400E00024204638BD01460020A14AC3
:1087E000106820F0F80040EAC10010607047A0490E
:1087F00008607047024600209A4B586820F47C10AD
:1088000042EA01031843974B58607047984908663D
:10881000704701460020934A506820F00300084347
:10882000506070478F48406800F00C007047014668
:1088300000208C4A506820F0F000084350607047D8
:1088400001460020874A506820F4E06008435060E9
:10885000704701460020834A506820F4605040EA87
:10886000C1005060704729B17E4A527A02437D4B65
:108870005A7204E07B4A527A82437A4B5A727047AA
:108880007B49D8310860704701460020754A50681E
:1088900020F440400843506070470021714A203264
:1088A0001170704A82F82010012802D004280AD1E1
:1088B00004E001216B4A2032117005E00521694A6C
:1088C0002032117000E000BF00BF704769490860A6
:1088D00070476449096A0143624A116270476549F9
:1088E00044390860704730B500210022002400237D
:1088F0005C4D6D6805F00C0121B1042905D00829F3
:1089000023D105E05C4D056022E05B4D05601FE072
:10891000544D6D6805F47012524D6D6805F4803445
:10892000022505EB92421CB9544D554305600BE0FE
:108930004C4D6D6805F400351DB1504D5543056033
:1089400002E04D4D5543056002E04B4D056000BF10
:1089500000BF444D6D6805F0F0010909484D6B5C9E
:108960000568DD4045603F4D6D6805F4E061090A2A
:10897000434D6B5C4568DD4085603A4D6D6805F49C
:108980006051C90A3E4D6B5C4568DD40C560354DA0
:108990006D6805F44041890B3A4D6B5CC568B5FBC9
:1089A000F3F5056130BD29B12E4A526902432D4BC2
:1089B0005A6104E02B4A526982432A4B5A6170473C
:1089C00029B1284A92690243264B9A6104E0254A5C
:1089D00092698243234B9A61704729B1214AD26937
:1089E0000243204BDA6104E01E4AD26982431D4BE8
:1089F000DA61704729B11B4AD2680243194BDA6029
:108A000004E0184AD2688243164BDA60704729B1F5
:108A1000144A12690243134B1A6104E0114A1269A5
:108A20008243104B1A617047124940390860704701
:108A30000F49C86470470B49C87170470948406ABC
:108A400040F0807007494862704701460020054A9F
:108A500092680A400AB1012000E0002070470149F5
:108A600088727047001002400000FFF8FFFFF6FE1A
:108A7000000042428004424200127A0000093D0098
:108A8000280000203800002029B1574A12880243EC
:108A9000554B1A8004E0544A12888243524B1A8084
:108AA00070475148001D008840F010004E49091DD4
:108AB000088070474C48001D00884FF6EF71084051
:108AC0004949091D08807047002147481C3001882A
:108AD000001F008841EA0040704700B50246FFF7DA
:108AE000E0FF100C404918310880091D0A80FFF78B
:108AF000E1FF00BD00B50246FFF7D3FFC2F303401C
:108B0000394908310880091D0A80FFF7D3FF00BDED
:108B100000B50246FFF7C5FF100C3349203108802D
:108B2000091D0A80FFF7C6FF00BD00202E49103145
:108B300009880907080B2C49143109880843704734
:108B4000002004E0401CB0F5801F00D97047264982
:108B5000091D098801F020010029F3D000BFF5E7C5
:108B600000202149091D09884FF6F77211401E4A5D
:108B7000121D118004E0401CB0F5801F00D9704721
:108B80001949091D098801F008010029F3D000BF27
:108B9000F5E701460020144A121D12880A400AB166
:108BA000012000E0002070470F49091D098881431A
:108BB0000D4A121D11807047014600200A4A121DFD
:108BC00012880A40D0B2084A12880A4012B108B18D
:108BD000012000E0002070470349091D09888143F6
:108BE000014A121D118070470028004010B504464C
:108BF000BE48844208D101218014FFF7FBFE00210A
:108C0000A014FFF7F7FE16E0B948844208D101210D
:108C10000014FFF7FCFE00212014FFF7F8FE0AE025
:108C2000B448844207D10121C013FFF7F0FE0021B0
:108C3000E013FFF7ECFE10BD10B50022028802F42D
:108C400041520B884C8823438C882343CC88234390
:108C50000C8923434C8923438C892343CC892343A8
:108C60001A430280838B4FF2FF74234083830B8A65
:108C7000038210BD2DE9F04F85B005460C464FF03C
:108C8000000902274FF000084FF0010B0026B24602
:108C9000A88B4FF240010840A88302202884B5F831
:108CA0001C90A068022801D100BF38E0A08810B94C
:108CB0004FF0010B01E04FF0020B8D48854200D1CF
:108CC00000E000BF6846FFF70EFEDDF800A0E08878
:108CD000B0F5007F0AD14FEA1A2000EB8000400077
:108CE000A168B0FBF1F0401D86B20BE04FEA4B10DB
:108CF000BAFBF0F000EB80004000A168B0FBF1F09F
:108D0000401D86B20A20B6FBF0F606F00108A6EB7D
:108D10000800C0F34F074FF6FF7000EA0828022F43
:108D200001DBFF2F02DD02274FF00008E08840EA58
:108D3000080038432884A088A18908436188084333
:108D40002188084340F4006040EA0909A5F81C9016
:108D500005B0BDE8F08F0021018041808180C18095
:108D6000018141818181C1810721018270470021F8
:108D7000018041808180C180022181600021818148
:108D8000704721B1028842F04002028004E002886C
:108D90004FF6BF731A400280704721B1828B42F4B4
:108DA0008062828304E0828B4FF6FF331A40828315
:108DB000704730B5002400230C110125A540ABB24B
:108DC0001AB185881D43858002E085889D43858092
:108DD00030BD1AB183880B43838002E083888B43C4
:108DE00083807047818170470146888970474FF6BC
:108DF000FF62914204D0028842F48072028004E053
:108E000002884FF6FF631A400280704721B18288C2
:108E100042F00402828004E082884FF6FB731A401D
:108E20008280704702884FF2FF731A4002800288E6
:108E30000A4302807047018841F4805101807047E5
:108E400021B1028842F40052028004E002884DF60B
:108E5000FF731A400280704702460020012901D0AA
:108E6000108B00E0908A70470146088A7047B1F580
:108E7000804F04D1028842F48042028004E00288DC
:108E80004BF6FF731A400280704702460020138998
:108E90000B400BB1012000E000207047CA43028163
:108EA0007047F0B50246002000240023002501F0A1
:108EB0000F070126BE40B4B20B1101269E40B3B28B
:108EC000968806EA03051689264016B10DB10120E1
:108ED00000E00020F0BD10B5002201F00F040123D6
:108EE000A3409AB2D343038110BD0000003001407B
:108EF00000380040003C004010B50446FE48844263
:108F000008D10121C014FFF775FD0021E014FFF71F
:108F100071FDC4E0B4F1804F08D101210846FFF78C
:108F200076FD00210120FFF772FDB8E0F34884428E
:108F300008D101210220FFF76AFD00210220FFF77E
:108F400066FDACE0EE48844208D101210420FFF721
:108F50005EFD00210420FFF75AFDA0E0E9488442AD
:108F600008D101210820FFF752FD00210820FFF75A
:108F70004EFD94E0E448844208D101211020FFF71F
:108F800046FD00211020FFF742FD88E0DF488442C3
:108F900008D101212020FFF73AFD00212020FFF712
:108FA00036FD7CE0DA48844208D101214014FFF705
:108FB00021FD00216014FFF71DFD70E0D5488442BB
:108FC00009D10121C804FFF715FD00214FF400204D
:108FD000FFF710FD63E0D048844209D10121080564
:108FE000FFF708FD00214FF48010FFF703FD56E066
:108FF000CA48844209D101214805FFF7FBFC002142
:109000004FF40010FFF7F6FC49E0C548844208D150
:1090100001214020FFF7FBFC00214020FFF7F7FC77
:109020003DE0C048844208D101218020FFF7EFFCD9
:1090300000218020FFF7EBFC31E0BB48844208D1DF
:1090400001218015FFF7E3FC0021A015FFF7DFFCED
:1090500025E0B648844209D101210804FFF7CAFC83
:1090600000214FF48030FFF7C5FC18E0B04884427F
:1090700009D101214804FFF7BDFC00214FF4003065
:10908000FFF7B8FC0BE0AB48844208D1012188040B
:10909000FFF7B0FC00214FF48020FFF7ABFC10BDC0
:1090A00000220288944B98420ED0994B98420BD0E4
:1090B000B0F1804F08D0914B984205D0904B984228
:1090C00002D0904B984204D14FF68F731A404B88D0
:1090D0001A438D4B984207D08C4B984204D04FF6E0
:1090E000FF431A40CB881A4302808B8883850B8804
:1090F0000385814B98420BD0854B984208D08B4B0F
:10910000984205D08A4B984202D08A4B984201D1AE
:109110000B7A038601238382704770B500240022F6
:109120000023058C4FF6FE7635400584028C83883B
:10913000048B4FF68F752C40B51E2C400D882C43A8
:10914000751E2A400D892A434D882A436A4DA8423C
:109150000BD06F4DA84208D0744DA84205D0744D75
:10916000A84202D0734DA84213D14FF6F7752A409A
:109170004D892A434FF6FB752A408D882A434FF6C6
:10918000FF652B404FF6FF552B408D892B43CD8932
:109190002B4383800483CD888586028470BD70B59F
:1091A000002400220023058C4FF6EF76354005841D
:1091B000028C8388048B48F6FF752C404FF6FF45E0
:1091C0002C400D884FF6FF7606EA05252C434FF616
:1091D000DF752A400D8906EA05152A434D8806EAFF
:1091E00005152A43444DA84202D0494DA8421DD13D
:1091F0004FF67F752A404D894FF6FF7606EA051532
:109200002A434FF6BF752A408D8806EA05152A4382
:109210004FF6FF352B404FF2FF752B408D8906EA44
:1092200085052B43CD8906EA85052B43838004837E
:10923000CD880587028470BD70B50024002200230C
:10924000058C4FF6FF6635400584028C8388848B3D
:109250004FF68F752C404FF6FC752C400D882C4333
:109260004FF6FF552A400D894FF6FF7606EA052591
:109270002A434D8806EA05252A431F4DA84202D0FD
:10928000234DA8421DD14FF2FF752A404D894FF65C
:10929000FF7606EA05252A434FF6FF352A408D88DA
:1092A00006EA05252A434EF6FF752B404DF6FF755D
:1092B0002B408D8906EA05152B43CD8906EA051555
:1092C0002B4383808483CD888587028470BD70B5ED
:1092D000002200230024058C4EF6FF7635400584DD
:1092E000038C8488828B48F6FF752A404FF6FF4531
:1092F0002A400D8820E00000002C014000040040BE
:1093000000080040000C0040001000400014004025
:1093100000340140004C0140005001400054014025
:1093200000180040001C00400020004000400140A8
:1093300000440140004801404FF6FF7606EA05254B
:109340002A434DF6FF752B400D8906EA05352B4360
:109350004D8806EA05352B43FA4DA84202D0FA4D56
:10936000A84208D14BF6FF752C408D894FF6FF7649
:1093700006EA85152C4384808283CD88A0F840506E
:10938000038470BD828B4FF2FF331A408283828B3D
:109390004FF6FF7303EA01231A4382837047F0B547
:1093A0000C461546002200210026078C4EF6FF7C55
:1093B00007EA0C070784828B018C4FF6FF7707EAD8
:1093C000043640F6FF473A404FF6FF7707EA052795
:1093D0003A434FF6FF7707EA03373A43D94FB8428B
:1093E0000ED0D94FB8420BD0B0F1804F08D0D74F34
:1093F000B84205D0D64FB84202D0D64FB84206D1B7
:109400004DF6FF77394046F48057394305E047F67B
:10941000FF57394044F48057394382830184F0BDBB
:10942000828B4FF6F3731A408283828B0A438283C6
:109430007047F0B50C461546002200210026078C27
:109440004FF6FF6C07EA0C070784828B018C4FF6FE
:10945000FF7707EA04264FF60C773A404FF6FF777E
:1094600007EA03172F433A43B64FB8420ED0B64F20
:10947000B8420BD0B0F1804F08D0B44FB84205D0FD
:10948000B34FB84202D0B34FB84206D14FF6FF57A0
:10949000394046F48077394305E04FF2FF573940B1
:1094A00044F48077394382830184F0BD028B4FF20C
:1094B000FF331A400283028B4FF6FF7303EA012346
:1094C0001A4302837047F0B50C461546002200216E
:1094D0000026078C4FF6EF7C07EA0C070784028B07
:1094E000018C4FF6FF7707EA041640F6FF473A4033
:1094F0004FF6FF7707EA03373A434FF6FF7707EA5D
:1095000005273A438F4FB8420ED08F4FB8420BD049
:10951000B0F1804F08D08D4FB84205D08C4FB84283
:1095200002D08C4FB84206D14FF6DF77394046F073
:109530001007394305E04FF65F77394044F01007D4
:10954000394302830184F0BD028B4FF6F3731A4056
:109550000283028B0A4302837047F0B50C4615461E
:1095600000220021068C4FF6FE773E400684028BD7
:10957000018C4FF60C7632407E1C06EA03162E4311
:109580003243704EB0420ED06F4EB0420BD0B0F1AD
:10959000804F08D06D4EB04205D06D4EB04202D023
:1095A0006C4EB04206D14FF6FD76314044F00106D4
:1095B000314305E04FF6F576314044F00106314382
:1095C00002830184F0BD70B505460C465D488542B6
:1095D0000ED05D4885420BD0B5F1804F08D05B4876
:1095E000854205D05A48854202D05A48854200D16A
:1095F00000E000BF208850B92389A28861882846EE
:10960000FFF7ABFFE1882846FFF79EFF25E02088A3
:1096100004280AD12389A28861882846FFF753FFCE
:10962000E1882846FFF742FF17E0208808280AD182
:109630002389A28861882846FFF7FBFEE188284637
:10964000FFF7EEFE09E02389A28861882846FFF72C
:10965000A6FEE1882846FFF795FE70BD2DE9F04192
:1096600005460C4600260127608808B9022600E05E
:109670000026A088012801D1022700E001272088C8
:10968000A0B92389A28861882846FFF766FFE18890
:109690002846FFF759FF23893A4631462846FFF707
:1096A00012FFE1882846FFF701FF13E02389A28813
:1096B00061882846FFF707FFE1882846FFF7F6FE96
:1096C00023893A4631462846FFF747FFE188284676
:1096D000FFF73AFFBDE8F0810A884B881A438B8870
:1096E0001A43CB881A430B891A434B891A438B8937
:1096F0001A43A0F8442070474FF6FF718180002183
:109700000180C18041800172704700210180418049
:109710008180C180018141818181C18170470021A7
:1097200001804180012181800021C1800181704739
:109730000021018041808180C1800181418181813E
:1097400070470000002C014000340140000400403C
:1097500000080040000C004021B1028842F00102E4
:10976000028004E002884FF6FE731A4002807047C0
:1097700031B1B0F8442042F40042A0F8442005E0A2
:10978000B0F84420C2F30E02A0F8442070471AB18A
:1097900083890B43838102E083898B4383817047F4
:1097A0008182704741EA0203A0F8483070471AB13D
:1097B00083890B43838102E083898B4383817047D4
:1097C00001894FF6F8721140018170470A46002165
:1097D00001894FF68F73194011430181704730B5ED
:1097E00004460D4629462046FFF7F0FF208940F049
:1097F0000700208130BD2DE9F04104460D46164694
:109800001F46602D06D13B46012231462046FFF718
:109810005AFE05E03B46012231462046FFF79DFEF9
:1098200029462046FFF7D2FF208940F0070020811B
:10983000BDE8F08130B50C4600210189C9B24FF670
:10984000FF7505EA0325154325432943018130BDF2
:109850002DE9F04105460E4617469846002443463A
:109860003A4631462846FFF7E5FF2C894FF6F87057
:10987000044044F007044FF68F70044044F0700435
:109880002C81BDE8F081F0B504460D4616461F4612
:109890003B46324629462046FFF7CCFF208940F45C
:1098A00080402081F0BD0185828270470A460021F8
:1098B00001884FF68F731940114301807047F0B54E
:1098C0000C4615461E460021002200230189028B0A
:1098D000038C4FF6F877394021434FF6FC473A4066
:1098E00040F201173A434FF6DD773B404FF6FF77E2
:1098F00007EA06172F433B43018102830384F0BD2F
:109900000A460021018B4FF68F73194011430183E2
:1099100070470A460021018B48F6FF7319404FF645
:10992000FF7303EA02231943018370470A460021AB
:10993000818B4FF68F7319401143818370470A461C
:109940000021818B48F6FF7319404FF6FF7303EA3D
:10995000022319438183704721B1028842F08002BB
:10996000028004E002884FF67F731A40028070473D
:1099700021B1828842F00402828004E082884FF69E
:10998000FB731A408280704721B1828842F008023E
:10999000828004E082884FF6F7731A408280704715
:1099A00021B1828842F00102828004E082884FF671
:1099B000FE731A40828070470A460021018B4FF6E1
:1099C000F77319401143018370470A460021018B48
:1099D0004FF2FF7319404FF6FF7303EA0223194356
:1099E000018370470A460021818B4FF6F7731940B7
:1099F0001143818370470A460021818B4FF2FF7328
:109A000019404FF6FF7303EA02231943818370471D
:109A10000A460021018B4FF6FB7319401143018365
:109A200070470A460021018B4FF6FF3319404FF66D
:109A3000FF7303EA02231943018370470A4600219A
:109A4000818B4FF6FB7319401143818370470A469F
:109A50000021818B4FF6FF3319404FF6FF7303EA65
:109A600002231943818370470A460021018B4FF678
:109A70007F7319401143018370470A460021018B0F
:109A8000C1F30E014FF6FF7303EA0223194301836A
:109A900070470A460021818B4FF67F7319401143AE
:109AA000818370470A460021818BC1F30E014FF676
:109AB000FF7303EA02231943818370470A4600219A
:109AC000018C4FF6FD7319401143018470470A461B
:109AD0000021018C4FF6F773194011430184704740
:109AE0000A460021018C4FF6DF7319404FF6FF73D1
:109AF00003EA02131943018470470A460021018CCE
:109B00004FF67F7319404FF6FF7303EA02131943B0
:109B1000018470470A460021018C4FF6FF5319401B
:109B20004FF6FF7303EA02231943018470470A4684
:109B30000021018C4FF2FF7319404FF6FF7303EAC7
:109B400002231943018470470A460021018C4DF617
:109B5000FF7319404FF6FF7303EA02331943018480
:109B6000704730B5002301248C40A3B2048C9C4381
:109B70000484048C02FA01F5ADB22C43048430BD98
:109B800030B5002304248C40A3B2048C9C4304848D
:109B9000048C02FA01F5ADB22C43048430BD70B5DB
:109BA0000346002000241846183001258D40ACB231
:109BB0001D8CA5431D8409B1082909D100EB610062
:109BC000056825F0700505600568154305600EE021
:109BD0000D1FC5F34E052844056825F4E0450560D2
:109BE00005684FF6FF7606EA02263543056070BD2C
:109BF00021B1028842F00202028004E002884FF69E
:109C0000FD731A400280704721B1028842F00402BD
:109C1000028004E002884FF6FB731A40028070470E
:109C200021B1828842F08002828004E082884FF66F
:109C30007F731A408280704702884FF6F7731A408C
:109C4000028002880A430280704782884FF68F7331
:109C50001A40828082880A438280704702894FF6C8
:109C6000F8731A40028102890A430281704702890F
:109C70004FF67F731A40028102890A4302817047BE
:109C8000818470478185704781867047018770475E
:109C900081877047A0F84010704702884FF6FF4355
:109CA0001A40028002880A43028070470146888E6B
:109CB00070470146088F70470146888F70470146FC
:109CC000B1F8400070470146888C70470146088D06
:109CD000704702460020138A0B400BB1012000E0C0
:109CE00000207047CA430282704730B50246002008
:109CF00000230024158A05EA0103958905EA010479
:109D000013B10CB1012000E0002030BDCA43028233
:109D10007047000010B50446FB48844209D1012178
:109D20008803FEF767FE00214FF48040FEF762FED5
:109D300032E0F648844209D101214804FEF767FE6B
:109D400000214FF40030FEF762FE25E0F048844227
:109D500009D101218804FEF75AFE00214FF480202A
:109D6000FEF755FE18E0EB48844209D10121C804F2
:109D7000FEF74DFE00214FF40020FEF748FE0BE0F9
:109D8000E548844208D101210805FEF740FE002184
:109D90004FF48010FEF73BFE10BD2DE9F04786B072
:109DA00005460E460024A24600BFA1460027B08902
:109DB00000B100BF2F462C8A4CF6FF700440F0889B
:109DC00004432C82AC894EF6F3100440B0883189EC
:109DD0000843718908430443AC81AC8A4FF6FF40C5
:109DE0000440B0890443AC8201A8FEF77CFDC6485C
:109DF000874202D1DDF810A001E0DDF80CA0A889AF
:109E000000F4004040B10AEBCA0000EB0A103168D0
:109E10004900B0FBF1F807E00AEBCA0000EB0A10BA
:109E200031688900B0FBF1F86420B8FBF0F0040160
:109E30002009642101FB1089A88900F4004040B189
:109E4000322000EBC900B0FBF1F000F00700044342
:109E500008E0322000EB09106421B0FBF1F000F0C3
:109E60000F0004432C8106B0BDE8F0874FF4165173
:109E7000016000218180C18001810C21418100218C
:109E80008181704710B502460020108A4FF2FF030F
:109E900018400B884C8823438C882343CC88234369
:109EA0001843108210BD0021018041808180C18053
:109EB000704721B1828942F40052828104E0828994
:109EC0004DF6FF731A4082817047F0B503460024B7
:109ED00000260025002040F66A17B94200D100BFD5
:109EE0001846C1F3421401F01F06012707FA06F5D0
:109EF000012C01D10C3004E0022C01D1103000E023
:109F000014301AB107682F43076002E00768AF43B7
:109F10000760F0BD1AB1838A0B43838202E0838A13
:109F20008B4383827047028A4FF6F0731A40028295
:109F3000028A0A430282704782894FF2FF731A40F5
:109F4000828182890A438281704721B1828942F0ED
:109F50000202828104E082894FF6FD731A408281F9
:109F60007047028A4FF6DF731A400282028A0A4360
:109F70000282704721B1028A42F48042028204E0E8
:109F8000028A4BF6FF731A4002827047C1F308023F
:109F90008280704701468888C0F308007047818935
:109FA00041F0010181817047028BD2B20283028BA2
:109FB00042EA012202837047028B02F47F4202834D
:109FC000028B0A430283704721B1828A42F0200249
:109FD000828204E0828A4FF6DF731A4082827047E1
:109FE00021B1828A42F01002828204E0828A4FF616
:109FF000EF731A408282704721B1828A42F00802D0
:10A00000828204E0828A4FF6F7731A408282704798
:10A0100021B1828942F40042828103E08289C2F345
:10A020000E028281704721B1828A42F400628282EC
:10A0300004E0828A4FF2FF731A4082827047828A5C
:10A040004FF6FB731A408282828A0A4382827047EB
:10A0500021B1828A42F00202828204E0828A4FF6B3
:10A06000FD731A408282704702460020B1F5007FDE
:10A0700000D100BF13880B400BB1012000E000208D
:10A08000704701F40072B2F5007F00D100BFCA43EF
:10A090000280704770B5024600240023002500208E
:10A0A00040F66A16B14200D100BFC1F3421501F07B
:10A0B0001F03012606FA03F3012D02D196893340CE
:10A0C00006E0022D02D1168A334001E0968A334021
:10A0D0000C12012606FA04F41688344013B10CB1B0
:10A0E000012000E0002070BD10B50022002340F6E2
:10A0F0006A14A14200D100BF0A1201249440A3B205
:10A10000DC43048010BD00000038014000440040E2
:10A1100000480040004C0040005000400CB50020BA
:10A12000019000906D48006840F480306B490860F1
:10A1300000BF6A48006800F4003000900198401C9D
:10A140000190009818B90198B0F5A06FF1D163485B
:10A15000006800F4003010B10120009001E0002000
:10A1600000900098012843D15D48006840F010003D
:10A170005B4908600846006820F003000860084654
:10A18000006840F002000860544840685349486045
:10A190000846406848600846406840F4806048606F
:10A1A0000846406820F47C1048600846406840F447
:10A1B000E81048600846006840F08070086000BF02
:10A1C0004648006800F000700028F9D04348406815
:10A1D00020F00300414948600846406840F0020012
:10A1E000486000BF3D48406800F00C000828F9D1E5
:10A1F0000CBD10B5FFF792FF10BD10B5FDF77FFD48
:10A200003648006840F0010034490860084640685C
:10A2100034490840314948600846006832490840DE
:10A220002E4908600846006820F48020086008462F
:10A23000406820F4FE0048604FF41F008860FFF77C
:10A24000D8FF4FF000602949086010BD10B500210B
:10A2500000200022214B5B6803F00C0121B104298E
:10A2600006D0082928D107E0214B224C236027E0A3
:10A270001F4B204C236023E0184B5B6803F47010E5
:10A28000164B5B6803F48032022303EB904022B943
:10A29000194B4343174C23600DE0104B5B6803F4EC
:10A2A000003323B1144B4343124C236003E0104BA3
:10A2B0004343104C236003E00D4B0E4C236000BF62
:10A2C00000BF064B5B68C3F303130C4CE15C094B06
:10A2D0001B68CB40074C236010BD000000100240FB
:10A2E000002002400000FFF8FFFFF6FE08ED00E04E
:10A2F00000127A003C00002000093D0040000020D0
:10A300000948804709480047FEE7FEE7FEE7FEE709
:10A31000FEE7FEE7FEE7FEE7FEE7FEE70448054945
:10A32000054A064B70470000FBA100083161000898
:10A33000784800207868002078580020785800205D
:10A3400008B501210820FEF73BFB4020ADF80000D6
:10A3500001208DF8020010208DF803006946FA48AC
:10A36000FDF7ECFF4021F848FEF795F808BD38B539
:10A37000044601210820FEF723FB6CB18020ADF8D4
:10A38000000001208DF8020048208DF80300694686
:10A39000ED48FDF7D3FF10E08020ADF8000001206C
:10A3A0008DF8020014208DF803006946E648FDF799
:10A3B000C5FF8021E448FEF76EF838BD08B51920C6
:10A3C0008DF8000001208DF8010003208DF80200B7
:10A3D00001208DF803006846FDF7EDF808BD0EB5C5
:10A3E0000121C802FEF7ECFA41F61F40ADF800006B
:10A3F0004FF47A70ADF804000020ADF80600ADF817
:10A4000002006946D148FEF74BFE01221146CF48B3
:10A41000FFF7BDF90121CD48FFF79EF90EBD00BF42
:10A4200000BF00BF00BF00BF00BF00BF00BF00BF34
:10A430004020C5491031086000BF00BF00BF00BF09
:10A4400000BF00BF00BF00BF00BF4020BE491431A5
:10A450000860704710B500BF00BF00BF00BF00BF5D
:10A4600000BF00BF00BF00BF0020FFF780FF4020FB
:10A47000B5491031086000BF00BF00BF00BF00BF7A
:10A4800000BF00BF00BF00BF8020AF49143108608B
:10A49000062000F0E7FF4020AB491431086000BF00
:10A4A00000BF00BF00BF00BF00BF00BF00BF00BFB4
:10A4B0004020A5491031086000BF00BF00BF00BFA9
:10A4C00000BF00BF00BF00BF00BF40209E49143145
:10A4D000086000BF00BF00BF00BF00BF00BF00BFDB
:10A4E00000BF00BF0120FFF742FF00BF00BF00BF59
:10A4F00000BF00BF00BF00BF00BF00BF40209249A7
:10A5000010310860822000F0ADFF40208E491431E8
:10A51000086010BD10B500208D490870FFF75FFF7F
:10A52000FFF74CFFFFF70CFF0020FFF720FF802014
:10A53000854910310860402008600A2000F076FF4D
:10A54000FFF788FFFFF76BFF00208249086010BD0E
:10A5500010B500BF00BF00BF00BF00BF00BF00BFFD
:10A5600000BF00BF4020784910310860022000F091
:10A5700079FF402074491431086010BD10B574484B
:10A58000007810B101282AD111E06F480830006826
:10A5900000F0800050B97048007838B9FFF7D8FF54
:10A5A00001206B4908701F206A49086017E066485F
:10A5B0000830006800F0800030B90120664908705A
:10A5C00000206349087009E06248006830B9FFF76D
:10A5D00041FFFFF724FF00205D49087000BF00BF66
:10A5E00010BD10B501220023037000BF00BF00BFE3
:10A5F00000BF00BF00BF00BF00BF00BF2AE0402374
:10A60000514C1034236000BF00BF00BF00BF00BF2B
:10A6100000BF00BF00BF00BF40234B4C1434236079
:10A6200000BF00BF00BF00BF00BF00BF00BF00BF32
:10A6300000BF454B08331B6803F0800313B9037850
:10A640001343037053061A0E22B90122401C09B1AC
:10A65000002303700B00A1F10104A1B2CFD110BD02
:10A6600010B500203C490870FFF7F4FEFFF7D7FE55
:10A6700010BD10B501211023002221E04020324CF2
:10A680001034206000BF00BF00BF00BF00BF00BF8C
:10A6900000BF00BF00BF40202B4C1434206000BF1F
:10A6A00000BF00BF00BF00BF00BF00BF00BF00BFB2
:10A6B00025480830006800F0800000B90A434900CE
:10A6C0001800A3F10104E3B2D8D1B2F5404F01D094
:10A6D000401E10BD0020FCE72DE9F041034617465F
:10A6E0000BB1002902DC0120BDE8F081012F04D06C
:10A6F000022F05D0032F07D103E03F24072605E0F2
:10A7000000BF0F24052601E00220EDE700BF491E2F
:10A71000002226E0491E4FF0000C35460CE06D1E6D
:10A7200018784FF0010808FA05F800EA080018B197
:10A730000CF1010000F0FF0C002DF0D10CF0010035
:10A7400060B90320D0E70000000C0140002C01405C
:10A750005000002054000020510000201878424092
:10A760005B1C0029D6D1224018782040904201D0AD
:10A770000420B9E70020B7E709E04A1ED1B2425CE5
:10A7800002F00F024254425C42F03002425400296F
:10A79000F3D170472DE9F74F06460D4606B115B9BE
:10A7A0000120BDE8FE8F0298012804D0022808D0BD
:10A7B00003280DD106E03F274FF045084FF01F0A50
:10A7C0000AE000BF0F274FF00B084FF01F0A03E00D
:10A7D000002028700220E4E700BF0024A14608EA18
:10A7E00007080AEA070A30783840404503D00020BD
:10A7F00028700320D5E70AE0305D3840404500D19D
:10A80000A146305D3840504500D103E0641C2878F3
:10A81000A042F1DC00BF2878A04203DC00202870B1
:10A820000420BEE7641C641CA4EB09042C70B9F17D
:10A83000000F0AD003E016F809003070761C2000E3
:10A84000A4F10104F7D12878361A29783046029A03
:10A85000FFF742FF83464FEA0B20A2E7F0B502461E
:10A860000C460026012500214FF4307302B10CB9CB
:10A870000120F0BD00BF00BF00BF00BF00BF00BF90
:10A8800000BF00BF00BF002010702EE05B1E49100B
:10A8900001F07F014020FA4F386000BF00BF00BFC9
:10A8A00000BF00BF00BF00BF00BF00BF4020F44F8B
:10A8B0003F1D386000BF00BF00BF00BF00BF00BF2A
:10A8C00000BF00BF00BFEE480838006800F08000FD
:10A8D00010B941F0400101E001F03F01452904D1E8
:10A8E0001170521C0020107001E0002BCED100BF6F
:10A8F000002B03DC002020700220BAE7072093FB26
:10A90000F0F0401C2070012500212AE05B1E402051
:10A91000DB4F386000BF00BF00BF00BF00BF00BFFB
:10A9200000BF00BF00BF4020D54F3F1D386000BFB3
:10A9300000BF00BF00BF00BF00BF00BF00BF00BF1F
:10A94000CF480838006800F0800000B92943680645
:10A95000050E802D05D101251170521C00201070AC
:10A9600001E0002BD2D100BF7F2903D146F01006B1
:10A9700000202070002B03DC00202070032078E7EB
:10A9800001252AE05B1E4020BD4F386000BF00BF9C
:10A9900000BF00BF00BF00BF00BF00BF00BF40201E
:10A9A000B74F3F1D386000BF00BF00BF00BF00BFF2
:10A9B00000BF00BF00BF00BFB1480838006800F00A
:10A9C000800010B91078284310706806050E802D9D
:10A9D00003D10125521C00201070002BD2D130462B
:10A9E00047E7F0B502460C460026012500214FF44A
:10A9F000307302B10CB90120F0BD00BF00BF00BF31
:10AA000000BF00BF00BF00BF00BF00BF002010702C
:10AA10002EE05B1E491001F01F014020984F386066
:10AA200000BF00BF00BF00BF00BF00BF00BF00BF2E
:10AA300000BF4020924F3F1D386000BF00BF00BFE5
:10AA400000BF00BF00BF00BF00BF00BF8C48083878
:10AA5000006800F0800010B941F0100101E001F041
:10AA60000F010B2904D11170521C0020107001E05D
:10AA7000002BCED100BF002B03DC00202070022071
:10AA8000BAE7052093FBF0F0401C2070012500215F
:10AA90002AE05B1E40207A4F386000BF00BF00BF35
:10AAA00000BF00BF00BF00BF00BF00BF4020744F09
:10AAB0003F1D386000BF00BF00BF00BF00BF00BF28
:10AAC00000BF00BF00BF6E480838006800F080007B
:10AAD00000B929436806050E202D05D10125117006
:10AAE000521C0020107001E0002BD2D100BF1F29A2
:10AAF00003D146F0100600202070002B03DC00205C
:10AB00002070032078E701252AE05B1E40205C4F7F
:10AB1000386000BF00BF00BF00BF00BF00BF00BF64
:10AB200000BF00BF4020564F3F1D386000BF00BF30
:10AB300000BF00BF00BF00BF00BF00BF00BF504844
:10AB40000838006800F0800010B9107828431070B1
:10AB50006806050E202D03D10125521C002010701F
:10AB6000002BD2D1304647E710B5FFF707FD454827
:10AB7000007800287DD08020434908700020434998
:10AB80000870434908704349087043490870FFF74B
:10AB900070FD3E494148FFF761FE04468CB9012231
:10ABA0003A493E48FFF7F6FD044634B93648007886
:10ABB00040F001003449087006E000203349087075
:10ABC00002E000203149087031493548FFF709FF9C
:10ABD00004468CB902222E493148FFF7DBFD0446BA
:10ABE00034B92948007840F002002749087006E08F
:10ABF00000202749087002E00020254908702549F7
:10AC00002848FFF7EEFE04468CB903222149254867
:10AC1000FFF7C0FD044634B91B48007840F004003B
:10AC20001949087006E000201A49087002E0002067
:10AC3000184908701448007800F0020048B1124822
:10AC4000007840F0400010490870FFF709FD00202F
:10AC500010BD10491348FFF7C4FE04467CB9032217
:10AC60000C491048FFF796FD0446ECB906480078F9
:10AC700000E068E040F00400034908701BE017E0C2
:10AC8000100C0140510000205C0000205800002002
:10AC9000590000205A0000205B0000200C07002013
:10ACA000990700202608002000205649087002E07D
:10ACB00000205449087054495448FFF792FE044656
:10ACC0008CB9022250495148FFF764FD044634B95B
:10ACD0004F48007840F002004D49087006E000201F
:10ACE0004949087002E000204749087049494A482C
:10ACF000FFF7B4FD04468CB9012246494648FFF7E8
:10AD000049FD044634B94248007840F0010040490A
:10AD1000087006E000203F49087002E000203D492D
:10AD20000870FFF79DFC3A48007800F0020038B147
:10AD30003748007840F0400035490870002087E728
:10AD4000032000F0E5FB4FF0FF3081E770B50646C9
:10AD50000D4606B10DB9012070BD2B4801782B4876
:10AD6000FFF70AFD274801782C48FFF705FD00246E
:10AD700008E02648005D3D2802D1601EC4B205E00F
:10AD8000601CC4B2204800788442F2DD00BF1E4837
:10AD90000078844225DD002408E02048005D3D283D
:10ADA00002D1E01EC4B205E0601CC4B215480078B0
:10ADB0008442F2DD00BF13480078844201DD0120A7
:10ADC000CAE72C7022461549C91C304612F057FBC1
:10ADD0001348047022461149491C124812F04FFBD7
:10ADE0000EE02C7022460949491C304612F047FB00
:10ADF0000B48047022460549491C0A4812F03FFBE3
:10AE00000020A9E75A0000205900002099070020DF
:10AE10005C000020580000200C07002026080020BD
:10AE20005B000020B30800201CB501213C20FDF789
:10AE3000C7FD0420ADF8040003208DF8060018209B
:10AE40008DF8070001A9FE48FDF778FA0820ADF853
:10AE5000040003208DF8060004208DF8070001A9E6
:10AE6000F748FDF76BFA4FF40060ADF804000320DB
:10AE70008DF8060004208DF8070001A9F148FDF7C0
:10AE80005DFA26208DF8000001208DF801000020D9
:10AE90008DF8020001208DF803006846FCF78BFB5B
:10AEA0001CBD1FB501214804FDF797FDE648FEF7DC
:10AEB00031FF4FF4E13000900020ADF80400ADF810
:10AEC0000600ADF80800ADF80C000C20ADF80A0043
:10AED0006946DD48FEF761FF2021DB48FFF7D1F826
:10AEE000012240F22551D848FEF7EFFF0121D64854
:10AEF000FEF7DFFF1FBD0EB50C210220FDF734FB6E
:10AF00004FF48050019000208DF8080010208DF83B
:10AF1000090001208DF80A0001A8FCF751FE282045
:10AF20008DF8000001208DF801008DF802008DF8E9
:10AF300003006846FCF73FFB0EBD704770B5054641
:10AF40000E46012000F072FA00240BE0295DBE4895
:10AF5000FFF71CF800BFBC48008800F08000002804
:10AF6000F9D0641CB442F1D3012000F05FFA70BD47
:10AF70002DE9F04105460E464FF08057002400BFF2
:10AF800012E004E07F1E17B90120BDE8F081AE4851
:10AF9000008800F020000028F4D0AB48FEF7FAFF4C
:10AFA00028554FF08057641CB442EAD30020ECE7E8
:10AFB00070B54FF40061A348FDF753FA05461DB183
:10AFC000012D03D1002401E0022400BF00BF204670
:10AFD00070BD704770B508219A48FDF74FFA0646D4
:10AFE00004219848FDF74AFA46EA0010C5B23DB17F
:10AFF000012D03D0112D05D1002403E0022401E02E
:10B00000012400BF00BF204670BD0020704710B56E
:10B01000FFF70AFFFFF745FFFFF76DFF10BD70B5A3
:10B0200004460D46FFF7F1FF00B170BD4FF480619B
:10B030008448FDF732FA032000F0F8F9294620464B
:10B04000FFF77CFF4FF480617E48FDF724FA00BFD4
:10B05000EBE72DE9F04106460F4614461D464FF03A
:10B060000008002240F225517748FEF72EFF3946AE
:10B070003046FFF763FF29462046FFF779FF00F0CF
:10B08000FF08012240F225516F48FEF71EFF40469F
:10B09000BDE8F0812DE9F04389B005460C4616461F
:10B0A000202101A812F08CFA0027B846B9460120E9
:10B0B0008DF8040029208DF80500FC208DF806008D
:10B0C00003208DF8070020788DF8080060788DF84F
:10B0D00009008DF80A6007279DF80A000A3000F081
:10B0E000FF0843462A46394601A8FFF7B2FF00F0A1
:10B0F000FF09484609B0BDE8F0832DE9F04790B05C
:10B1000007460E461446202108A812F059FA2021BD
:10B11000684612F055FA4FF00009CA460025A846C5
:10B1200001208DF8200027208DF82100FC208DF8CB
:10B130002200E01CC0B28DF8230030788DF8240086
:10B1400070788DF825008DF8264000BF05E0795D08
:10B15000E81D08AA1154681CC5B2A542F7DB9DF88A
:10B160002300001D00F0FF094FF0070A53466A460E
:10B17000494608A8FFF76DFF00F0FF08B8F1000F7F
:10B1800004D19DF8060008B14FF00108404610B008
:10B19000BDE8F087F0B5C1B006460D4600242BA1EE
:10B1A00003C9CDE90101083401A908192A4631462D
:10B1B00012F065F92C440D2001A90855641C0022E9
:10B1C00040F225512048FEF780FE214601A8FFF7F6
:10B1D000B5FE062101A8FFF7CBFE0746002041B0CF
:10B1E000F0BD1CB500241CA0006801901BA00068E5
:10B1F00000900220FFF7EDFE032201A96846FFF749
:10B200007CFFC4B20CB120461CBD0020FFF7E1FE5C
:10B2100000BFF9E72DE9F04106460C46002500275E
:10B2200006F108000E49C86002210D48FFF7A0FE94
:10B23000C5B2BDB1002020601020BDE8F081000043
:10B2400000080140001001400044004041542B4ED2
:10B25000414D453D000000000007000024040400AB
:10B26000D408002062480078552803D1604840780F
:10B27000AA2803D0002020601120DEE701215C48CD
:10B28000801CFFF775FEC5B21DB1002020601020A4
:10B29000D3E701215648C01CFFF76AFEC5B21DB1B5
:10B2A000002020601020C8E702215148001DFFF750
:10B2B0005FFEC5B21DB1002020601020BDE74C48E4
:10B2C0000179407941EA0027B7F5806F03D9002062
:10B2D00020601220B1E702214548801DFFF748FE9B
:10B2E000C5B21DB1002020601020A6E7B81E40495D
:10B2F00088600A469168D068FFF73AFEC5B21DB172
:10B3000000202060102098E7012139481430FFF711
:10B310002FFEC5B21DB10020206010208DE7022154
:10B3200033481530FFF724FEC5B21DB10020206060
:10B33000102082E72E48407DCC2803D12C48807D08
:10B34000332803D000202060142076E728480168C5
:10B350003160406870602648017D80680830315453
:10B360002348417D8068093031542148817D8068BF
:10B370000A3031541E488068C71D381D20600020E7
:10B380005BE7F8B505460E4600200090002405F165
:10B39000080017490861B41C0C71210A1448417156
:10B3A000016829604068686011483246016905F10A
:10B3B000080012F064F8241D6A462146A81C00F01B
:10B3C0004AFAA41C9DF800002855641C0848407DDA
:10B3D0002855641C0648807D2855641C2146284653
:10B3E000FFF71DFE0A2000F021F8F8BD002070478D
:10B3F000D40800204FF0E021096921F004014FF04A
:10B40000E0221161C21700EB5272C2F3C702234B54
:10B410001A701946097801EB4102C2EBC1114FF6CF
:10B42000FF7202EAC1011E4A1180704701461C4AA0
:10B4300012884A434FF0E0235A6100229A610122A8
:10B440001A6100BF4FF0E022106900F001021AB14A
:10B4500000F48032002AF5D000224FF0E0231A6178
:10B460009A61704701460D4A12784A434FF0E02333
:10B470005A6100229A6101221A6100BF4FF0E02256
:10B48000106900F001021AB100F48032002AF5D0F0
:10B4900000224FF0E0231A619A6170476A00002091
:10B4A0006C00002008B501210520FDF789FA012173
:10B4B0001A48FDF714F84FF40040ADF800000320DF
:10B4C0008DF8020010208DF8030069461448FCF73F
:10B4D00035FF4FF400411248FCF7DFFF08BD10B5FF
:10B4E000002411E04FF400410D48FCF7D4FF642024
:10B4F000FFF7B8FF4FF400410948FCF7CEFF642086
:10B50000FFF7B0FF601C84B2B4F5FA7FEADB10BD30
:10B5100010B50446FFF7E3FF002010BD0002300025
:10B5200000080140F0B502460B46FF24FF25002627
:10B530000AE0905D80EA0401701CC6B2FE48405CDF
:10B5400080EA0504FD48455C1800A3F10103F0D131
:10B5500045EA0420F0BDF0B5C1B006460D461746D9
:10B5600026B11DB117B12878802804DD002028708D
:10B57000702041B0F0BD002420E0305D000901A939
:10B5800001F8140001A810F8140040F0300001F890
:10B590001400305D00F00F00012101EB440101AA0D
:10B5A0005054012000EB440001A9085C40F0300039
:10B5B000012101EB44015054601CC4B22878A04220
:10B5C000DBDC28784006000E28702A7801A938466E
:10B5D00011F055FF0020CCE7F0B5C1B006460D468E
:10B5E000174626B11DB117B12878802804DD002048
:10B5F0002870702041B0F0BD002453E0305D000998
:10B6000001A901F8140001A810F81400092806DCAB
:10B6100001A810F81400303001F8140010E001A85F
:10B6200010F814000A280BDB01A810F814000F28EA
:10B6300006DC01A810F81400373001A901F8140045
:10B64000305D00F00F00012101EB440101AA5054CC
:10B65000012000EB440001A9085C092809DC012055
:10B6600000EB4400085C3030012101EB44015054F0
:10B6700016E0012000EB440001A9085C0A280FDB5A
:10B68000012000EB4400085C0F2809DC012000EBDE
:10B690004400085C3730012101EB440101AA5054F9
:10B6A000601CC4B22878A042A8DC28784006000EAE
:10B6B00028702A7801A9384611F0E1FE002099E7A8
:10B6C0002DE9F041C0B007460E4690461FB116B1B5
:10B6D000B8F1000F05D100203070702040B0BDE8F7
:10B6E000F081002555E017F81540302C06DB392C89
:10B6F00004DC2007000E0DF8050017E0412C07DBE5
:10B70000462C05DCE01F0007000E0DF805000DE0DB
:10B71000612C07DB662C05DCE01F0007000E0DF82E
:10B72000050003E0002030707120D7E7012000EB16
:10B7300045003C5C302C0ADB392C08DC1DF8051078
:10B7400004F00F000844C0B20DF805001FE0412CC2
:10B750000BDB462C09DC1DF80510E01F00F00F0084
:10B760000844C0B20DF8050011E0612C0BDB662C1B
:10B7700009DC1DF80510E01F00F00F000844C0B2FE
:10B780000DF8050003E0002030707220A6E7681C69
:10B79000C5B2307800EBD071B5EB610FA3DB307828
:10B7A00000EBD0714910317032786946404611F093
:10B7B00066FE002092E73CB503460C461AB113B171
:10B7C00004F0070008B170203CBD00211068009013
:10B7D0005068019037E09DF800005D5C68408DF88E
:10B7E00000009DF801004D1C5D5D68408DF8010072
:10B7F0009DF802008D1C5D5D68408DF802009DF88B
:10B800000300CD1C5D5D68408DF803009DF80400C9
:10B810000D1D5D5D68408DF804009DF805004D1D0F
:10B820005D5D68408DF805009DF806008D1D5D5D2D
:10B8300068408DF806009DF80700CD1D5D5D6840ED
:10B840008DF807000831A142C5D300981060019817
:10B8500050600020B8E730B503460D460BB97020A4
:10B8600030BD1478002102E0585C4440491CA942D4
:10B87000FAD314700020F3E710B504460B4604B168
:10B880000BB9702010BD196801E06254491C01F029
:10B8900007000028F9D1196000BFF3E710B503468F
:10B8A0000A4603B10AB9702010BD116801F0070003
:10B8B000C0F1080401E05C54491C01F007000028B5
:10B8C000F9D1116000BFEFE72DE9F0418CB00546DA
:10B8D0000C4616461F46DDF8488025B11EB10E2CD9
:10B8E00001DC0D2F03DA70200CB0BDE8F0818DF87B
:10B8F0002040224629460DF1210011F0C0FDC4F17F
:10B900000E010DF121021019462211F02FFE0E201A
:10B9100001900DF1210201A91046FFF7D1FE30225E
:10B92000042104A811F022FEF01950F80D1D059114
:10B9300041680691806803E094D6010894D7010815
:10B9400007901020019004AA01A904A8FFF7B8FEEF
:10B95000DDE90401CDE90A0100200290039002AA6A
:10B96000102108A8FFF727FF0298C8F800000398E5
:10B97000C8F804000020B7E72DE9FF4107460D464F
:10B98000144600260FB105B11CB9702004B0BDE803
:10B99000F081287800909DF80000062801D07120E1
:10B9A000F4E79DF80020394601A811F068FD01AACE
:10B9B000694601A8FFF7CFFD002607E0701CC6B25C
:10B9C0000B2E03DD002028700120DFE701A8805D39
:10B9D0003028F3D0C6F10C00C0B200909DF80000F2
:10B9E00002281DDD9DF80000821E01A88119204655
:10B9F00011F045FD2E219DF80000801E21549DF878
:10BA00000E109DF80000401E21549DF80F009DF877
:10BA1000001060549DF80000401CC0B2009019E076
:10BA2000302020702E2060709DF80000022806D182
:10BA30009DF80E00A0709DF80F00E07008E09DF8E2
:10BA40000000012804D13020A0709DF80F00E070A4
:10BA5000042000909DF800002870002096E72DE952
:10BA6000F04186B005460C46174615B10FB10C2CB7
:10BA700003DD702006B0BDE8F08130220C2102A861
:10BA800011F074FD012C05D1601EC4B2285D8DF843
:10BA9000130025E0022C0AD1601EC4B2285D8DF887
:10BAA0001300601EC4B2285D8DF8120018E0022C4D
:10BAB00014DD0C260FE0601EC4B2701EC6B2285DF5
:10BAC0002E2805D114B1601EC4B201E07120D1E767
:10BAD000285D02A98855002CEDD101E07220C9E74C
